:020000040000FA
:100000000C945E010C947B010C947B010C947B019D
:100010000C94C9080C9493080C947B010C947B01FC
:100020000C947B010C947B010C947B010C947B0160
:100030000C947B010C947B010C947B010C947B0150
:100040000C947B010C947B010C947B010C947B0140
:100050000C947B010C947B010C947B010C947B0130
:100060000C947B010C947B0110181C1E1C181000B2
:1000700000071911111F00000000211042206330F9
:100080008440A550C660E770088129914AA16BB1F0
:100090008CC1ADD1CEE1EFF1311210027332522298
:1000A000B5529442F772D662399318837BB35AA340
:1000B000BDD39CC3FFF3DEE3622443342004011468
:1000C000E664C774A44485546AA54BB52885099590
:1000D000EEE5CFF5ACC58DD5533672261116300638
:1000E000D776F6669556B4465BB77AA719973887E0
:1000F000DFF7FEE79DD7BCC7C448E5588668A778F8
:100100004008611802282338CCC9EDD98EE9AFF92F
:10011000488969990AA92BB9F55AD44AB77A966AD7
:10012000711A500A333A122AFDDBDCCBBFFB9EEB7F
:10013000799B588B3BBB1AABA66C877CE44CC55CA7
:10014000222C033C600C411CAEED8FFDECCDCDDDCF
:100150002AAD0BBD688D499D977EB66ED55EF44E77
:10016000133E322E511E700E9FFFBEEFDDDFFCCF1F
:100170001BBF3AAF599F788F8891A981CAB1EBA173
:100180000CD12DC14EF16FE18010A100C230E320EF
:100190000450254046706760B9839893FBA3DAB397
:1001A0003DC31CD37FE35EF3B1029012F322D2323F
:1001B0003542145277625672EAB5CBA5A895898567
:1001C0006EF54FE52CD50DC5E234C324A01481048F
:1001D0006674476424540544DBA7FAB79987B89737
:1001E0005FE77EF71DC73CD7D326F2369106B016DF
:1001F00057667676154634564CD96DC90EF92FE9F7
:10020000C899E9898AB9ABA944586548067827682E
:10021000C018E1088238A3287DCB5CDB3FEB1EFBD6
:10022000F98BD89BBBAB9ABB754A545A376A167A7E
:10023000F10AD01AB32A923A2EFD0FED6CDD4DCDA6
:10024000AABD8BADE89DC98D267C076C645C454CCE
:10025000A23C832CE01CC10C1FEF3EFF5DCF7CDF76
:100260009BAFBABFD98FF89F176E367E554E745E1E
:10027000932EB23ED10EF01E43594C3A203030201E
:1002800020484541443A203000202D2D204E4F205B
:1002900046494C4553202D2D2000204341524420F7
:1002A0004D4F554E54204F4B2E004E4F2043415240
:1002B0004420494E534552544544000011241FBE6A
:1002C000CFEFD8E0DEBFCDBF11E0A0E0B1E0E2ECBF
:1002D000F3E202C005900D92A432B107D9F725E0F0
:1002E000A4E2B1E001C01D92AC31B207E1F70E9477
:1002F000FB080C94DF110C940000282F30E0A901BA
:1003000066E0559547956A95E1F7E42F9091D40101
:1003100090FF02C087FFE4609091C00095FFFCCF82
:10032000F0E0EF5FFE4F90819093C6009091C00087
:1003300095FFFCCFF90144E0F595E7954A95E1F783
:10034000E770FF27EF5FFE4F90819093C60090917A
:10035000C00095FFFCCF90914F0191111BC0F90196
:10036000F595E795F595E795E770FF27EF5FFE4F69
:1003700090819093C6008093D4019091C00095FF26
:10038000FCCF8770E82FF0E0EF5FFE4F8081809315
:10039000C60008959FE7EDCF8EBD0DB407FEFDCFDB
:1003A00008958FEF8EBD0DB407FEFDCF8EB5089575
:1003B000DF92EF92FF920F931F93CF93DF93C82F9B
:1003C000142F052FE62ED72EF22E2A9A87FF0BC068
:1003D00020E040E050E0BA0187E70E94D801D82F22
:1003E0008230A0F5CF772A9A0E94D1012A980E94E4
:1003F000D1018C2F0E94CC018D2D0E94CC018E2D1D
:100400000E94CC01802F0E94CC01812F0E94CC0140
:1004100085E9C03421F087E8C83409F08FEF0E94E5
:10042000CC01C0E00E94D101D82F8F3F19F4CF5FDB
:10043000C038C1F70AE411E0C0E0CF1539F00E94DE
:10044000D101F80181938F01CF5FF7CF8D2FDF911D
:10045000CF911F910F91FF90EF90DF90089520E0D2
:1004600040E050E0BA018AE40E94D80160E08111C6
:1004700010C0E4E2F1E09FEF9EBD0DB407FEFDCF9A
:100480008EB5819381E0E433F807B1F72A9A609141
:100490002D0170E090E080E00895CF92DF92EF921E
:1004A000FF920F931F93CF93DF93EC01690180912B
:1004B0004E0183FD07C099E0440F551F661F771F4B
:1004C0009A95D1F720E081E50E94D801882359F060
:1004D00081E090E0DF91CF911F910F91FF90EF901D
:1004E000DF90CF90089580E4E82E8CE9F82E0E94EA
:1004F000D1018F3F29F431E0E31AF108C1F7E8CFC9
:100500008E3F31F790E080E02FEF2EBD0DB407FE57
:10051000FDCF8C159D0540F00115110529F03EB564
:10052000388301501109219601968230980769F7A6
:100530002A9A8FEF8EBD0DB407FEFDCF81E090E0CB
:10054000012B41F680E0C6CF982F807194FD80E1A9
:1005500095FD806296FD806497FD8068089594EA19
:100560009093BC009091BC0097FFFCCF9091B90094
:10057000987F983011F0903161F49AE49093BB0029
:1005800094E89093BC009091BC0097FFFCCF9091B1
:10059000B90090910001937021E030E001C0220F7A
:1005A0009A95EAF7822B8093BB0084E88093BC0085
:1005B0008091BC0087FFFCCF84E98093BC008091D0
:1005C000BC0084FDFCCF0895CF92DF92EF92FF92A2
:1005D0000F931F93CF93DF93EC016A017B0102E03D
:1005E00010E02EEF31E00E944D02892BF1F488815A
:1005F000998185359A4AD9F422E530E0B701A60100
:10060000CE010E944D02892BA1F481E0288139811D
:100610002634314409F480E0DF91CF911F910F918E
:10062000FF90EF90DF90CF90089583E0F5CF82E0C8
:10063000F3CF81E0F1CF0F931F93E0911A05F09172
:100640001B059B01AC0122503109410951098281EE
:100650009381A481B5810297A109B10928173907AF
:100660004A075B0778F4A081B0E00E949A110685E2
:10067000178520893189600F711F821F931F1F9179
:100680000F91089560E070E0CB01F9CF0F931F93B5
:10069000CF93DF93EC01E0911A05F0911B051982CD
:1006A00018826C817D818E819F8161307105810509
:1006B000910569F1028113812481358160177107E9
:1006C0008207930720F5611571058105910521F4D5
:1006D0006285738584859585688779878A879B87F6
:1006E000611571058105910569F00E941B036C87F6
:1006F0007D878E879F8790E080E0DF91CF911F916B
:100700000F9108956285738584859585F0CF81E08A
:1007100090E0F3CFCF92DF92EF92FF920F931F936F
:10072000CF93DF9300D000D0CDB7DEB76230710534
:100730008105910588F461E070E080E090E00F9021
:100740000F900F900F90DF91CF911F910F91FF901D
:10075000EF90DF90CF900895E0911A05F0911B057E
:10076000C280D380E480F5806C157D058E059F05E1
:1007700010F7AB01BC01242F2F7784E0289F900154
:10078000112487E076956795579547958A95D1F717
:10079000C680D780E084F1844C0D5D1D6E1D7F1DE9
:1007A00004E010E0CE0101960E944D02892B19F65B
:1007B00069817A818B819C819F70C1CF8F929F923A
:1007C000AF92BF92CF92DF92EF92FF920F931F935F
:1007D000CF93DF93E0911A05F0911B0588E090E03C
:1007E000309721F1C0910A05D0910B05209709F4AB
:1007F0007CC08091160590911705A0911805B091C5
:100800001905892B8A2B8B2B09F46FC080900E055C
:1008100090900F05A0901005B090110581E088160A
:100820009104A104B10479F481E090E0DF91CF91CB
:100830001F910F91FF90EF90DF90CF90BF90AF90FE
:100840009F908F90089582819381A481B5818816AD
:100850009906AA06BB0640F781149104A104B104CD
:1008600021F482849384A484B5842197CE0124E06A
:10087000969587952A95E1F7608170E00E94501166
:100880006B017C0110E000E00C151D0578F4C5013A
:10089000B4010E948A034B015C0182E08816910436
:1008A000A104B10408F20F5F1F4FEECF8092120532
:1008B00090921305A0921405B0921505C501B401DC
:1008C0000E941B036E0D7F1D811D911D60931605F7
:1008D000709317058093180590931905D0930B0515
:1008E000C0930A0590E080E0A1CF83E090E09ECF26
:1008F0002F923F924F925F926F927F928F929F9230
:10090000AF92BF92CF92DF92EF92FF920F931F931D
:10091000CF93DF93EC01E880F9808FEFE81AF80AB3
:1009200019F483E090E043C04C845D846E847F843E
:100930004114510461047104A1F300911A0510914E
:100940001B05F80126A037A088849984AA84BB845B
:100950006701FFE0CF22DD24C114D10409F04FC0AC
:10096000D301C2010196A11DB11D8C879D87AE8761
:10097000BF8781149104A104B10499F2F801808128
:100980008150990B970144E0369527954A95E1F7F8
:1009900082239323892B99F5C501B4010E948A0310
:1009A0006230710581059105A8F481E090E0DF9146
:1009B000CF911F910F91FF90EF90DF90CF90BF905C
:1009C000AF909F908F907F906F905F904F903F90EF
:1009D0002F900895F80102811381248135816017D9
:1009E00071078207930708F09CCF688779878A8709
:1009F0009B870E941B036C877D878E879F8796014C
:100A000085E0220F331F8A95E1F74C855D856E8561
:100A10007F8500E210E0C1010E944D02892B29F67A
:100A2000F1018081811109C04C865D866E867F86CA
:100A300088869986AA86BB8674CFF982E88290E080
:100A400080E0B5CFCF93C82F84600E94AF028AE0C8
:100A50008A95F1F700C08C2F8B7FCF910C94AF0259
:100A6000CF93C82F0E94A40281600E94220585ECCA
:100A70008A95F1F700008C2F8295807F0E94A40256
:100A8000C82FC1608C2F0E9422058C2F0E94AF02BC
:100A90008FE39FE10197F1F700C00000CF91089527
:100AA000CF93DF93EC01FE0184912196882319F006
:100AB0000E943005F8CFDF91CF910895CF93DF9357
:100AC000C82F0E94A402D82FDE7F8D2F0E942205FE
:100AD0008D2F0E94AF0285EC8A95F1F700008C2FD4
:100AE0008295807F0E94A402D82FDE7F8D2F0E94E6
:100AF00022058D2F0E94AF02CC7F39F095EC9A959C
:100B0000F1F70000DF91CF9108958FE39FE1019706
:100B1000F1F700C0F6CF613049F028F0623041F0C3
:100B2000633041F0089580580C945E058054FCCFEA
:100B30008057FACF8053F8CF81E00C945E050F9375
:100B40001F93CF938C01C0E08C2F90E0F8010190AF
:100B50000020E9F73197E01BF10B8E179F0740F457
:100B6000800F911FFC0180810E943005CF5FECCF88
:100B7000CF911F910F910895682F80E00E948B05FF
:100B800080E00E9430058091BC0384FF07C060E0D4
:100B900081E00E948B0581E00E94300560E082E0E8
:100BA0000E948B058DEB93E00E949F058091D203FC
:100BB00084FF07C061E081E00E948B0581E00E9414
:100BC000300561E082E00E948B0583ED93E00C9498
:100BD0009F058F929F92AF92BF92CF92DF92EF923A
:100BE000FF920F931F93CF93DF936C017B01DB0187
:100BF0008C916F5F7F4F8032C9F38F3209F47B0194
:100C0000F6011482158216821782D7018C918032E8
:100C100008F08DC0C601DF91CF911F910F91FF9019
:100C2000EF90DF90CF90BF90AF909F908F900C94FB
:100C30004603C1E0D0E0CE01DF91CF911F910F912B
:100C4000FF90EF90DF90CF90BF90AF909F908F90EC
:100C50000895C3E0D0E0EFCF222309F494C0E30E5F
:100C6000F11C81E08B87C6010E944603EC01892BB1
:100C700011F780901A0590901B05D4019696AD90BF
:100C8000BC90F601208131812F70332745E0220F7F
:100C9000331F4A95E1F7448555856685778500E2DF
:100CA00010E0C5010E944D02892B19F6D5018C91E7
:100CB000882379F21B968C9183FD0BC0F60102818B
:100CC00013814BE050E0B801C5010E94B411892B9B
:100CD00071F0C6010E947804009799F2EC01ABCF45
:100CE000222309F450C0E30EF11C80E0BBCFD801F1
:100CF0001B968C9181119FCFD4019696ED91FC911A
:100D0000838584FFA6CF84899589B0E0A0E0DC01CB
:100D100099278827428D538D70E060E0842B952BB6
:100D2000A62BB72BF60184839583A683B783F601A0
:100D3000C281D3814BE050E060E270E0CE010E94BE
:100D4000CA1120E0E0E098E031E03E0FEE0DFF2D0B
:100D5000F11D8081803208F47FCF8F3209F4C0CF3B
:100D60008E32A1F0291778F48F3768F4682F70E07D
:100D7000E9E0F1E04191442369F0042E000C550BA9
:100D800064177507B9F7C5E0D0E055CF9830D9F7AB
:100D90008BE00CC04FE9480F4A3108F48052FE0145
:100DA000E20FF11D8083892F91E0920F292FE32F0D
:100DB000982FCACF0F931F93CF93DF93CDB7DEB792
:100DC0002C970FB6F894DEBF0FBECDBFE0911A0589
:100DD000F0911B0510920B0510920A053097E1F176
:100DE000BC01CE01019690930D0580930C0506A1E0
:100DF00017A18AE095E00E94E905009711F5F80136
:100E000080818823D1F0838584FF29C084899589D6
:100E1000B0E0A0E0DC0199278827428D538D70E077
:100E200060E0842B952BA62BB72B80930E05909317
:100E30000F05A0931005B09311058AE095E00E947C
:100E400046032C960FB6F894DEBF0FBECDBFDF91E0
:100E5000CF911F910F91089588E090E0F2CF83E049
:100E600090E0EFCF5F926F927F928F929F92AF92BE
:100E7000BF92CF92DF92EF92FF920F931F93CF9387
:100E8000DF93CDB7DEB72C970FB6F894DEBF0FBE59
:100E9000CDBFF82EE62ECE0101964C019EE2592ED2
:100EA000EE2071F140E150E064EA73E08AE095E001
:100EB0000E94B411892BB9F48EEF2C960FB6F894DA
:100EC000DEBF0FBECDBFDF91CF911F910F91FF907D
:100ED000EF90DF90CF90BF90AF909F908F907F90DA
:100EE0006F905F9008950E94DE03892B29F7C090D0
:100EF0001A05D0901B05C114D10439F48FEFDDCF52
:100F00008AE095E00E947804F0CF90920D058092DF
:100F10000C05D60196966D907C9083E090E0409110
:100F20001605509117056091180570911905411526
:100F300051056105710509F4E8C020910A05309159
:100F40000B052F70332785E0220F331F8A95E1F7B9
:100F500000E210E0C3010E944D02892B09F0DBC0C2
:100F6000F3018081882309F4D9C0853E19F0838577
:100F700083FF13C0EE2009F4C3C00E94DE03009774
:100F800009F4BBC0109216051092170510921805AF
:100F900010921905039709F0B1CF80911605909131
:100FA0001705A0911805B0911905892B8A2B8B2B59
:100FB00009F4AEC0D6019696CD90DC90A601C6018C
:100FC0000896EDE3F1E0DA012D91AD01203259F000
:100FD000253009F425EEBF016F5F7F4F2083FB01B1
:100FE0004817590781F7D60118962C91203299F0AD
:100FF00050829F012C5F3F4F3196DC016D91CD01F6
:10100000603249F0AF014F5F5F4F60834217530773
:1010100009F087C0F901D6011B968C911B9780932C
:101020003C015C964D915D916D917C915F974093F1
:10103000340150933501609336017093370158960F
:101040008D919C91599790933901809338015696D0
:101050008D919C9190933B0180933A0110828091F5
:101060003D01882309F41CCF69E171E08DE391E033
:101070000E94F710892B21F480913C0184FF10CF4E
:10108000EE20A1F049E050E06AEC73E084EB93E0DD
:101090000E94B411892B51F44CE050E063ED73E0F1
:1010A0008DEB93E00E94D111892B29F186E1E4EBCD
:1010B000F3E0AAECB3E0FF2041F0B1E0FB1209C07D
:1010C00086E1EAECF3E0A4EBB3E001900D928A959F
:1010D000E1F7F0FAAA24A0F8B12C86E18A9DD001AC
:1010E0008B9DB00D1124AC54BC4FE4E3F1E00190B2
:1010F0000D928A95E1F780E0E0CE90E080E00FCF9E
:101100008AE095E00E9478043ACF009709F03ACF40
:10111000EDE3F1E0A3CF81E090E034CF83E090E015
:1011200031CFFA016ACF1F920F920FB60F9211249E
:101130002F933F938F939F934C9913C01092C100AC
:101140008091D6014D9B16C0882319F08150809361
:10115000D6018091D601811101C0539A81E080931C
:10116000D5019F918F913F912F910F900FBE0F90BE
:101170001F901895282F30E02F5F3F4F90911F034D
:101180009217130621F01CF08F5F8093D6015398BD
:10119000E5CF1F920F920FB60F9211242F933F931A
:1011A0008F939F9386B18C709091A2039C3091F4A1
:1011B000882381F03AE090E020E032992F5F339964
:1011C0009F5F3150D1F7293080F09091A3039F5F4A
:1011D0009093A3038093A2039F918F913F912F91AE
:1011E0000F900FBE0F901F901895993098F3909123
:1011F000A3039150EDCFCF93DF93CDB7DEB7C654A5
:10120000D1090FB6F894DEBF0FBECDBF88B18063A1
:1012100088B987B18F7C87B91092B90088E4809330
:10122000B80080E00E94AF022FEF33EF41E0215081
:1012300030404040E1F700C0000080E30E94AF0270
:1012400080E30E9422058FE19EE40197F1F700C040
:10125000000080E30E942205AFE8B1E01197F1F7AA
:1012600000C0000080E30E942205EFE8F1E0319722
:10127000F1F700C0000080E20E94AF0280E20E940D
:10128000220580E20E94AF028FE891E00197F1F71A
:1012900000C0000088E20E945E058CE00E945E05AE
:1012A00086E00E945E050E949C0580E40E945E0527
:1012B00008E610E0E0E7EE2EE0E0FE2EF801849173
:1012C0000E9430050F5F1F4FE016F106B9F788E462
:1012D0000E945E05F12CE12CF801EE0DFF1D8491BA
:1012E0000E943005FFEFEF1AFF0A28E0E216F10432
:1012F00099F7F8941092C50087E08093C40010928B
:10130000C0001092C10080916D00806180936D00DB
:1013100080916C008C6080936C008BB1816F8BB975
:1013200088B18E6088B920988AB1837F8AB98CE2AF
:1013300084B980E58CBD8DB581608DBD789488E2DF
:1013400094E0909309058093080588E094E09093D9
:10135000070480930604809168008D7F8093680065
:101360000E949C058AEA92E00E945005E4EBF3E0BB
:101370008CE2DF011D928A95E9F772E0F72E109258
:101380001B0510921A0510924E012A9A14E10E9430
:10139000D1011150E1F720E040E050E0BA0180E4D3
:1013A0000E94D801182F813019F524E04AEA51E053
:1013B00060E070E088E40E94D801813009F0FFC04D
:1013C00080914C018130A1F480914D018A3A81F4E1
:1013D00008EA11E620E040E050E060E070E489EEC9
:1013E0000E94D801882309F4E6C60150110991F73B
:1013F0002A9A0E94D10180914E01882309F4BFCF1F
:1014000040E050E0BA01CE0101960E94E402412C76
:10141000512C32018130E9F400E110E02EEB31E093
:1014200040E050E0BA01CE0101960E944D02892BA6
:1014300009F0A5CF8D818B50823008F0A0CF498470
:101440005A846B847C84B301A201CE0101960E9470
:10145000E402811194CF04E210E02DE030E0B3010A
:10146000A201CE0101960E944D02892B09F087CF7F
:10147000E981E093E003AC81288D398D4A8D5B8D45
:10148000B0E00E949A116AAF7BAF8CAF9DAFCA806B
:10149000DB80F12CE12C6C897D898E899F896C1908
:1014A0007D098E099F092AAD3BAD4CAD5DAD621B38
:1014B000730B840B950B2E2F30E050E040E00E9420
:1014C00078112E5F3F4F4F4F5F4F2093E2033093D1
:1014D000E3034093E4035093E50388A199A1AAA1F3
:1014E000BBA18093EA039093EB03A093EC03B0932A
:1014F000ED03C40CD51CE61CF71CC092E603D09289
:10150000E703E092E803F092E9038AAD9BADACAD4E
:10151000BDADC80ED91EEA1EFB1EC092EE03D092CE
:10152000EF03E092F003F092F10380EE93E09093EA
:101530001B0580931A050E949C058AE992E00E948F
:1015400050050E942F0269AB7AAB8BAB9CAB2A9AF9
:1015500040EE50E064E070E080910805909109054C
:101560000E941C11E0910805F091090580818823F3
:1015700009F474C044E050E070E060E0CE010196F0
:101580000E941C1149815A816B817C8189A99AA989
:10159000ABA9BCA9481759076A077B07A1F144E02A
:1015A00050E070E060E0CE01C1960E942C1160E036
:1015B00084E090E00E943611D9CE84E00AC620E093
:1015C00040E050E0BA0189EE0E94D8018230B0F4C8
:1015D000F0924E0169EEE62E08EA11E620E040E0C6
:1015E00050E0BA018E2D0E94D801882309F4F4C579
:1015F0000150110999F710924E01FACE10934E0145
:1016000051E4E52EE9CF892C9B2C91E09AAF009113
:101610001A0510911B0501151105A9F06091080527
:1016200070910905D8019696ED90FC90CE018596B3
:101630009C838B8384970E94E905009709F4CCC1B1
:10164000882309F4F3C1BAADB13009F09EC02A9ADB
:1016500060E084E090E00E94361197C08EE191E056
:101660000E94DA06912C0E949C0560E082E00E94B4
:101670003207882339F060E082E00E943207312C83
:1016800081110BC080E1EAE0F5E0A4EAB3E001904B
:101690000D928A95E1F73324339460E083E00E9451
:1016A0003207811101C03394812C222423943110FC
:1016B00024C0911010C089E892E00E945005AFEF5D
:1016C000BBE7E2E9A150B040E040E1F700C0000014
:1016D000B12C392C4BCEE4EBF3E08CE2DF011D9210
:1016E0008A95E9F78EE28093BD038093BE0380E183
:1016F0008093BC03832C332433940E949C05882D53
:101700000E94BC051092A3031092A203D99A809163
:101710006800826080936800319B7BC08091A30346
:10172000811102C03199FACF0E942F0209A91AA98A
:101730002BA93CA9601771078207930731F58091A7
:10174000A3031816ACF5F894B2E03B1213C0811055
:101750001FC0222099F080EC0E945E0580E00E946C
:10176000300580E80E945E0580E20E943005212C51
:10177000882483941092A3037894CECF60E083E012
:101780000E9432078F3F39F7812CB92C982CE3CD7A
:1017900060E081E00E943207811107C00E949C0531
:1017A00081E00E94BC05212CE5CF8F3F19F7EDCFDA
:1017B0008091A30387FFB0CFF894E2E03E12DACF26
:1017C000F1E08F1214C061E082E00E9432078F3F87
:1017D000E1F280E80E945E0580E00E94300580EC26
:1017E0000E945E0580E20E943005812CC3CF21104B
:1017F000C1CF61E080E00E943207811106C00E94E3
:101800009C0580E00E94BC05F0CF8F3F09F0B2CF6D
:10181000BBCF27961FAE2797319911C027962FADC2
:1018200027972F5F27962FAF27973FEF41EE54E082
:10183000315040405040E1F700C00000EDCF8FEF45
:1018400095EAAEE081509040A040E1F700C0000072
:10185000E0900805F09009058FE2F7018083F6E13A
:101860008F9EC00111248C0103541C4F8C549C4F3B
:10187000DC0118968C9184FF5DC042E050E060E28C
:1018800071E0C8010E94B411892BB9F4992019F0B4
:101890009A94911021C08EE191E00E94DA06912C79
:1018A000E4EBF3E08CE2DF011D928A95E9F7809189
:1018B00068008D7F80936800D6CEB9E0B91560F0DE
:1018C0008DE0989ED0011124A05EBC4FF8010190DC
:1018D0000D928A95E1F7939400E213E0C12CDD2488
:1018E000D3948FE2B82EF80101900020E9F73197E8
:1018F000AF01401B510BB801C7018D0D911D0E9416
:10190000C111F80101900020E9F73197E01BF10BBC
:10191000ED0DDD24D394DE0EEE0DFF2DF11DB08212
:10192000C394035F1F4FC914F0F21082C7010E94D5
:10193000DA06B6CF809168008D7F8093680030E230
:10194000C32E33E0D32E712C662463944FE2542EC1
:10195000E0900805F0900905A62CB12CC7018A0D6E
:101960009B1D9714F9F0F60101900020E9F73197DB
:10197000AF014C195D09B6010E94C111F601019039
:101980000020E9F73197EC19FD09E60D6624639410
:101990006E0EEE0DFF2DF11D50827394BDE0CB0E47
:1019A000D11CD6CFF80101900020E9F73197AF01A3
:1019B000401B510BB8010E94C111F8010190002099
:1019C000E9F73197E01BF10BEE0EFF1EAE0CBF1CCA
:1019D000F50110821AAE1BCEF7018081882309F42D
:1019E00032CE838584FD2FCE84899589B0E0A0E036
:1019F000DC0199278827428D538D70E060E0842BAD
:101A0000952BA62BB72BF801828F938FA48FB58FC0
:101A1000F701848D958DA68DB78DF801868B978BF8
:101A2000A08FB18F128A138A148A158AEAADE11148
:101A30001DC02796FFAD2797F531C0F02A9A44E0E4
:101A400050E070E060E0CE01C1960E942C118091C0
:101A5000080590910905DC010D900020E9F7AD0122
:101A6000481B590B64E070E00E942C110E949C05F9
:101A700080E00E94300580E20E943005BAADB111CD
:101A8000DFC0E6E18E9EC001112483549C4F0E946A
:101A90009F0580EC0E945E0588E792E00E94500559
:101AA0004091F6035091F7036091F8037091F903A8
:101AB0008A019B011F712227332791E0012B022B02
:101AC000032B09F490E0ADE076956795579547951F
:101AD000AA95D1F7940F933508F0CBC090931F03CC
:101AE000C090FA03D090FB03E090FC03F090FD035C
:101AF00026013701E6E07694679457944794EA9577
:101B0000D1F7C20181709927B701A601F7E0769558
:101B1000679557954795FA95D1F70091E60310918F
:101B2000E7032091E8033091E903400F511F621F42
:101B3000731F00E011E020E0382F88E094E00E945D
:101B40004D02892B09F021CEC092D701D092D80145
:101B5000E092D901F092DA01AA24A394B12C8091E9
:101B60001F03F0E18F9FC0011124A816B90608F0E9
:101B700084C06091E00370E0C5010E945011892B80
:101B800009F045C0A701960166E05695479537953F
:101B900027956A95D1F722962CAF3DAF4EAF5FAF38
:101BA0002297241535054605570509F18091E6036E
:101BB0009091E703A091E803B091E903B701A60172
:101BC00027E076956795579547952A95D1F7480F61
:101BD000591F6A1F7B1F00E011E020E08EAD9FAD12
:101BE00081709927382F88E094E00E944D02CC0C38
:101BF000CC0CEC2DF0E0E85FFB4FC080D180E280A0
:101C0000F38022964CAC5DAC6EAC7FAC2297C501E4
:101C10008F709927892B81F4F50114E0F695E795EB
:101C20001A95E1F7EE0FFF1FEE0FFF1FE952FE4F6F
:101C3000C082D182E282F3823FEFA31AB30A8FCF30
:101C40008091080590910905FC0101900020E9F7B9
:101C50003197E81B2E2F30E0DC01A20FB31F4C910F
:101C60004F3211F0E150F6CF2F5F3F4F820F931F9D
:101C70000ECF82E580931F0333CF1092D6011092CE
:101C8000D5014FEF5DE389E4415050408040E1F7DA
:101C900000C00000BB24BA941092000180E00E94B2
:101CA000AF0289B1807C81F03199FBCF319BFECFAF
:101CB0002A9A83E08093000180E00E94AF029AADEF
:101CC000913009F01ACDC4CC8091D601811101C0A8
:101CD000539ADA9A80916800846080936800529ADF
:101CE00019AE89AD803108F0F0C189AD8111D9C03C
:101CF0001092D40118AE1FAA8FA998AD883E9340C8
:101D000030F48FA998AD019698AF8FABF5CF809145
:101D1000D6018B1509F4C5C08091D501882389F0BF
:101D2000F8941092D50178941EAA1DAA8DA99EA997
:101D30008031974288F78DA99EA901969EAB8DAB05
:101D4000F5CFB090D60124E0B29EF0011124E95203
:101D5000FE4FC080D180E280F38026013701A6E0EB
:101D60007694679457944794AA95D1F7C0925801F6
:101D7000D0925901E0925A01F0925B01C092540155
:101D8000D0925501E0925601F0925701C201817044
:101D90009927B701A601B7E07695679557954795BE
:101DA000BA95D1F70091E6031091E7032091E8037B
:101DB0003091E903400F511F621F731F00E011E0D3
:101DC00020E0382F88E094E00E944D02892B09F032
:101DD000D2C144E551E05FAF4EAFAA24A394609115
:101DE000E0038A2D0E944411911147C0D701C6011A
:101DF000F6E0B695A79597958795FA95D1F726962B
:101E00008CAF9DAFAEAFBFAF269784159505A605E5
:101E1000B70519F18091E6039091E703A091E803DB
:101E2000B091E903B701A601E7E07695679557956C
:101E30004795EA95D1F7480F591F6A1F7B1F00E0AD
:101E400011E020E024968EAD9FAD249781709927F4
:101E5000382F88E094E00E944D02CC0CCC0CEC2D85
:101E6000F0E0E85FFB4FC080D180E280F3802696EF
:101E70004CAC5DAC6EAC7FAC2697AEADBFAD1C96E6
:101E8000CD92DD92ED92FC921F97FD01C086D18626
:101E9000E286F386A3943896FFAFEEAFF0E1AF127F
:101EA0009ECFF9B0F0942F2D2170F22E89ADA9ADFF
:101EB000D090E003C9AC8170E82EE22FF0E0CF01B2
:101EC000B4E0880F991FBA95E1F7A80FB92FB11D9B
:101ED000AA0FBB1FAA0FBB1FAC5ABE4F2D913D913D
:101EE0004D915C912250310941095109AD2DB0E06D
:101EF0000E949A110091EE031091EF032091F003DC
:101F00003091F103060F171F281F391F8B2D90E00A
:101F1000880F991FE80FF91F53E0EE0FFF1F5A9526
:101F2000E1F78C2D86958E0F9F2F911DBD010E948C
:101F30006411AC01990F660B770B400F511F621FA4
:101F4000731F00E011E020E03E2D88E094E00E9445
:101F50004D02892B09F00FC1E2EBEB25F0E0EE0F0B
:101F6000FF1FE858FF4F8591949130E39327EF2DA1
:101F7000E927F0E0EE0FFF1FE858FF4F259134915D
:101F8000982F882782279327E9ADF0E03196E9273B
:101F9000EE0FFF1FE858FF4F25913491982F8827A7
:101FA00082279327E1E0E927F0E0EE0FFF1FE858D2
:101FB000FF4F25913491982F88278227932790935C
:101FC00053018093520145E952EE509351014093E1
:101FD000500180E0A82FB0E0A85FBB4FE091510115
:101FE0009C91E927F0E0EE0FFF1FE858FF4F259185
:101FF0003491909150013927309351012093500131
:1020000091E0980F8F3F09F043C08091D501811175
:102010005CC04E995AC080910001811105C053E007
:10202000509300010E94AF0289AD81112EC08091B2
:10203000D6016AE00E944411182F85EC0E945E05CB
:1020400080E3810F0E9430058091D6016AE00E94F2
:10205000441180E3890F0E9430058FEC0E945E05D9
:1020600080E38F0D0E943005F89480EC8093C200CD
:102070008091C10088608093C10078941AE08EE45A
:102080000E947D011150D9F7209A10E000E00DC0A8
:10209000892FA0CF133109F443C020F51031E1F1AD
:1020A000D0F41C3081F11F3099F1802F0E947D0106
:1020B0001F5F1C3379F789AD811101C02098109101
:1020C000D501111102C04E9B37C089B1807C09F443
:1020D00007CE10E051C0113109F1123131F709ADCD
:1020E0000F5FE3CF163109F138F41431D9F015310F
:1020F000E1F600915201D9CF183329F01B33B9F022
:102100001C3221F2D2CF91E090934F0101EACDCF62
:1021100010924F010EEFC9CF0B2DC7CF0F2DC5CF9A
:1021200001E0C3CF00915301C0CF0EE4BECF1092A7
:102130004F010BEFBACF182FE12FF0E0E85FFB4F14
:1021400080810E947D0181E0810F1F3FA1F7809176
:1021500051010E947D01809150010E947D0116E392
:102160008EE40E947D011150D9F74E99AECF89AD12
:102170008F5F89AFB6CD11E0F8948091C2008F7364
:102180008093C2008091C100877F8093C1007894C2
:10219000809168008B7F809368001092000180E03E
:1021A0000E94AF0220988AB1837F8AB92A9A1123AC
:1021B00009F472CDEACA24E040E050E0BA018AE7AF
:1021C0000E94D801811114C980914A0186FFF5C986
:1021D0008CE080934E010CC920E040E052E060E0CA
:1021E00070E080E50E94D801811105CA01C9FB0198
:1021F00051915523B1F0BF01DC01052E4D914423CF
:1022000069F010D0D9F7CD010190002049F04D912F
:10221000411108D0C9F3FB014111EECF81E090E0FC
:1022200001970895402539F0403229F440294B5751
:10223000465E08F018940895DC01CB01FC01F99981
:10224000FECF06C0F2BDE1BDF89A319600B40D9202
:1022500041505040B8F70895DC01CB0103C02D91E7
:102260000E94371141505040D0F70895262FF99918
:10227000FECF1FBA92BD81BD20BD0FB6F894FA9A69
:10228000F99A0FBE01960895991B79E004C0991F31
:10229000961708F0961B881F7A95C9F780950895C0
:1022A000AA1BBB1B51E107C0AA1FBB1FA617B7077C
:1022B00010F0A61BB70B881F991F5A95A9F7809598
:1022C0009095BC01CD01089597FB072E16F400945C
:1022D00007D077FD09D00E94501107FC05D03EF4CD
:1022E000909581959F4F0895709561957F4F0895C2
:1022F000A1E21A2EAA1BBB1BFD010DC0AA1FBB1F0A
:10230000EE1FFF1FA217B307E407F50720F0A21B7B
:10231000B30BE40BF50B661F771F881F991F1A94E8
:1023200069F760957095809590959B01AC01BD0112
:10233000CF0108950E94A511A59F900DB49F900D07
:10234000A49F800D911D11240895A29FB001B39FF9
:10235000C001A39F700D811D1124911DB29F700DAE
:10236000811D1124911D0895FB01DC0104C08D9194
:102370000190801921F441505040C8F7881B990BF7
:102380000895FB01DC0102C001900D9241505040C4
:10239000D8F70895DC0101C06D9341505040E0F73B
:1023A0000895FB01DC014150504030F08D910190C7
:1023B000801919F40020B9F7881B990B0895F89437
:1023C000FFCF03777DDFDDF7FDDFDD202B2C3B5BCF
:1023D0003D5C5D222A3A3C3E3F7C002E74726400D4
:0623E0002F002E2E00006C
:107E0000112484B714BE81FFF0D085E080938100F7
:107E100082E08093C00088E18093C10086E0809377
:107E2000C20080E18093C4008EE0C9D0259A86E02C
:107E300020E33CEF91E0309385002093840096BBD3
:107E4000B09BFECF1D9AA8958150A9F7CC24DD24C4
:107E500088248394B5E0AB2EA1E19A2EF3E0BF2EE7
:107E6000A2D0813461F49FD0082FAFD0023811F036
:107E7000013811F484E001C083E08DD089C08234E0
:107E800011F484E103C0853419F485E0A6D080C0E4
:107E9000853579F488D0E82EFF2485D0082F10E0AE
:107EA000102F00270E291F29000F111F8ED06801E7
:107EB0006FC0863521F484E090D080E0DECF843638
:107EC00009F040C070D06FD0082F6DD080E0C81688
:107ED00080E7D80618F4F601B7BEE895C0E0D1E017
:107EE00062D089930C17E1F7F0E0CF16F0E7DF06D8
:107EF00018F0F601B7BEE89568D007B600FCFDCFD4
:107F0000A601A0E0B1E02C9130E011968C91119780
:107F100090E0982F8827822B932B1296FA010C0160
:107F200087BEE89511244E5F5F4FF1E0A038BF0790
:107F300051F7F601A7BEE89507B600FCFDCF97BE46
:107F4000E89526C08437B1F42ED02DD0F82E2BD052
:107F50003CD0F601EF2C8F010F5F1F4F84911BD097
:107F6000EA94F801C1F70894C11CD11CFA94CF0C13
:107F7000D11C0EC0853739F428D08EE10CD085E9AC
:107F80000AD08FE07ACF813511F488E018D01DD067
:107F900080E101D065CF982F8091C00085FFFCCF94
:107FA0009093C60008958091C00087FFFCCF809118
:107FB000C00084FD01C0A8958091C6000895E0E648
:107FC000F0E098E1908380830895EDDF803219F02E
:107FD00088E0F5DFFFCF84E1DECF1F93182FE3DFCA
:107FE0001150E9F7F2DF1F91089580E0E8DFEE27F6
:047FF000FF270994CA
:027FFE00040479
:00000001FF
