:020000040000FA
:100000000C9480010C94A8010C94A8010C94A801F4
:100010000C94A8010C942B0E0C94A8010C94A8012C
:100020000C94A8010C94A8010C94A8010C94A801AC
:100030000C94A8010C94A8010C94A8010C94A8019C
:100040000C94C20C0C94A8010C94A8010C94A80167
:100050000C94A8010C94A8010C94A8010C94A8017C
:100060000C940C0D0C94A80110181C1E1C181000E8
:1000700000071911111F000043594C3A203030205D
:1000800020484541443A2030003E002D2D204E6F3F
:100090002066696C6573202D2D005A582046444413
:1000A00020456D756C2020322E30002D2D4E6F2096
:1000B000436172642D2D00000021104220633084C2
:1000C00040A550C660E770088129914AA16BB18CA8
:1000D000C1ADD1CEE1EFF13112100273325222B52F
:1000E000529442F772D662399318837BB35AA3BDF8
:1000F000D39CC3FFF3DEE36224433420040114E6FF
:1001000064C774A44485546AA54BB528850995EE47
:10011000E5CFF5ACC58DD55336722611163006D70E
:1001200076F6669556B4465BB77AA719973887DF97
:10013000F7FEE79DD7BCC7C448E5588668A7784056
:1001400008611802282338CCC9EDD98EE9AFF948E7
:100150008969990AA92BB9F55AD44AB77A966A716E
:100160001A500A333A122AFDDBDCCBBFFB9EEB7937
:100170009B588B3BBB1AABA66C877CE44CC55C22BE
:100180002C033C600C411CAEED8FFDECCDCDDD2A87
:10019000AD0BBD688D499D977EB66ED55EF44E134E
:1001A0003E322E511E700E9FFFBEEFDDDFFCCF1BD7
:1001B000BF3AAF599F788F8891A981CAB1EBA10C42
:1001C000D12DC14EF16FE18010A100C230E32004B7
:1001D00050254046706760B9839893FBA3DAB33D1E
:1001E000C31CD37FE35EF3B1029012F322D2323507
:1001F00042145277625672EAB5CBA5A89589856EEE
:10020000F54FE52CD50DC5E234C324A01481046656
:1002100074476424540544DBA7FAB79987B8975FFD
:10022000E77EF71DC73CD7D326F2369106B01657A6
:10023000667676154634564CD96DC90EF92FE9C845
:1002400099E9898AB9ABA94458654806782768C0F6
:1002500018E1088238A3287DCB5CDB3FEB1EFBF95D
:100260008BD89BBBAB9ABB754A545A376A167AF146
:100270000AD01AB32A923A2EFD0FED6CDD4DCDAAAD
:10028000BD8BADE89DC98D267C076C645C454CA296
:100290003C832CE01CC10C1FEF3EFF5DCF7CDF9B3D
:1002A000AFBABFD98FF89F176E367E554E745E93E6
:1002B0002EB23ED10EF01E00000000250028002BBB
:1002C00000040404040404040402020202020203FF
:1002D0000303030303010204081020408001020409
:1002E000081020010204081020000000080002018C
:1002F00000000304070000000000000000005C0E86
:1003000011241FBECFEFD8E0DEBFCDBF26E0AAE4A8
:10031000B1E001C01D92A73BB207E1F711E0A0E0F8
:10032000B1E0ECEFF8E302C005900D92AA34B107FA
:10033000D9F711E0C0E8D1E004C02197FE010E9486
:10034000561ACF37D107C9F70E94700E0C947C1C47
:100350000C940000CF93DF9380914A0690914B0656
:10036000A0914C06B0914D06E1E3F6E0892B8A2B73
:100370008B2B09F454C0E0914E06F0914F06A6A1D4
:10038000B7A19D01BD01685F7F4FE1E3F6E0E901A0
:1003900089919E01803259F0853009F485EEAF01D4
:1003A0004F5F5F4F8083FA012617370781F7189652
:1003B0008C911897803289F08EE28083EB01CF0117
:1003C000049631964991403241F09F012F5F3F4F93
:1003D00040832817390739F5FC011B968C911B9730
:1003E000809330065C964D915D916D917C915F9705
:1003F000409328065093290660932A0670932B0693
:1004000058968D919C91599790932D0680932C0628
:1004100056968D919C9190932F0680932E06108274
:10042000DF91CF910895F901CDCF90E0FC01E75124
:10043000FD4F2491FC01EB52FD4F3491FC01EF5331
:10044000FD4FE491EE23C9F0222339F0233001F16E
:10045000A8F4213019F1223029F1F0E0EE0FFF1F4E
:10046000E954FD4FA591B4918FB7F894EC916111C7
:1004700026C030953E233C938FBF08952730A9F0C6
:100480002830C9F0243049F7809180008F7D03C067
:10049000809180008F7780938000DFCF84B58F7745
:1004A00084BDDBCF84B58F7DFBCF8091B0008F778B
:1004B0008093B000D2CF8091B0008F7DF9CF3E2BDA
:1004C000DACF3FB7F8948091240690912506A09149
:1004D0002606B091270626B5A89B05C02F3F19F028
:1004E0000196A11DB11D3FBFBA2FA92F982F8827B4
:1004F000BC01CD01620F711D811D911D42E0660F8F
:10050000771F881F991F4A95D1F708952091FA0502
:10051000260F3327331F21323105ECF42091760664
:10052000FC0190E080E0243069F082E00895A09121
:10053000FA052191AC0148525A4FA40FB52FB11DB5
:100540002C930196861798F38091FA05680F6093B3
:10055000FA0580E0089581E008951092760681E022
:10056000809375061092500661E082E10E941502A8
:1005700061E083E10E941502E9EBF0E080818E7F6B
:10058000808380818D7F808388E48093B80085E4B8
:100590008093BC000895CF93DF9391E09093D705AB
:1005A0008823B9F0C091B800D091BA008091BC0006
:1005B0008A7B8093BC0060E082E10E94150260E0CB
:1005C00083E10E9415020E94AD02D093BA00C0934D
:1005D000B800DF91CF910895CF92DF92EF92FF9212
:1005E0000F931F93CF93DF93D0919F0681E0D13279
:1005F00008F09CC0C0919E060E9461026B017C01C4
:100600008091760681116CC082E08093760681E04D
:10061000809375068FEF8093740610927306D093C3
:100620007206AEE7B6E0E2E5F6E080E0D8138DC0F2
:100630001092510680915106CC0FC82BC0935106E1
:1006400080915006813009F084C0109250060E94BB
:1006500061026B017C01809151068093BB00809107
:10066000780690917906A0917A06B0917B06892B45
:100670008A2B8B2BA1F00E946102009178061091C9
:10068000790620917A0630917B066C197D098E09D6
:100690009F09061717072807390708F442C08091F9
:1006A000BC0083FDD8CF85EC8093BC000E94610222
:1006B0006B017C0180917606823009F44CC08091F8
:1006C00074068F3F09F469C080917406803209F482
:1006D00066C080917406803309F463C084E026C04C
:1006E0008091780690917906A0917A06B0917B0668
:1006F000892B8A2B8B2B09F483CF0E9461020091F6
:1007000078061091790620917A0630917B066C1953
:100710007D098E099F09061717072807390708F072
:100720006FCF809177060E94CB0285E010927D0604
:1007300010929F0610927C06DF91CF911F910F912E
:10074000FF90EF90DF90CF9008959D9191938F5FF0
:100750006DCF85EEA9CF8091780690917906A09112
:100760007A06B0917B06892B8A2B8B2B09F4A2CFBA
:100770000E946102009178061091790620917A0614
:1007800030917B066C197D098E099F0906171707A2
:100790002807390708F08ECFC4CF80E0C7CF82E0AA
:1007A000C5CF83E0C3CF089508950895E091D6059D
:1007B0008091D505E81730F4F0E0EB54FA4F8081D2
:1007C00090E008958FEF9FEF08959091D605809166
:1007D000D5052FEF3FEF981748F4E92FF0E0EB54E1
:1007E000FA4F208130E09F5F9093D605C9010895AC
:1007F0008091D5059091D605891B990B0895CF92CC
:10080000DF92EF92FF920F931F93CF93DF937C01C0
:10081000CB018A0120917C06222389F0EB016B0138
:10082000C40ED51ECC15DD0569F06991D701ED9197
:10083000FC910190F081E02DC7010995F3CF642F61
:100840000E948602C801DF91CF911F910F91FF9006
:10085000EF90DF90CF900895CF93DF931F92CDB7A5
:10086000DEB7698320917C062223F9F020919F0650
:10087000203258F021E030E0FC013383228390E005
:1008800080E00F90DF91CF91089580917D06E82F51
:10089000F0E0E258F94F998190838F5F80937D0655
:1008A00080939F0681E090E0ECCF61E0CE0101965D
:1008B0000E948602F7CFCF93C82F81E080937C06F9
:1008C0008CE380939E0610927D0610929F0660E84E
:1008D00080EA96E00E942C046C2F80EA96E00E9449
:1008E0002C04CF910C94EC020F931F93CF93C62F3F
:1008F00080550E945B040CEA16E0F8018481C89FD1
:10090000802D11248F700E945B04F8018481C89FA0
:10091000C001112424E0959587952A95E1F78F7001
:10092000805FCF911F910F910C945B04EF92FF9227
:100930000F931F93CF93DF932091AD063091AE06B6
:10094000232B41F480E0DF91CF911F910F91FF9015
:10095000EF90089590EE980F903608F080E2D0E086
:10096000282F2052330B8901EE24E3948CE3F82ED8
:100970008091B006D81740F5809F9001819F300D7F
:100980001124E091AF062E0F311D2D0F311DE09186
:10099000AD06F091AE06E20FF31FC491E0927C0623
:1009A000F0929E0610927D0610929F0660E480EA07
:1009B00096E00E942C046C2F80EA96E00E942C04A2
:1009C0000E94EC02DF5FD4CFBECF4F925F926F9256
:1009D0007F928F929F92AF92BF92CF92DF92EF92CF
:1009E000FF920F931F93CF93DF93CDB7DEB72A9774
:1009F0000FB6F894DEBF0FBECDBF4B015C011A826B
:100A00001982FE01339688E0DF011D928A95E9F78D
:100A1000B7FE37C08DE20E949604B094A0949094E3
:100A20008094811C911CA11CB11C11E000E0FE010E
:100A300031967F018AE0482E512C612C712C670180
:100A4000C00ED11CC501B401A30192010E94371A46
:100A5000D6016C9349015A010F5F81149104A104DE
:100A6000B10469F7B02EB10E0E0D1F2D111DE01649
:100A7000F10691F0F80182918F01805D0E94960449
:100A8000F6CF10E081149104A104B10479F680E35B
:100A90000E949604BB24B3948B2D2A960FB6F8942B
:100AA000DEBF0FBECDBFDF91CF911F910F91FF90A1
:100AB000EF90DF90CF90BF90AF909F908F907F90FE
:100AC0006F905F904F90089590E080E00895E1EC82
:100AD000F0E08081877F80830895E82FE2959E2F44
:100AE0009695969593702091B40520FF02C087FFDC
:100AF00094602091C00025FFFCCF29B1207C11F02B
:100B00000C946705E770F0E0E95EFE4F4081E92F45
:100B1000F0E0E95EFE4F90819093C6008093B405AB
:100B20009091B3052FE7911108C0E82FE695E6955F
:100B3000E770F0E0E95EFE4F20819091C00095FFE4
:100B4000FCCF99B1907CE1F6E82FE770F0E0E95E28
:100B5000FE4F30814093C600E091B2058E27E82F0A
:100B6000F0E0EE0FFF1FE954FF4F85919491409103
:100B7000B10594279093B2058093B1058091C00090
:100B800085FFFCCF89B1807C09F0BACF2093C600E5
:100B90008091C00085FFFCCF3093C60008958EBDC4
:100BA0000DB407FEFDCF08958FEF8EBD0DB407FE87
:100BB000FDCF8EB50895BF92CF92DF92EF92FF9254
:100BC0000F931F93CF93DF93C82FE42ED52EC62EFD
:100BD000B72EF22E2A9A87FF0BC020E040E050E0AB
:100BE000BA0187E70E94DB05D82F8230A0F4CF77C7
:100BF0002A9A0E94D4052A980E94D4050E94D405FE
:100C000005E610E00E94D405D82F8F3F51F1015026
:100C10001109C1F7DFEF8D2FDF91CF911F910F9158
:100C2000FF90EF90DF90CF90BF900895C83409F403
:100C3000D7E88D2F0E94CF05C8EC0E94D405D82F8D
:100C400087FD0CC00AE511E0C0E0CF1521F30E943A
:100C5000D405F80181938F01CF5FF7CFC15069F7B9
:100C6000F1CF8C2F0E94CF058B2D0E94CF058C2DAC
:100C70000E94CF058D2D0E94CF058E2D0E94CF059D
:100C8000C034A1F6D5E9D5CF20E040E050E0BA016C
:100C90008AE40E94DB0560E0811110C0EAE4F1E023
:100CA0009FEF9EBD0DB407FEFDCF8EB5819381E011
:100CB000EA35F807B1F72A9A6091530170E090E0A5
:100CC00080E00895CF92DF92EF92FF920F931F93EF
:100CD000CF93DF93EC01690180915E0183FD07C032
:100CE00099E0440F551F661F771F9A95D1F720E0B2
:100CF00081E50E94DB05882359F081E090E0DF91D7
:100D0000CF911F910F91FF90EF90DF90CF900895BA
:100D100080E4E82E8CE9F82E0E94D4058F3F29F458
:100D200031E0E31AF108C1F7E8CF8E3F31F790E0E8
:100D300080E02FEF2EBD0DB407FEFDCF3EB58C1524
:100D40009D0538F00115110521F038830150110976
:100D5000219601968230980769F72A9A8FEF8EBD07
:100D60000DB407FEFDCF8EB581E090E0012B39F682
:100D700080E0C5CF982F807194FD80E195FD806261
:100D800096FD806497FD8068089594EA9093BC0076
:100D90009091BC0097FFFCCF9091B900987F98305C
:100DA00011F0903161F49EE49093BB0094E890932D
:100DB000BC009091BC0097FFFCCF9091B90090913E
:100DC0000001937021E030E001C0220F9A95EAF70C
:100DD000822B8093BB0084E88093BC008091BC0090
:100DE00087FFFCCF84E98093BC008091BC0084FD28
:100DF000FCCF0895CF92DF92EF92FF920F931F9353
:100E0000CF93DF93EC016A017B0102E010E02EEF4B
:100E100031E00E946206892BF1F488819981853541
:100E20009A4AD9F422E530E0B701A601CE010E942A
:100E30006206892BA1F481E028813981263431446E
:100E400009F480E0DF91CF911F910F91FF90EF9017
:100E5000DF90CF90089583E0F5CF82E0F3CF81E07B
:100E6000F1CF0F931F93E0914E06F0914F069B0137
:100E7000AC01225031094109510982819381A48139
:100E8000B5810297A109B109281739074A075B07FD
:100E900078F4A081B0E00E9490190685178520891A
:100EA0003189600F711F821F931F1F910F91089549
:100EB00060E070E0CB01F9CF0F931F93CF93DF93E6
:100EC000EC01E0914E06F0914F06198218826C8178
:100ED0007D818E819F81613071058105910569F168
:100EE000028113812481358160177107820793077E
:100EF00020F5611571058105910521F462857385E1
:100F000084859585688779878A879B8761157105B0
:100F10008105910569F00E9431076C877D878E8776
:100F20009F8790E080E0DF91CF911F910F9108950E
:100F30006285738584859585F0CF81E090E0F3CF5D
:100F4000CF92DF92EF92FF920F931F93CF93DF9395
:100F500000D000D0CDB7DEB76230710581059105B4
:100F600088F461E070E080E090E00F900F900F90C7
:100F70000F90DF91CF911F910F91FF90EF90DF9035
:100F8000CF900895E0914E06F0914F06C280D38035
:100F9000E480F5806C157D058E059F0510F7AB018B
:100FA000BC01242F2F7784E0289F9001112487E033
:100FB00076956795579547958A95D1F7C680D780DE
:100FC000E084F1844C0D5D1D6E1D7F1D04E010E07A
:100FD000CE0101960E946206892B19F669817A81F9
:100FE0008B819C819F70C1CF8F929F92AF92BF9255
:100FF000CF92DF92EF92FF920F931F93CF93DF93E5
:10100000E0914E06F0914F0688E090E0309721F194
:10101000C0913E06D0913F06209709F47CC0809194
:101020004A0690914B06A0914C06B0914D06892B33
:101030008A2B8B2B09F46FC0809042069090430658
:10104000A0904406B090450681E088169104A10462
:10105000B10479F481E090E0DF91CF911F910F917D
:10106000FF90EF90DF90CF90BF90AF909F908F90C8
:10107000089582819381A481B58188169906AA0674
:10108000BB0640F781149104A104B10421F48284C9
:101090009384A484B5842197CE0124E09695879506
:1010A0002A95E1F7608170E00E94ED196B017C01E7
:1010B00010E000E00C151D0578F4C501B4010E9494
:1010C000A0074B015C0182E088169104A104B104E1
:1010D00008F20F5F1F4FEECF8092460690924706B0
:1010E000A0924806B0924906C501B4010E9431079A
:1010F0006E0D7F1D811D911D60934A0670934B06F6
:1011000080934C0690934D06D0933F06C0933E06C5
:1011100090E080E0A1CF83E090E09ECF2F923F92BD
:101120004F925F926F927F928F929F92AF92BF92F7
:10113000CF92DF92EF92FF920F931F93CF93DF93A3
:10114000EC01E880F9808FEFE81AF80A19F483E0DF
:1011500090E043C04C845D846E847F8441145104CC
:1011600061047104A1F300914E0610914F06F8013D
:1011700026A037A088849984AA84BB846701FFE0F5
:10118000CF22DD24C114D10409F04FC0D301C20124
:101190000196A11DB11D8C879D87AE87BF878114E5
:1011A0009104A104B10499F2F80180818150990B56
:1011B000970144E0369527954A95E1F782239323DA
:1011C000892B99F5C501B4010E94A0076230710511
:1011D00081059105A8F481E090E0DF91CF911F9106
:1011E0000F91FF90EF90DF90CF90BF90AF909F90C6
:1011F0008F907F906F905F904F903F902F900895C9
:10120000F8010281138124813581601771078207FB
:10121000930708F09CCF688779878A879B870E940D
:1012200031076C877D878E879F87960185E0220F27
:10123000331F8A95E1F74C855D856E857F8500E2D9
:1012400010E0C1010E946206892B29F6F10180811C
:10125000811109C04C865D866E867F868886998658
:10126000AA86BB8674CFF982E88290E080E0B5CF91
:10127000FF920F931F93CF93DF93F82EE0914E06CA
:10128000F0914F06C6A1D7A183E090E040914A06B5
:1012900050914B0660914C0670914D0641155105D9
:1012A0006105710521F120913E0630913F062F70B6
:1012B000332785E0220F331F8A95E1F700E210E023
:1012C000CE010E946206892BC1F488818823C1F077
:1012D000853EC9F08B8583FD16C090E080E007C095
:1012E00090E080E0D3CF0E94F4070097C9F3DF912C
:1012F000CF911F910F91FF90089581E090E0F7CF7B
:1013000083E090E0F4CF81E0F81669F38EE396E095
:101310000E948E08EACFCF92DF92EF92FF920F9356
:101320001F93CF93DF93CDB7DEB7CDB6DEB6FC010A
:101330000481158198012F5F3F4F4DB75EB7421B67
:10134000530B0FB6F8945EBF0FBE4DBFEDB7FEB79F
:1013500031967F01232B21F00115110561F41082D4
:1013600010E0F701E10FF11D8081882379F00E94E0
:1013700096041F5FF6CFFC0160817181A801C7014F
:101380000E946D1CF701E00FF11FE9CF0FB6F89432
:10139000DEBE0FBECDBEDF91CF911F910F91FF90AA
:1013A000EF90DF90CF90089585ED8093BC00809101
:1013B000780690917906A0917A06B0917B060796FF
:1013C000A11DB11D23E0B695A795979587952A9500
:1013D000D1F72091BC0024FD03C010927606089539
:1013E000409178065091790660917A0670917B065B
:1013F000452B462B472B69F30097A105B10541F01A
:101400002AE22A95F1F700C00197A109B109E1CFBD
:10141000809177060C94CB020F931F93CF93DF93A9
:10142000C0915F01D09160012197CD3F8FEFD80728
:1014300021F080E00E94CF05F7CF0E94D4058F7184
:10144000853061F0D1E0C0E02A9A0E94D4058D2F4A
:101450009C2FDF91CF911F910F91089508E813E120
:101460000E94D4058F3F61F00115110559F38FE8F3
:1014700091E00197F1F700C0000001501109F0CF91
:10148000D1E0C0E0012B01F3D0E0DECFCF93C82F35
:1014900084600E94C5068AE08A95F1F700C08C2F0F
:1014A0008B7FCF910C94C506CF93C82F0E94BA06AC
:1014B00081600E94460A85EC8A95F1F700008C2F26
:1014C0008295807F0E94BA06C82FC1608C2F0E942F
:1014D000460A8C2F0E94C5068FE39FE10197F1F722
:1014E00000C00000CF910895CF93DF93C82F0E94D2
:1014F000BA06D82FDE7F8D2F0E94460A8D2F0E94BC
:10150000C50685EC8A95F1F700008C2F8295807FC7
:101510000E94BA06D82FDE7F8D2F0E94460A8D2F9B
:101520000E94C506CC7F39F095EC9A95F1F7000042
:10153000DF91CF9108958FE39FE10197F1F700C00C
:10154000F6CF613049F028F0623041F0633041F06D
:10155000089580580C94740A8054FCCF8C56FACFAE
:101560008C52F8CF0F931F93CF93DF938A010E9481
:10157000A10AE801FE0184912196882319F00E94B6
:10158000540AF8CFDF91CF911F910F91089581E018
:101590000C94740A0F931F93CF938C01C0E08C2F8F
:1015A00090E0F80101900020E9F73197E01BF10B82
:1015B0008E179F0740F4800F911FFC0180810E94CD
:1015C000540ACF5FECCFCF911F910F910895CF9325
:1015D000DF93682F80E00E94A10A80E00E94540AF5
:1015E000C0E0D6E180912E03C817E0F4DC9FF00143
:1015F0001124E15DFC4F808584FF07C06C2F81E0E2
:101600000E94A10A81E00E94540A6C2F82E00E948D
:10161000A10ACD9FC0011124885C9C4F0E94CA0A78
:10162000CF5FE0CFDF91CF9108958F929F92AF92DD
:10163000BF92CF92DF92EF92FF920F931F93CF93BF
:10164000DF936C017B01DB018C916F5F7F4F8032F8
:10165000C9F38F3209F47B01F601148215821682D8
:101660001782D7018C91803208F08DC0C601DF91BE
:10167000CF911F910F91FF90EF90DF90CF90BF908F
:10168000AF909F908F900C945C07C1E0D0E0CE01AA
:10169000DF91CF911F910F91FF90EF90DF90CF904E
:1016A000BF90AF909F908F900895C3E0D0E0EFCFB0
:1016B000222309F494C0E30EF11C81E08B87C6015C
:1016C0000E945C07EC01892B11F780904E069090E8
:1016D0004F06D4019696AD90BC90F60120813181E1
:1016E0002F70332745E0220F331F4A95E1F74485D9
:1016F00055856685778500E210E0C5010E94620687
:10170000892B19F6D5018C91882379F21B968C913F
:1017100083FD0BC0F601028113814BE050E0B8015C
:10172000C5010E943E1C892B71F0C6010E948E08E3
:10173000009799F2EC01ABCF222309F450C0E30EDD
:10174000F11C80E0BBCFD8011B968C9181119FCFFB
:10175000D4019696ED91FC91838584FFA6CF848970
:101760009589B0E0A0E0DC0199278827428D538D50
:1017700070E060E0842B952BA62BB72BF6018483B9
:101780009583A683B783F601C281D3814BE050E0F5
:1017900060E270E0CE010E94661C20E0E0E098E08C
:1017A00031E03E0FEE0DFF2DF11D8081803208F4F7
:1017B0007FCF8F3209F4C0CF8E32A1F0291778F491
:1017C0008F3768F4682F70E0E1E3F1E04191442342
:1017D00069F0042E000C550B64177507B9F7C5E0C6
:1017E000D0E055CF9830D9F78BE00CC04FE9480FC7
:1017F0004A3108F48052FE01E20FF11D8083892FE7
:1018000091E0920F292FE32F982FCACFEF92FF92EA
:101810000F931F93CF93DF93CDB7DEB72C970FB6FF
:10182000F894DEBF0FBECDBF182FCE0101967C010C
:10183000112321F140E150E06EE173E08EE396E088
:101840000E943E1C892B71F48EEF2C960FB6F894F3
:10185000DEBF0FBECDBFDF91CF911F910F91FF90E3
:10186000EF9008950E94F407892B71F780914E063E
:1018700090914F06892B49F48FEFE7CF8EE396E0E6
:101880000E948E08882391F3DFCFF0924106E09208
:101890004006812F0E9438098330910511F0892B71
:1018A00059F70E94AA0100913106002309F261E470
:1018B00071E081E396E00E944319892B21F4809125
:1018C000300684FFB5CF0E3229F4809132068E3275
:1018D00009F0AECF80E0B9CFDF92EF92FF920F9385
:1018E0001F93CF93DF93C82FD62FD42EE82EF12C41
:1018F00086E1C89F80011124015D1C4F8D2F0E943D
:10190000060C81113DC046E150E068E276E0C80176
:101910000E943E1C892B91F3C11124C0D13059F48F
:1019200081E0D81208C042E450E06FE273E085E441
:1019300093E00E94541C86E18E9DD0018F9DB00DD6
:101940001124A15DBC4FE8E2F6E001900D928A956A
:10195000E1F780E0DF91CF911F910F91FF90EF9021
:10196000DF900895C33039F7D111E5CF81E0D81267
:10197000E2CF42E450E065E473E08FE293E0D9CF38
:101980008DEFE8CF1F920F920FB60F9211242F9375
:101990003F938F939F93AF93BF9380912006909135
:1019A0002106A0912206B091230630911F0623E064
:1019B000230F2D3758F50196A11DB11D20931F0649
:1019C0008093200690932106A0932206B0932306CD
:1019D0008091240690912506A0912606B0912706B5
:1019E0000196A11DB11D8093240690932506A09316
:1019F0002606B0932706BF91AF919F918F913F919B
:101A00002F910F900FBE0F901F90189526E8230F6F
:101A10000296A11DB11DD2CF1F920F920FB60F9249
:101A200011242F933F934F935F936F937F938F93E3
:101A30009F93AF93BF93EF93FF938091B900887FFB
:101A4000803609F44AC0F0F5883209F4A7C018F5C9
:101A5000803109F49BC0B8F4882309F4F9C08830B8
:101A600009F494C0FF91EF91BF91AF919F918F9135
:101A70007F916F915F914F913F912F910F900FBE8A
:101A80000F901F901895883109F488C0803251F763
:101A90008093740614C0803409F49DC040F48033F0
:101AA000B9F38833F9F68093740685ECB0C08035BD
:101AB00009F485C0883509F496C0883499F60E94E7
:101AC000D409D0CF883909F48CC038F5883729F08B
:101AD00050F4883611F0803729F683E0809376063B
:101AE00010921E0657C0883809F47BC0803919F05F
:101AF000803809F0B7CF80911E06803208F071C09F
:101B0000E0911E0681E08E0F80931E068091BB003F
:101B1000F0E0E250FA4F80833DC0803B39F0E0F4C2
:101B2000803A09F479C0883A09F09CCF84E0809328
:101B300076061092FB051092FA05E091F805F091F7
:101B4000F90509958091FA0581110FC081E0809314
:101B5000FA051092D80509C0803C09F4A6CF883C4C
:101B600009F4A3CF883B09F07DCFE091FB0581E02C
:101B70008E0F8093FB05F0E0E852FA4F808180934E
:101B8000BB009091FB058091FA0529C08091510618
:101B90008093BB0085EC8093BC0064CF909173066A
:101BA00080917206981758F5E091730681E08E0FC8
:101BB00080937306F0E0EE5AF94F8081E9CFE0910F
:101BC000730681E08E0F809373068091BB00F0E076
:101BD000EE5AF94F808390917306809172069817A0
:101BE000C8F285E8D8CFE091730681E08E0F80932C
:101BF00073068091BB00F0E0EE5AF94F808380912C
:101C0000750681115CCF81E08093500684EA809351
:101C1000BC001092760626CF85EC8093BC00109213
:101C2000760680911E06803230F4E0911E06F0E0C8
:101C3000E250FA4F108260911E0670E0E091FC05C0
:101C4000F091FD058EEF95E0099510921E060ACFE2
:101C50001092740634CF1F920F920FB60F92112478
:101C60002F938F939F934F9913C04C9911C08091DC
:101C7000A2014D9B15C0882319F081508093A201C9
:101C80008091A201811101C0539A81E08093A1014A
:101C90009F918F912F910F900FBE0F901F901895CD
:101CA00091E0980F9093A2012091EB02921302C051
:101CB0008093A2015398E9CFE0EAF6E01382128202
:101CC00088EE93E0A0E0B0E084839583A683B78399
:101CD00083E291E09183808382E08093AF06089550
:101CE000CF93DF93CDB7DEB7C554D1090FB6F894C3
:101CF000DEBF0FBECDBF80E880BF10928000109283
:101D0000820087E090E09093C5008093C400109219
:101D1000C00080EC8093C2001092C10080916D00E1
:101D2000806180936D00289A8BB1816F8BB988B1E7
:101D30008F6088B9219820988AB1837F8AB984B14D
:101D40008C6284B980E58CBD8DB581608DBD1092AB
:101D5000D6051092D50510927D0610929F060E941E
:101D6000AD0283ED93E09093F9058093F80584ED3F
:101D700093E09093FD058093FC05789488B180638F
:101D800088B987B18F7C87B91092B90088E48093B5
:101D9000B80080E00E94C5062FEF33EF41E02150EC
:101DA00030404040E1F700C0000080E30E94C506DB
:101DB00080E30E94460A8FE19EE40197F1F700C09C
:101DC000000080E30E94460AAFE8B1E01197F1F706
:101DD00000C0000080E30E94460AEFE8F1E031977E
:101DE000F1F700C0000080E20E94C50680E20E9478
:101DF000460A80E20E94C5068FE891E00197F1F75C
:101E000000C0000088E20E94740A8CE00E94740AFC
:101E100086E00E94740A0E94C70A80E40E94740A45
:101E200008E610E0F0E7EF2EF0E0FF2EF8018491D5
:101E30000E94540A0F5F1F4FE016F106B9F788E4BD
:101E40000E94740AF12CE12CF801EE0DFF1D849123
:101E50000E94540AFFEFEF1AFF0A28E0E216F1048D
:101E600099F78FEC93E09093B0058093AF058FEADC
:101E700093E09093AE038093AD0326961FAE269712
:101E8000809168008D7F809368000E94C70A4BEAAA
:101E900050E061E085E00E94B20AAE014F5F5F4F03
:101EA0001A01EFE2F3E088E5DF011D928A95E9F778
:101EB000E2E0FE2E10924F0610924E0610925E0146
:101EC0002A9A1AE00E94D4051150E1F720E040E080
:101ED00050E0BA0180E40E94DB05182F813021F523
:101EE00024E04AEA51E060E070E088E40E94DB050B
:101EF000813009F007C180915C018130A9F48091A3
:101F00005D018A3A89F408EA11E620E040E050E0F9
:101F100060E070E489EE0E94DB05882311F40C94E4
:101F200014190150110989F72A9A0E94D405809149
:101F30005E01882309F4BECF40E050E0BA01C10140
:101F40000E94FA06412C512C32018130D9F400E173
:101F500010E02EEB31E040E050E0BA01C1010E94F8
:101F60006206892B09F0A6CF8D818B50823008F054
:101F7000A1CF49845A846B847C84B301A201C1013E
:101F80000E94FA06811196CF04E210E02DE030E0C5
:101F9000B301A201C1010E946206892B09F08ACF18
:101FA000E981E0938703AC81288D398D4A8D5B8D63
:101FB000B0E00E94901969AF7AAF8BAF9CAFCA8036
:101FC000DB80F12CE12C6C897D898E899F896C19CD
:101FD0007D098E099F0929AD3AAD4BAD5CAD621B01
:101FE000730B840B950B2E2F30E050E040E00E94E5
:101FF000151A2E5F3F4F4F4F5F4F20938903309349
:102000008A0340938B0350938C0388A199A1AAA1C2
:10201000BBA18093910390939203A0939303B093F9
:102020009403C40CD51CE61CF71CC0928D03D092FF
:102030008E03E0928F03F092900389AD9AADABAD21
:10204000BCADC80ED91EEA1EFB1EC0929503D092ED
:102050009603E0929703F092980387E893E09093B9
:102060004F0680934E060E94C70A4AE950E061E09D
:1020700082E00E94B20A9FEFA7EAB1E69150A04029
:10208000B040E1F700C000000E94440669AB7AABA3
:102090008BAB9CAB2A9A40EE50E064E070E08091FC
:1020A000AF059091B0050E946819E091AF05F091DD
:1020B000B0058081882309F478C044E050E070E0E6
:1020C00060E0C1010E94681949815A816B817C815D
:1020D00089A99AA9ABA9BCA9481759076A077B0720
:1020E000B1F144E050E070E060E0CE01C1960E94A2
:1020F000781960E084E090E00E948219D2CE84E0FA
:102100000C94251920E040E050E0BA0189EE0E94CD
:10211000DB058230B8F4F0925E0179EEE72E08EA32
:1021200011E620E040E050E0BA018E2D0E94DB0570
:10213000882311F40C9429190150110991F7109278
:102140005E01F2CE10935E0161E4E62EE8CF812CB1
:10215000E1E02296EFAF229700914E0610914F06D4
:1021600001151105A9F06091AF057091B005D80176
:102170009696ED90FC90CE0185969C838B83C10151
:102180000E94150B009709F42AC2882309F451C252
:102190002296BFAD2297B13009F072CE2A9A60E044
:1021A00084E090E00E9482196BCE8FE280831182DE
:1021B000812C0E94C70A6091AF057091B005E09034
:1021C0004E06F0904F0610923F0610923E06E11424
:1021D000F10481F13092410620924006D701969693
:1021E0000D911C918EE396E00E94150B892B11F541
:1021F000F80180818823D1F0838584FF1BC0848906
:102200009589B0E0A0E0DC0199278827428D538DA5
:1022100070E060E0842B952BA62BB72B80934206B1
:1022200090934306A0934406B09345068EE396E050
:102230000E945C0710922E03EFE2F3E088E5DF01D5
:102240001D928A95E9F78EE396E00E948E08892B0D
:10225000E1F5E114F104C9F1309241062092400603
:1022600080E00E9438098330910511F0892B69F5CF
:102270000E94AA0110913106112329F361E471E053
:1022800081E396E00E944319892B21F48091300666
:1022900084FFD9CF1E3221F4809132068E3299F616
:1022A00086E1E8E2F6E0AFE2B3E001900D928A95B4
:1022B000E1F780E1EEE3F6E0AEE1B3E001900D92EC
:1022C0008A95E1F781E080932E0310E0992493949E
:1022D000910E40E060E0892D0E946C0C90912E03DD
:1022E00081111EC09F5F90932E03192D133071F73B
:1022F00080912E03811129C0811014C00E94C70A49
:102300004BE850E061E083E00E94B20ABFEFEBE7E8
:10231000F2E9B150E040F040E1F700C00000C1CD6B
:10232000912EE6CFEFE2F3E088E5DF011D928A957A
:10233000E9F781E080932E038EE280933803809347
:10234000390380E180933703912C992009F418C355
:102350009A9481E00E94060CF8CF41E060E0892D5C
:102360000E946C0C811106C00E94C70A892D0E9430
:10237000E70A3FC38F3F09F03CC382CD339905C3C1
:1023800080912E038230B0F0992019F11FEF190DC2
:10239000612F80E00E94A10A80E00E94540A81E03F
:1023A0000E94060C692D80E00E94A10A80E20E9432
:1023B000540A912E83E03399E8C22FEF31EE44E0C6
:1023C000215030404040E1F700C00000815099F7B3
:1023D000D7CF41E061E080E00E946C0C811106C023
:1023E0000E94C70A80E00E94E70AE4CF8F3F11F7FE
:1023F00047CD25961FAE2597319911C025965FAD23
:1024000025975F5F25965FAF25978FEF91EEA4E04C
:1024100081509040A040E1F700C00000EDCFBFEF39
:10242000E5EAFEE0B150E040F040E1F700C0000016
:10243000A92CB12C26E1929EC00111248C01085CCC
:102440001C4FAC01415D5C4F7A01DA0118968C910A
:1024500084FF61C042E050E066E471E0C8010E9480
:102460003E1C892B71F4882019F08A9481101DC0BC
:10247000E091AF05F091B0058FE280831182812C4D
:1024800044C0F70181858E3289F3F4E0F81568F0D5
:102490002AE0829ED0011124A451BD4F8DE0F801A5
:1024A00001900D928A95E1F783940CEE12E0D12C05
:1024B000E0E08FE2B82EE090AF05F090B005CC24BC
:1024C000C394CE0EEE0DFF2DF11DB082F8010190E8
:1024D0000020E9F73197AF01401B510BB801C7014C
:1024E0008C0D911D0E944B1CF80101900020E9F712
:1024F0003197E01BF10BEC0DD394065F1F4FD814FE
:10250000D0F2EE0DFF2DF11D1082809168008D7FBD
:10251000809368004ECE809168008D7F8093680024
:10252000712C882079F13CEEE32E32E0F32E612C01
:10253000712C4FE2542EF70101900020E9F73197FA
:10254000AF014E195F09C090AF05D090B005B7013B
:10255000C601870D911D0E944B1CF70101900020C0
:10256000E9F73197EE19FF09E70D772473947E0E92
:10257000EC0DFD2DF11D508263943AE0E30EF11C49
:102580008610D9CFF80101900020E9F73197AF010B
:10259000401B510BE090AF05F090B005E70CF11C2B
:1025A000B801C7010E944B1CF80101900020E9F717
:1025B0003197E01BF10BEE0DFF1D108286E18A9D25
:1025C000F0018B9DF00D1124E15DFC4F8085817041
:1025D00026968FAF269722961FAE2297BDCDF70184
:1025E0008081882309F4D4CD838584FDD1CD84896D
:1025F0009589B0E0A0E0DC0199278827428D538DB2
:1026000070E060E0842B952BA62BB72BF801828F0E
:10261000938FA48FB58FF701848D958DA68DB78D7F
:10262000F801868B978BA08FB18F128A138A148A38
:10263000158A8EEA0E945B0400E060E0802F0E9411
:10264000740410E180E20E9496041150D9F70F5FE4
:10265000083099F78FEA0E945B0460E080E00E94F6
:1026600074041A8219821C821B821E821D8262E0FF
:1026700070E090E080E00E94811B009799F09A83BF
:102680008983E1E0F0E0FC83EB832D813E81232B05
:1026900029F1E1E0F0E0FE83ED8369E870E00E945B
:1026A0003C190AC089819A810097D9F41A8219824B
:1026B0001E821D821C821B82C1010E948B0989819E
:1026C0009A81009711F00E94F81AE12FF0E08081C2
:1026D000882351F00E9496041F5FF7CFDC011C9203
:1026E000D8CF0E94F81AE2CF2296FFAD2297F111BF
:1026F000EBC00E94C70A80E00E94540A80E20E9458
:10270000540A26E1929EC0011124885C9C4F0E94CD
:10271000CA0A25963FAD25973531C0F02A9A44E084
:1027200050E070E060E0CE01C1960E94781980917F
:10273000AF059091B005DC010D900020E9F7AD01E7
:10274000481B590B64E070E00E94781948E750E09C
:1027500063E080E00E94B20A40919D0350919E0385
:1027600060919F037091A0038A019B011F71222732
:10277000332791E0012B022B032B09F490E0FDE0BD
:102780007695679557954795FA95D1F7940F9335B8
:1027900008F0B5C09093EB02C090A103D090A203C3
:1027A000E090A303F090A40326013701E7E07694BC
:1027B000679457944794EA95D1F740918D035091CF
:1027C0008E0360918F0370919003440D551D661D1B
:1027D000771D00E012E030E020E08FEA93E00E94F5
:1027E0006206892B09F04CCBC092A301D092A401C0
:1027F000E092A501F092A601AA24A394B12C8091A5
:10280000EB02B0E18B9FC0011124A816B90608F0B5
:102810007AC06091870370E0C5010E94ED19892B91
:10282000D1F5A701960167E056954795379527950D
:102830006A95D1F729AF3AAF4BAF5CAF2415350598
:1028400046055705C1F040918D0350918E0360916C
:102850008F037091900389AD9AADABADBCAD480FBD
:10286000591F6A1F7B1F00E012E030E020E08FEA72
:1028700093E00E946206F601EE0FFF1FEE0FFF1FAE
:10288000F170E155FC4FC080D180E280F38049AC0B
:102890005AAC6BAC7CACC5018F709927892B81F445
:1028A000F50184E0F695E7958A95E1F7EE0FFF1FB5
:1028B000EE0FFF1FED55FE4FC082D182E282F38200
:1028C0009FEFA91AB90A9BCF8091AF059091B005EF
:1028D000FC0101900020E9F73197E81B2E2F30E032
:1028E000DC01A20FB31F4C914F3211F0E150F6CF33
:1028F0002F5F3F4F820F931F0E94CA0A27CF82E5A6
:102900008093EB0249CF1092A2011092A101AFEF88
:10291000BDE3E9E4A150B040E040E1F700C00000B1
:102920002696FFAD2697FF2309F472C0529ADA9AD1
:10293000809168008460809368002FEF29AF219810
:1029400053981092000180E00E94C50689B1807CF6
:1029500009F460C03199FACF319BFECF2A9A83E007
:102960008093000180E00E94C50622963FAD229729
:10297000313009F414CC809168008B7F809368001B
:102980000E94C70A892D0E94E70A319B32CD329BF3
:1029900004C0339B02C03199FACF0E94440609A9B2
:1029A0001AA92BA93CA9601771078207930709F0A0
:1029B00067CA3299E3CC80912E038230D0F08150E7
:1029C000990B981619060CF0C8CC11E0190D612F5F
:1029D00080E00E94A10A80E00E94540A80E00E94E8
:1029E000060C692D80E00E94A10A80E20E94540A30
:1029F000912E83E03299C2CCBFEFE1EEF4E0B1500A
:102A0000E040F040E1F700C00000815099F7D3CFDB
:102A100052988DCF43E04093000180E00E94C506AC
:102A20008091A20181110FC0539AA12C18AE1FAA48
:102A30008FA998AD883E934040F48FA998AD019638
:102A400098AF8FABF5CF5398F0CF8091A20199AD9D
:102A5000891709F4A9C08091A101882389F0F8940D
:102A60001092A10178941EAA1DAA8DA99EA9803159
:102A7000974288F78DA99EA901969EAB8DABF5CFA5
:102A80004C9BFECFF8941092A1017894B091A201D2
:102A9000B9AF24E0B29FF0011124ED55FE4FC08084
:102AA000D180E280F3802601370107E076946794B5
:102AB000579447940A95D1F7C0926101D092620170
:102AC000E0926301F092640140918D0350918E0376
:102AD00060918F0370919003440D551D661D771D05
:102AE00000E012E030E020E08FEA93E00E9462060E
:102AF000892B09F085C345E651E024965FAF4EAFC0
:102B00002497BB24B394609187038B2D0E94E11915
:102B100091113AC0D701C60117E0B695A7959795D0
:102B200087951A95D1F721968CAF9DAFAEAFBFAF09
:102B3000219784159505A605B705A1F040918D0351
:102B400050918E0360918F0370919003480F591F2D
:102B50006A1F7B1F00E012E030E020E08FEA93E084
:102B60000E946206F601EE0FFF1FEE0FFF1FF170CD
:102B7000E155FC4FC080D180E280F38021964CACBF
:102B80005DAC6EAC7FAC21972496AEADBFAD249703
:102B9000CD92DD92ED92FD922496BFAFAEAF249719
:102BA000B394B0E1BB12AFCF65E086E00E9474043D
:102BB0008091A2016AE00E94E119182F092F682F65
:102BC00070E090E080E00E94E504602F70E090E00B
:102BD00080E00E94E50489ED0E94740A80E3810F81
:102BE0000E94540A8091A2016AE00E94E11980E3E8
:102BF000890F0E94540AE9AD8E2F90E09C01220FAC
:102C0000331F24963FAF2EAF2497F9B0F0943F2D99
:102C100031703DAF8091A101811128C34E9926C327
:102C20008091C10088608093C100EA2DF0E0E95FE7
:102C3000FE4FB0804B2D4170E42EEB2DE695F0E079
:102C4000F09087035DAD252F30E024968EAD9FADCB
:102C50002497820F931F53E0880F991F5A95E1F72D
:102C60008E0F9F1F6F2D70E00E94011A2C01990F8B
:102C7000660877088091950390919603A091970339
:102C8000B0919803480E591E6A1E7B1E63E0220F06
:102C9000331F6A95E1F7E20FF31FEE0FFF1FEE0FF0
:102CA000FF1FEF59FE4F0081118122813381A9015D
:102CB00098012250310941095109AF2DB0E00E941D
:102CC0009019460E571E681E791E00E012E030E093
:102CD00020E0B301A2018FEA93E00E9462066C013A
:102CE000892B09F08DC28091A1018111BFC24E993B
:102CF000BDC280910001811106C083E08093000174
:102D000080E00E94C506B11013C083EE0E94740AD1
:102D10008DAD805D0E94540A8091C10088608093CF
:102D2000C1001AE08EE40E946D051150D9F7219A76
:102D30008E2D90E0982F8827DC01A155BC4F7D0196
:102D40001CE080E00E946D051150D9F7B1E0B0930E
:102D5000B305EFEFFFEFF093B205E093B10581EA21
:102D60000E946D0581EA0E946D0581EA0E946D0551
:102D70001092B3058EEF0E946D0589AD0E946D051E
:102D80008DAD0E946D0581E08B0D0E946D0581E087
:102D90000E946D051091B1058091B2050E946D05EC
:102DA000812F0E946D0516E18EE40E946D05309B17
:102DB00002C01150C9F71CE080E00E946D05309BF5
:102DC00002C01150C9F73099C5C10E946705F1E0F2
:102DD000F0938100B11001C02198A0E0B1E0F701AB
:102DE0003099FAC0B59BFCCF30918600B59A632F1D
:102DF000621B232F603508F0F3CF3099EDC0B59BEF
:102E0000FCCF30918600B59A632F621B232F603769
:102E100008F4F3CF3099E0C0B59BFCCF3091860029
:102E2000B59A632F621B232F603508F4E6CF603715
:102E300008F0E3CF3099D0C0B59BFCCF309186002D
:102E4000B59A632F621B232F603708F4D6CF3099D1
:102E5000C3C0B59BFCCF30918600B59A632F621B2F
:102E6000232F603508F4C9CF603708F0C6CF3099FA
:102E7000B3C0B59BFCCF30918600B59A632F621B1F
:102E8000232F603508F0B9CF3099A6C0B59BFCCF91
:102E900030918600B59A632F621B232F603708F4A8
:102EA000ACCF309999C0B59BFCCF30918600B59AD4
:102EB000632F621B232F603508F49FCF603708F023
:102EC0009CCF309989C0B59BFCCF30918600B59AD4
:102ED000632F621B232F603708F48FCF30997CC09B
:102EE000B59BFCCF30918600B59A632F621B232FD0
:102EF000603508F482CF603708F07FCF30996CC01E
:102F0000B59BFCCF30918600B59A632F621B232FAF
:102F1000603508F072CF30995FC0B59BFCCF30911F
:102F20008600B59A632F621B232F603708F465CFA4
:102F3000309952C0B59BFCCF30918600B59A632F73
:102F4000621B232F603508F458CF603708F055CF47
:102F5000309942C0B59BFCCF30918600B59A632F63
:102F6000621B232F603708F448CF309935C0B59BDA
:102F7000FCCF30918600B59A632F621B232F6035FA
:102F800008F43BCF603708F038CF58E00027EE2434
:102F9000309922C0B59BFCCF30918600B59A632F43
:102FA000621B232F603520F16037B8F0440F5A952B
:102FB00039F400FD41930FEF58E0A150B04062F0AA
:102FC000440F41605A9539F400FD41930FEF58E0EA
:102FD000A150B0400AF0DCCF44C0440F5A9539F4F8
:102FE00000FD41930FEF58E0A150B040AAF30CC090
:102FF000440F41605A9539F400FD41930FEF58E0BA
:10300000A150B0404AF3C4CF3099E6CFB59BFCCF76
:1030100030918600B59A632F621B232F6035B0F084
:10302000440F5A9539F400FD41930FEF58E0A15039
:10303000B040BAF0440F41605A9539F400FD419315
:103040000FEF58E0A150B04062F0A2CF440F5A9564
:1030500039F400FD41930FEF58E0A150B0400AF061
:10306000D3CF109281008091C10088608093C1000D
:10307000E11052C0411451046104710409F458C0B4
:1030800080915E0183FD07C039E0440C551C661C2D
:10309000771C3A95D1F720E0B301A20188E50E94A0
:1030A000DB05811149C08FEF0E94CF058EEF0E9492
:1030B000CF0580E092E09093600180935F01C110A2
:1030C0003FC09FEAE92E93E0F92E00915F01109135
:1030D00060010115110581F0D7018D917D010E94DC
:1030E000CF05015011091093600100935F01BFEA01
:1030F000EB16B5E0FB0649F70E940C0A182F88234F
:1031000059F06CE082E00E947404612F110F770B7C
:10311000880B990B0E94E5048091A1018111A6C042
:103120004E99A4C0A39450E1A5126FCDA12C6DCDF2
:103130000E940C0A6C01C3CFCC24C394D12CBFCF06
:1031400062E082E00E9474046C2DCC0C770B880B3B
:10315000990BE0CFE1E0E093B3052FEF3FEF309321
:10316000B2052093B10581EA0E946D0581EA0E94B3
:103170006D0581EA0E946D051092B3058BEF0E94E8
:103180006D05B11001C021988091A10181116EC01F
:1031900089B1807C09F06AC0870100581F4FF70190
:1031A0000E151F0539F03FEFE31AF30A80810E94E4
:1031B0006D05F5CF870100581F4FF701E016F106A6
:1031C00039F04FEFE41AF40A80810E946D05F5CFC3
:1031D0001091B1058091B2050E946D05812F0E946A
:1031E0006D0516E38EE40E946D058091A1018111A9
:1031F00093CF89B1807C09F08FCF115099F78CCF94
:1032000011E00E94670521981092000180E00E9461
:10321000C5062A9A112309F492CB809168008B7F0E
:10322000809368000C94400F24E040E050E0BA0125
:103230008AE70E94DB0581110C94940F80915A015A
:1032400086FD02C00C947F108CE080935E010C948C
:10325000940F20E040E052E060E070E080E50E94E2
:10326000DB0581110C949F100C94940F89B1807C24
:1032700009F4DCCB10E0C5CFFB01DC0105900D9219
:103280000020E1F70895FB0151915523B1F0BF01F2
:10329000DC01052E4D91442369F010D0D9F7CD0102
:1032A0000190002049F04D91411108D0C9F3FB0174
:1032B0004111EECF81E090E001970895402539F06B
:1032C000403229F440294B57465E08F0189408957F
:1032D000DC01CB01FC01F999FECF06C0F2BDE1BDD6
:1032E000F89A319600B40D9241505040B8F70895C5
:1032F000DC01CB0103C02D910E9483194150504045
:10330000D0F70895262FF999FECF1FBA92BD81BD3F
:1033100020BD0FB6F894FA9AF99A0FBE0196089557
:103320000E94D219A59F900DB49F900DA49F800D6F
:10333000911D112408952F923F924F925F926F92A8
:103340007F928F929F92AF92BF92CF92DF92EF9235
:10335000FF920F931F93CF93DF93CDB7DEB7CA1BB6
:10336000DB0B0FB6F894DEBF0FBECDBF09942A88E1
:10337000398848885F846E847D848C849B84AA8489
:10338000B984C884DF80EE80FD800C811B81AA8116
:10339000B981CE0FD11D0FB6F894DEBF0FBECDBFE1
:1033A000ED010895A29FB001B39FC001A39F700DCE
:1033B000811D1124911DB29F700D811D1124911D3D
:1033C0000895991B79E004C0991F961708F0961B81
:1033D000881F7A95C9F780950895AA1BBB1B51E1F8
:1033E00007C0AA1FBB1FA617B70710F0A61BB70B75
:1033F000881F991F5A95A9F780959095BC01CD011A
:10340000089597FB072E16F4009407D077FD09D096
:103410000E94ED1907FC05D03EF4909581959F4FD1
:103420000895709561957F4F0895A1E21A2EAA1B09
:10343000BB1BFD010DC0AA1FBB1FEE1FFF1FA21764
:10344000B307E407F50720F0A21BB30BE40BF50B61
:10345000661F771F881F991F1A9469F760957095EA
:10346000809590959B01AC01BD01CF010895052E7B
:1034700097FB1EF400940E944E1A57FD07D00E943D
:10348000151A07FC03D04EF40C944E1A5095409533
:10349000309521953F4F4F4F5F4F08959095809500
:1034A000709561957F4F8F4F9F4F0895EE0FFF1FCF
:1034B0000590F491E02D09940F931F93CF93DF9320
:1034C0008230910510F482E090E0E091B506F09131
:1034D000B60630E020E0B0E0A0E0309799F4211586
:1034E000310509F44AC0281B390B24303105D8F5C1
:1034F0008A819B816115710589F1FB019383828328
:10350000FE0111C040815181028113814817590782
:10351000E0F04817590799F4109761F012960C9350
:10352000129713961C933296CF01DF91CF911F9182
:103530000F9108950093B5061093B606F4CF2115A8
:10354000310551F04217530738F0A901DB019A0108
:10355000BD01DF01F801C1CFEF01F9CF9093B606AD
:103560008093B506CDCFFE01E20FF31F81939193B7
:103570002250310939832883D7CF2091B306309167
:10358000B406232B41F420910301309104013093C0
:10359000B4062093B3062091010130910201211558
:1035A000310541F42DB73EB7409105015091060118
:1035B000241B350BE091B306F091B406E217F30734
:1035C000A0F42E1B3F0B2817390778F0AC014E5F93
:1035D0005F4F2417350748F04E0F5F1F5093B40616
:1035E0004093B306819391939FCFF0E0E0E09CCFAE
:1035F000CF93DF930097E9F0FC0132971382128298
:10360000A091B506B091B606ED0130E020E010972C
:10361000A1F420813181820F931F2091B306309154
:10362000B4062817390709F061C0F093B406E09397
:10363000B306DF91CF910895EA01CE17DF07E8F5D1
:103640004A815B819E0141155105B1F7E901FB8378
:10365000EA8349915991C40FD51FEC17FD0761F416
:10366000808191810296840F951FE9019983888357
:10367000828193819B838A83F0E0E0E012968D91B2
:103680009C9113970097B9F52D913C911197CD011D
:103690000296820F931F2091B3063091B40628172B
:1036A000390739F6309751F51092B6061092B506E3
:1036B000B093B406A093B306BCCFD383C28340813A
:1036C0005181840F951FC817D90761F44E5F5F4F72
:1036D00088819981480F591F518340838A819B813A
:1036E000938382832115310509F0B0CFF093B6069C
:1036F000E093B5069ECFFD01DC01C0CF138212829C
:10370000D7CFB0E0A0E0E7E8FBE10C949D198C0175
:10371000009751F4CB010E945C1A8C01C801CDB70F
:10372000DEB7E0E10C94B919FC01E60FF71F9C012C
:1037300022503109E217F30708F49DC0D901CD9159
:10374000DC911197C617D70798F0C530D10530F333
:10375000CE0104978617970708F3C61BD70B22974D
:10376000C193D1936D937C93CF010E94F81AD6CF69
:103770005B01AC1ABD0A4C018C0E9D1EA091B506D2
:10378000B091B606512C412CF12CE12C109731F55B
:103790008091B3069091B4068815990509F05CC034
:1037A0004616570608F058C0809101019091020119
:1037B000009741F48DB79EB74091050150910601E5
:1037C000841B950BE817F90708F055C0F093B40671
:1037D000E093B306F90171836083A0CF8D919C9132
:1037E000119712966C90129713967C901397A815C8
:1037F000B90559F56C0142E0C40ED11CCA14DB04B2
:1038000020F1AC014A195B09DA011296159780F094
:103810006282738251834083D9016D937C93E1145A
:10382000F10471F0D7011396FC93EE93129776CFC3
:1038300022968C0F9D1FF90191838083F301EFCFB6
:10384000F093B606E093B50669CF4816590608F41A
:103850002C017D01D3019ACFCB010E945C1A7C011F
:10386000009749F0AE01B8010E944B1CC8010E94AC
:10387000F81A870153CF10E000E050CFFB01DC01C4
:1038800004C08D910190801921F441505040C8F737
:10389000881B990B0895FB01DC0102C001900D9279
:1038A00041505040D8F708956817790768F4FB0134
:1038B000DC01E40FF51FA40FB51F02C002900E92A9
:1038C00041505040D8F708950C944B1CDC0101C0C6
:1038D0006D9341505040E0F70895FB01DC014150E9
:1038E000504048F001900D920020C9F701C01D9290
:1038F00041505040E0F70895F894FFCF030000B71F
:1039000006800000080109020A030B040C050D06DD
:103910000E070F777DDFDDF7FDDFDD000000002CF7
:1039200004FF036405D503F803E503D603202B2C1D
:103930003B5B3D5C5D222A3A3C3E3F7C002E74722C
:0639400064002E2E0000C1
:107E0000112484B714BE81FFF0D085E080938100F7
:107E100082E08093C00088E18093C10086E0809377
:107E2000C20080E18093C4008EE0C9D0259A86E02C
:107E300020E33CEF91E0309385002093840096BBD3
:107E4000B09BFECF1D9AA8958150A9F7CC24DD24C4
:107E500088248394B5E0AB2EA1E19A2EF3E0BF2EE7
:107E6000A2D0813461F49FD0082FAFD0023811F036
:107E7000013811F484E001C083E08DD089C08234E0
:107E800011F484E103C0853419F485E0A6D080C0E4
:107E9000853579F488D0E82EFF2485D0082F10E0AE
:107EA000102F00270E291F29000F111F8ED06801E7
:107EB0006FC0863521F484E090D080E0DECF843638
:107EC00009F040C070D06FD0082F6DD080E0C81688
:107ED00080E7D80618F4F601B7BEE895C0E0D1E017
:107EE00062D089930C17E1F7F0E0CF16F0E7DF06D8
:107EF00018F0F601B7BEE89568D007B600FCFDCFD4
:107F0000A601A0E0B1E02C9130E011968C91119780
:107F100090E0982F8827822B932B1296FA010C0160
:107F200087BEE89511244E5F5F4FF1E0A038BF0790
:107F300051F7F601A7BEE89507B600FCFDCF97BE46
:107F4000E89526C08437B1F42ED02DD0F82E2BD052
:107F50003CD0F601EF2C8F010F5F1F4F84911BD097
:107F6000EA94F801C1F70894C11CD11CFA94CF0C13
:107F7000D11C0EC0853739F428D08EE10CD085E9AC
:107F80000AD08FE07ACF813511F488E018D01DD067
:107F900080E101D065CF982F8091C00085FFFCCF94
:107FA0009093C60008958091C00087FFFCCF809118
:107FB000C00084FD01C0A8958091C6000895E0E648
:107FC000F0E098E1908380830895EDDF803219F02E
:107FD00088E0F5DFFFCF84E1DECF1F93182FE3DFCA
:107FE0001150E9F7F2DF1F91089580E0E8DFEE27F6
:047FF000FF270994CA
:027FFE00040479
:00000001FF
