:020000040800F2
:10000000E0440020A9010008E52B0008831D00083A
:100010005D2B0008BB070008A9360008000000009F
:10002000000000000000000000000000192E000881
:10003000BD07000800000000192C00081B2E000856
:10004000C3010008C3010008C3010008C301000880
:10005000C3010008C3010008C3010008C301000870
:10006000C3010008C3010008C1070008C30100085C
:10007000C3010008C3010008C3010008C301000850
:10008000C3010008C3010008C3010008000000000C
:10009000000000000000000000000000E107000870
:1000A000C3010008C3010008C3010008C301000820
:1000B000052F0008C3010008112F0008C301000824
:1000C000C3010008C3010008C3010008C301000800
:1000D000C3010008C3010008C301000800000000BC
:1000E000C3010008C3010008C301000800000000AC
:1000F000000000000000000000000000C301000834
:1001000000000000C3010008C3010008C30100088B
:1001100000000000000000000000000000000000DF
:10012000C3010008C3010008C3010008C30100089F
:10013000C3010008000000000000000000000000F3
:10014000000000000000000000000000C3010008E3
:10015000C3010008C3010008C3010008C30100086F
:10016000C3010008C30100080000000000000000F7
:10017000000000000000000000000000000000007F
:1001800000000000C30100080000000000000000A3
:10019000C3010008DFF80CD000F08EFA00480047D9
:1001A000F9620008E04400200648804706480047FE
:1001B000FEE7FEE7FEE7FEE7FEE7FEE7FEE7FEE717
:1001C000FEE7FEE7F52E0008950100082DE9F05F37
:1001D0000546002092469B468846064681464024B6
:1001E0001BE0284641464746224600F09DF853460C
:1001F0005A46C01A914110D311461846224600F0C3
:1002000084F82D1A67EB01084F4622460120002191
:1002100000F07BF817EB00094E41201EA4F1010409
:10022000DFDC484631462A464346BDE8F09FD2B25D
:1002300001E000F8012B491EFBD270470022F6E7CF
:1002400010B513460A4604461946FFF7F0FF20464C
:1002500010BD421E12F8013F002BFBD111F8013BEB
:1002600002F8013B002BF9D1704710B5044604E0B9
:100270000B7800F8013B03B1491C521EF8D220460E
:1002800010BD421C10F8011B0029FBD1801A7047D9
:1002900010B5002200E0521C835C8C5CA34201D1AB
:1002A000002BF8D1D8B2E1B2401A10BD034611F8C4
:1002B000012B00F8012B002AF9D11846704702469D
:1002C000C9B200E0401C0378002BFBD102E00378A8
:1002D0008B4203D0401E9042F9D20020704730B5C7
:1002E0000B46014600202022012409E021FA02F5F4
:1002F0009D4205D303FA02F5491B04FA02F528448E
:10030000151EA2F10102F1DC30BD202A04DB203AE7
:1003100000FA02F1002070479140C2F1200320FA58
:1003200003F3194390407047202A04DB203A21FA56
:1003300002F00021704721FA02F3D040C2F12002FE
:1003400091400843194670472DE9FE4F804681EAE7
:100350000300C00F0C46009021F0004123F000453F
:10036000B8EB0200A94105D24046214690461C4602
:100370000B46024623F00040104347D0270DC7F339
:100380000A00C3F30A510290401A019040286BDA28
:10039000C3F3130040F4801B0098924620B1002361
:1003A000D2EB030A63EB0B0B01985946C0F14002F4
:1003B0005046FFF7AAFF06460D4650465946019A99
:1003C00000F08CF910EB08006141002487EA11521B
:1003D00084EAE7731A4340D0009A62B3019A012A73
:1003E0004FEA075215DC001B61EB02014FF000429F
:1003F00002EA0752CDE90042001C41F58011324665
:100400002B4600F08CF903B0BDE8F08F4046214642
:10041000F9E7001B61EB0201001C41F58013001895
:100420005B412018A2F5001747EB030140EAD570A5
:10043000B6196D4111E06D084FEA360645EAC07500
:100440004FEA0752001B61EB0201001C41F58011CD
:1004500049084FEA30000019514132462B4603B09B
:10046000BDE8F04F00F04CB9009801224000002395
:10047000D0EB020263EBE073009821464FEAE07490
:10048000B8EB000061EB0401E9E783F000435BE7B0
:1004900081F0004158E72DE9FE4F81EA030404F0A2
:1004A000004421F0004100944FF0000B23F0004382
:1004B00050EA01045ED052EA03045BD0C3F30A544D
:1004C000C1F30A552C44A4F2F3340194A0FB025466
:1004D000C1F3130141F48011C3F3130343F48013F8
:1004E00001FB024400FB034E840A970A44EA81544C
:1004F00047EA8357A4FB076802958D0A05FB078529
:100500004FEA932C04FB0C542705029D4FEA065832
:1005100047EA1637B5EB08056EEB070C870E920E0F
:1005200047EA811742EA8312A7FB0201B6EB0B01EF
:1005300064EB00042B0D43EA0C335E1844EB1C50B3
:10054000DA465146E7FB0201C5F313044FEA0B33C9
:1005500043EA14534FEA0432019C43EA0603A4F130
:100560000C040294009CCDE900B400F0D8F803B06C
:10057000BDE8F08F00200146F9E72DE9F04D81EA52
:10058000030404F0004B21F0004514464FF0000A2C
:1005900023F0004150EA050220D054EA01021DD0A8
:1005A000C5F30A570246C5F31303C1F31300C1F3A1
:1005B0000A5640F4801543F48013A7EB0608101B7D
:1005C000D64608F2FD3873EB050002D308F10108A6
:1005D00001E092185B41B8F1000F03DA00200146F8
:1005E000BDE8F08D00204FF48011064684460EE0F1
:1005F000171B73EB050705D3121B63EB05030643BB
:100600004CEA010C49084FEA300092185B4150EA6D
:100610000107EDD152EA030012D082EA040083EA16
:100620000501084305D0101BAB4106D2012200236F
:1006300006E000224FF0004302E06FF00102531089
:100640001AEB06004CEB085110EB0A0041EB0B01D2
:10065000BDE8F04D00F054B8C1F30A52C1F31301E4
:1006600040F2FF3341F480119A4202DA0020014641
:10067000704740F233439A42A2F2334202DC5242C4
:10068000FFF752BEFFF741BE30B5041E71F1000402
:1006900004DB4FF00044404264EB0101141E73F18F
:1006A000000405DB1C464FF00043524263EB040399
:1006B000994208BF904230BD064C074D06E0E06805
:1006C00040F0010394E8070098471034AC42F6D399
:1006D000FFF764FDD4980008F4980008202A06DB90
:1006E000CB17203A41FA02F043EAE07306E041FA00
:1006F00002F3D040C2F120029140084319467047EE
:1007000010B5141E73F1000408DA401C41F1000119
:1007100092185B411A4301D120F0010010BD2DE970
:10072000F04D92469B4611B1B1FA81F202E0B0FA67
:1007300080F220329046FFF7E8FD04460F4640EA7B
:100740000A0041EA0B0153465A46084313D01146AA
:1007500053EA010019D0C8F140025046FFF7E4FD0A
:1007600005460E46504659464246FFF7CEFD084321
:1007700005D0012004E020463946BDE8F08D002078
:10078000054346EAE0762C4337430A986305E40ABA
:10079000A0EB08000022FD0A44EA47540A3002D5C3
:1007A00000200146E9E7010510196941DDE9084526
:1007B00000196941BDE8F04DA2E7FEE7704700006F
:1007C00010B5102001F0F6FD002806D003491020D6
:1007D0000860BDE8104006F081BA10BD143C01402D
:1007E00010B5402001F0E6FD002805D00349402067
:1007F000086003490020088010BD0000143C01403F
:10080000A00000202DE9F04FBC4CBD4D89B0A0895F
:10081000E0812868C0F34E00642802D26420C92118
:100820002960B4F91010884212D0B4F90A10A0F16E
:1008300064028A4205DB01F164004900C83180B2DC
:10084000296020826438A0810120207103F0FEFB22
:10085000AC4F4FF480763146384601F050FE4FF4ED
:10086000007B28B15946384601F049FE002861D185
:10087000B2463146384601F042FE00B901265946DB
:10088000B946384601F03BFE00B9022631469EA02B
:1008900005F0B6FEA046B4F90C009E4C002748B106
:1008A00080B205F0ADFB102847D0012E7ED0022E7D
:1008B0007DD09DE09848007800283BD02F219648B5
:1008C000FFF7FDFC0021017006F00CF8B8F90A00F2
:1008D00047460A2817DAC6B24FF03C0811E01F213C
:1008E0004FF6FF70CDE901016068009006EB8601CC
:1008F00008EB810189A20220236801F096FC761C96
:10090000F6B20B2EEBD9C92028600020B881F88000
:10091000387103F09BFB56464D465C4631462846EF
:1009200001F0EDFD0028F9D02146284601F0E7FD51
:100930000028F3D009B0BDE8F08F7FA17648FFF71B
:1009400088FC6E4974481231FFF783FC05F0CAFF3A
:10095000B8F90A000A2816DAC6B212E01F214FF6CB
:10096000FF70CDE901016068009006EB86013C2034
:1009700000EB810169A20220236801F056FC761C7D
:10098000F6B20B2EEAD9C9202860A8F80C70A8F896
:10099000067088F8047003F059FB56464D465C46D5
:1009A0003146284601F0ABFD002801E008E02CE0CC
:1009B000F6D02146284601F0A2FD0028F0D0B9E784
:1009C000554901F11E00FFF763FC30B94B49123164
:1009D00001F11E00FFF75CFC98B14849123101F1AA
:1009E0001E00FFF763FC4C4901F11E00FFF75EFC9F
:1009F000182103A8FFF722FC012E21D0022E43D09C
:100A000068E03E484DA13030F0E7434901F18200F3
:100A1000FFF73EFC30B93949123101F13C00FFF7D4
:100A200037FC48B13549123101F13C00FFF73EFC7B
:100A3000394901F18200D9E7304840A14E30D5E76D
:100A40002E483030FFF71DFCC0B2152800D9152004
:100A5000C0F115002949C5B21522303103A8FFF7AE
:100A600004FC05E037A103A8FFF7F3FB6D1EEDB210
:100A7000002DF7D14FF4FC60CDE9010760680090CC
:100A800003AA1421236822E01C484E30FFF7F9FB2B
:100A9000C0B2152800D91520C0F115001749C5B2FC
:100AA00015224E3103A8FFF7E0FB05E025A103A8BE
:100AB000FFF7CFFB6D1EEDB2002DF7D147F6E0300A
:100AC000CDE9010760680090236803AA28211E2051
:100AD00001F0ABFB56464D465C463146284601F0D8
:100AE0000EFD0028F9D02146284601F008FD002817
:100AF000F3D0642001F0D6FD1CE7000020000020A8
:100B000024080040000402404B65792025690A0D45
:100B1000000000000C000020E80000202020202021
:100B200020202020202020202020202020202020C5
:100B300020202020000000002F0000006E6F2064A5
:100B400069736B0020000000002200F001B8000073
:100B500030B50E4B054601205C7A002C14D1587A32
:100B60001C54587A03EB800045605D7A03F108005D
:100B70002A54587A421C5A72303008703A20487011
:100B80002F208870CC70002030BD0000D0300020B5
:100B90002DE9F0470023344F0120344D1C461E46FA
:100BA000FB82282115F801C0491C89B2BCF1320F23
:100BB000F8D397F80590FF784FEA050A1AF8015024
:100BC0002D2D01D2022206E0462D01D2032202E0A1
:100BD000822D3DD204225B1C521E4FF6FF75DBB204
:100BE00005EA4000D2B2102B00D100230AB940F030
:100BF00001000E2B2CD1C0F38035C0F3003C4CEA31
:100C00004505C0F3802C4CEA4505C0F3002C4CEAA6
:100C10004505C0F3801C4CEA4505C0F3001C4CEAB6
:100C20004505C0F3800C4CEA450500F0010C4CEA88
:100C3000450C032C0AD94FEA092505EB0735354445
:100C4000DFF82C80761CB6B208F805C0641CA4B28C
:100C5000002AC0D1491C40F0010089B2B4F5827F5E
:100C6000ACD3BDE8F08700008C0000207424002085
:100C70007404002000B5ADF50D7D022215496846CB
:100C800004F020FC010007D013A005F0B9FC1149C5
:100C900018A005F0B5FCFEE7184800794103684646
:100CA00004F0DAFA8CAB4FF400521549684604F0B0
:100CB000A0FE010007D013A005F0A2FC05490DA07D
:100CC00005F09EFCFEE7684604F02CFA0DF50D7D5C
:100CD00000BD0000382E00206F70656E20666F72B8
:100CE00020526563206572726F7220282569290D74
:100CF0000A00000025730A0D000000008C0000208F
:100D000074040020665F7772697465206572726F83
:100D10007220282569290D0A0000000070B50446DC
:100D200000F0FCF80546601C02D00448007804443A
:100D300000F0F4F8401BA042FAD370BDAC000020D4
:100D40002DE9F84FDFF8B4A1002201240AF1040BC9
:100D500003254FF00F090BF1040E00BF0B6804FAD6
:100D600002F63340B34272D10F7907F00307012F27
:100D700001D0022F16D187684FEA420805FA08FC15
:100D800027EA0C07D1F80CC00CFA08FC4CEA070C57
:100D9000C0F808C04768B7430E79C6F300169640FE
:100DA0003E4346600E79F643B6070DD0C76856003D
:100DB00005FA06FC27EA0C07D1F808C00CFA06FC75
:100DC0004CEA070CC0F80CC00E7906F00306022EA0
:100DD00010D1D60800EB8608D8F8206057074FEAF4
:100DE000D76C09FA0CF7BE430F6907FA0CF73743C3
:100DF000C8F8207006684FEA420C05FA0CF7BE43AB
:100E00000F7907F0030707FA0CF7374307604E68BE
:100E1000F6006DD53A4E376847F48047376036683C
:100E200022F0030706F480460096364E07EB060CC8
:100E3000DCF8086897073F0F09FA07F826EA080662
:100E4000DFF8C480404503D14FF000081EE04FE0BA
:100E5000DFF8B880404502D14FF0010816E0DFF816
:100E6000B080404502D14FF002080FE0DFF8A480C7
:100E7000404502D14FF0030808E0DFF89C80404570
:100E800002D14FF0040801E04FF0070808FA07F814
:100E900048EA0608CCF80888DAF800605746D1F826
:100EA00004C09E435FEACC3C00D51E433E60DBF8A5
:100EB00000605F46D1F804C09E435FEA8C3C00D5D9
:100EC0001E433E60DEF800607746D1F804C09E43C2
:100ED0005FEACC2C00D51E433E60084F0C373E68BD
:100EE000D1F804C09E435FEA8C2C00D51E433E60BF
:100EF000521C102AFFF432AFBDE8F88F003C0140CD
:100F0000443802400030014000000240000402402A
:100F100000080240000C02400010024001488068B6
:100F200070470000AC00002002488168027811443C
:100F300081607047AC0000200B4810B5016841F497
:100F400000710160016841F480610160016841F451
:100F500080710160032000F06FF8002000F006F8B7
:100F600000F024F8002010BD003C024070B50D4D8B
:100F700004464FF47A712878B1FBF0F00A49096809
:100F8000B1FBF0F000F027FA48B9102C07D200228C
:100F90002146501E00F030F800206C6070BD01202A
:100FA00070BD0000AC000020B80000200A4808B561
:100FB000016841F480410160006800F480400090C5
:100FC0000548001F016841F080510160006800F091
:100FD0008050009008BD000044380240002809DB22
:100FE00000F01F02012191404009800000F1E02043
:100FF000C0F8001170470000F0B40E4B1B680C469F
:10100000C3F30223C3F10705042D00D90425191DDC
:10101000072901D2002300E0DB1E012606FA05F1B4
:10102000491E214099409E40761E16403143F0BC37
:1010300002F083BB0CED00E0064900F007020868EF
:101040004FF6FF03184040EA0220034A10430860AD
:10105000704700000CED00E00000FA050448054967
:1010600000680968044AC1F38221515CC840704796
:10107000B80000200838024064940008044805497C
:1010800000680968044AC1F34231515CC8407047A6
:10109000B8000020083802406494000870B50400CD
:1010A00009D0606A002540B125616561A56294F8A8
:1010B000510040B10CE0012070BD6068B0F5827F46
:1010C000F4D0E561F2E784F85050204600F044F88F
:1010D000022084F851002068016821F0400101607D
:1010E000A088218900F4827001F404410843A18999
:1010F00001F400610843217C01F002010843217DD5
:1011000001F001010843218B01F400710843217FA4
:1011100001F03801084394F8201001F080010843E1
:10112000218D01F40051084321680860A069042161
:1011300001EA104094F8241001F0100108432168DE
:1011400048602068C16921F40061C16165650120C2
:1011500084F85100002070BDF0B587B0044614211A
:101160006846FFF76BF820491E4F266800251E4A87
:101170001039022303241D48BE4214D1166846F4D8
:1011800080461660126802F4804205920A6842F0B6
:1011900002020A60096801F002010591B9008DE8B8
:1011A0002A00052116E0124FBE4218D1166846F4F7
:1011B00000461660126802F4004205920A6842F086
:1011C00002020A60096801F00201059128218DE8F8
:1011D0002A000621CDE903416946FFF7B1FD07B0BA
:1011E000F0BD0000003800404038024000040240DA
:1011F000003C00402DE9F84F044690F850000027CD
:101200000A9E1D4692468B464FF0010901280ED0DA
:10121000012084F85000FFF781FE804694F85100C9
:10122000616801280CD0B1F5827F07D102E002206D
:10123000BDE8F88FA16809B9042801D00227C2E0EF
:10124000BBF1000F27D0BAF1000F24D01DB394F8E2
:101250005100042802D0052084F851000020606568
:10126000C4F838A0E587A587C4F830B0E586A58620
:101270002064606420680168490603D4016841F075
:1012800040010160E068B0F5006F606805D0E8B328
:10129000012D46D07FE0012795E008B1012D39D11D
:1012A000206B21680088C860206B801C2063E08E62
:1012B000401EE0862EE02068816889070FD5E18E08
:1012C00069B1B9F1010F0AD1216B0988C160206BA6
:1012D000801C2063E08E401EE0864FF000092068ED
:1012E0008168C9070CD0E18F51B1C068A16B08803B
:1012F000A06B801CA063E08F401EE0874FF00109C7
:10130000FFF70CFEA0EB0800B04200E009E001D3BB
:10131000701C50D1E08E0028CDD1E08F0028CAD1BA
:101320003FE0206B216800780873206B401C20632D
:10133000E08E401EE0862EE02068816889070FD588
:10134000E18E69B1B9F1010F0AD1216B09780173FE
:10135000206B401C2063E08E401EE0864FF00009A9
:1013600020688168C9070CD0E18F51B1C068A16BBA
:101370000870A06B401CA063E08F401EE0874FF018
:101380000109FFF7CBFDA0EB0800B04202D3701CAF
:1013900001D010E07EB1E08E0028CDD1E08F002892
:1013A000CAD142463146204601F092FC28B10127BD
:1013B0002020606507E0032705E0A06818B92068D1
:1013C000C16880680090012084F85100002084F8F2
:1013D000500038462CE710B5401EB0F1807F01D395
:1013E000012010BD4FF0E02460610F21601702F072
:1013F000A4F90020A06107202061002010BD7047E3
:101400007047000070B590F83C20012A2CD00124D0
:1014100080F83C40022280F83D2003685A689D68AD
:1014200022F070060A6832435A60104B02689A42F2
:101430000ED0B2F1804F0BD00D4B9A4208D00D4B1D
:101440009A4205D00C4B9A4202D00C4B9A4204D1DE
:10145000496825F080031943916080F83D400021E0
:1014600080F83C10084670BD022070BD00000140AD
:101470000004004000080040000C00400040014013
:1014800010B5040003D094F83D0010B107E001202E
:1014900010BD002084F83C00204600F01FF8022018
:1014A00084F83D00211D206801F04CFD012084F8E6
:1014B000460084F83E0084F83F0084F8400084F839
:1014C000410084F8420084F8430084F8440084F822
:1014D000450084F83D00002010BD000010B586B026
:1014E000044614216846FEF7A9FE2068B0F1804F3B
:1014F00026D114480021026842F00102026000680F
:1015000000F0010005900F481038026842F0010217
:1015100002600068022200F0010005900120CDE980
:101520000002CDE90201049069460748FFF708FC74
:10153000002211461C20FFF75FFD1C20FFF74EFD27
:1015400006B010BD403802400000024070B50446AD
:1015500090F83C00012817D0012584F83C50022067
:1015600084F83D002068826822F0770222F47F42EE
:1015700082600868502830D00DDC20284DD005DC72
:1015800098B310283BD148E0022070BD302844D0E9
:10159000402834D139E0602828D0702806D0B0F532
:1015A000805F2CD0B0F5005F29D10AE0CB68D1E98B
:1015B0000121206801F01FFD2068816841F077015A
:1015C00009E0CB68D1E90121206801F014FD206811
:1015D000816841F48041816011E0CA6849682068EF
:1015E00001F01BFD5021206807E016E0CA68496839
:1015F000206801F059FD6021206801F006FD84F8A3
:101600003D50002084F83C0070BDCA6849682068DD
:1016100001F003FD40212068EFE7226801461046F3
:10162000EBE72DE9F0410D46040003D094F83D00AE
:1016300018B108E00120BDE8F081002084F83C00EA
:10164000204600F041F8022084F83D0020688168BF
:1016500044F2070291438160211D206801F072FC71
:10166000226890689169166A2B68AF69034340F25B
:101670000330814341EA0721A868EF6908434FF628
:10168000FC418843E96840EA0720014328692F6A42
:10169000000140EA0730084369686D6926F0AA0630
:1016A00046EA0515294393602268906154F8460B79
:1016B0000162012004F81F09E0752076E0762077AA
:1016C000A0750020B7E7000010B586B004461421CD
:1016D0006846FEF7B3FD17492068884227D11648AF
:1016E0000021026842F004020260006800F0040079
:1016F000059011481038026842F00202026000684A
:10170000012200F002000590C02000900220CDE9E7
:101710000102CDE9031069460848FFF711FB0022DA
:1017200011461E20FFF768FC1E20FFF757FC06B08D
:1017300010BD000000080040403802400004024094
:1017400070B590F83E60044690F83F5090F84230F3
:1017500090F84320022021B104290ED0012E1BD184
:1017600014E0012E18D1012B16D184F83E0084F824
:10177000420001220021206820E0012D0CD1012A25
:101780000AD184F83F0084F8430014E0012D03D10E
:10179000012B01D1012A01D0012070BD84F83E0047
:1017A00084F83F0084F8420084F8430001220021BD
:1017B000206801F013FC01220421206801F00EFCD6
:1017C0002068016841F001010160002070BD000047
:1017D00010B502684FF080418A420ED1007F012887
:1017E0000BD1002048620421044800F0F3F9054AB7
:1017F000034B11885854491C118010BDD02F002074
:1018000074240020A00000202DE9F041054690F846
:101810003C000C46012836D0012085F83C008AB3F4
:10182000042A42D02868082A51D0D4E90023E1686C
:10183000066A26F480560662C669076A26F4407670
:1018400046EA03234FF6FF7606EA013123F470439C
:1018500019434FF4204627F4204306EA02321A4384
:10186000C16102622868C16921F44061C1612868D0
:10187000C169A26841EA0221C161002085F83C00EB
:10188000BDE8F08101E00220FAE7D4E90012E36844
:10189000286801F0D3FB2868816921F00C0181617F
:1018A00028688169A26811430FE0D4E90012E36857
:1018B000286801F00BFC2868816921F4406181618E
:1018C00028688169A26841EA02218161D5E7D4E9EB
:1018D0000027267B016A21F480710162C169036AD5
:1018E00021F00301394321F0F00731074FF420665E
:1018F00047EA116123F4206306EA02221A43C16118
:1019000002622868C16921F00C01C1612868C169BF
:10191000A2681143B0E710B5040003D094F83D006D
:1019200010B107E0012010BD002084F83C002046E3
:1019300000F01EF8022084F83D00211D206801F00F
:1019400001FB012084F8460084F83E0084F83F0043
:1019500084F8400084F8410084F8420084F8430091
:1019600084F8440084F8450084F83D00002010BD50
:101970007047000010B5044651B104290DD0082964
:1019800010D094F8410094F84520012811D10EE0C0
:1019900094F83E0094F84220F7E794F83F0094F85A
:1019A0004320F2E794F8400094F84420EDE7012A40
:1019B00001D0012010BD022051B1042911D0082905
:1019C00018D084F8410084F845000C291BD13CE074
:1019D00084F83E0084F842002068C26842F00202A7
:1019E00010E084F83F0084F843002068C26842F0A9
:1019F000040207E084F8400084F844002068C268CC
:101A000042F00802C2600122206801F0E7FA1149A1
:101A1000206888420ED0B0F1804F0BD00E4988422A
:101A200008D00E49884205D00D49884202D00D49A0
:101A3000884204D1816801F00701062903D00168BA
:101A400041F001010160002010BD2068C26842F031
:101A50001002D7E7000001400004004000080040E9
:101A6000000C00400040014070B504460068016968
:101A70004FF00005C943890715D4C168C9438907D8
:101A800011D4E91E01610120207720688069800758
:101A9000204602D0FFF79CFE04E000F098F82046B4
:101AA00000F096F8257720680169C943490717D4E3
:101AB000C168C943490713D46FF0040101610220D2
:101AC00020772068806910F4407F204602D0FFF71D
:101AD0007FFE04E000F07BF8204600F079F82577DF
:101AE00020680169C943090716D4C168C9430907B9
:101AF00012D46FF008010161042020772068C069CA
:101B00008007204602D0FFF763FE04E000F05FF894
:101B1000204600F05DF8257720680169C943C906B1
:101B200017D4C168C943C90613D46FF0100101610D
:101B3000082020772068C06910F4407F204602D03A
:101B4000FFF746FE04E000F042F8204600F040F8BF
:101B5000257720680169C943C90708D1C168C9430D
:101B6000C90704D1891E0161204600F032F82068BF
:101B70000169C943090609D4C168C943090605D4E6
:101B80006FF0800101612046FFF739FC2068016990
:101B9000C943490609D4C168C943490605D46FF051
:101BA00040010161204600F02AF820680169C9431C
:101BB00089060BD4C168C943890607D46FF0200198
:101BC00001612046BDE87040FFF71ABC70BD704748
:101BD000704770470246002041B1042909D0082906
:101BE0000AD00C2901D11068006C70471068406B56
:101BF00070471068806B70471068C06B7047704703
:101C000070B5040004D094F83D00002510B106E042
:101C1000012070BD84F83C50204600F023F82420B9
:101C200084F83D002068C16821F40051C16020465D
:101C300001F068FA2068016921F49041016120688F
:101C4000416921F02A0141612068C16841F40051D5
:101C5000C1602564202084F83D0084F83E00002007
:101C600070BD000010B586B0044614216846FEF72A
:101C7000E5FA14492068884221D1134800210268FE
:101C800042F010020260006800F0100005900E485B
:101C90001438026842F001020260006800F001009E
:101CA00005904FF4C06000900220CDE901010320AF
:101CB00003900720049069460448FFF741F806B0F6
:101CC00010BD0000001001404438024000000240F6
:101CD0002DE9F843044690F83D001F4616460D4690
:101CE00020284CD1C5B1BEB194F83C00012846D0A3
:101CF000012084F83C004FF00008C4F84080212007
:101D000084F83D00FFF70AF9A6848146E684A068BE
:101D1000B0F5805F03D004E00120BDE8F8832069BE
:101D200028B12E465FF0000584F83C800EE00026C6
:101D3000FAE78021204601F06BFAA0B9AEB116F89F
:101D4000010B21684860E08C401EE084E08C4B462B
:101D50004FF0000200970028EBD14FF040012046E1
:101D600001F056FA30B10320D7E735F8020BC0F383
:101D70000800E6E7202084F83D000020CDE702209F
:101D8000CBE7FEE7F0B50F4B10229A610E4CD50160
:101D9000D205A2610D4B1A1F060A08E01E601768E3
:101DA000BF07FCD518601768BF07FCD5491E00297E
:101DB000F4D110688007FCD510680006FCD4A5613A
:101DC000F0BD000000040240000002400C3C004056
:101DD00030B5084C0546238862880021084600F08B
:101DE0002BF96188208841432846BDE83040FFF741
:101DF000C9BF00001C000020854910B54FF4805079
:101E0000886100F007F9012000F03AFA4FF47A7087
:101E1000FEF784FFCB2000F033FA392000F04AFAB5
:101E20002C2000F047FA002000F044FA342000F0A3
:101E300041FA022000F03EFACF2000F021FA002003
:101E400000F038FAC12000F035FA302000F032FA04
:101E5000E82000F015FA852000F02CFA002000F0B0
:101E600029FA782000F026FAEA2000F009FA00208A
:101E700000F020FA002000F01DFAED2000F000FA3A
:101E8000642000F017FA032000F014FA122000F08A
:101E900011FA812000F00EFAF72000F0F1F920206D
:101EA00000F008FAC02000F0EBF9232000F002FA5D
:101EB000C12000F0E5F9102000F0FCF9C52000F089
:101EC000DFF93E2000F0F6F9282000F0F3F9C720F2
:101ED00000F0D6F9862000F0EDF9362000F0D0F9B8
:101EE000482000F0E7F93A2000F0CAF9552000F048
:101EF000E1F9B12000F0C4F9002000F0DBF918206E
:101F000000F0D8F9B62000F0BBF9082000F0D2F9B3
:101F1000822000F0CFF9272000F0CCF9F22000F069
:101F2000AFF9002000F0C6F9262000F0A9F9012041
:101F300000F0C0F9E02000F0A3F90F2000F0BAF99A
:101F4000312000F0B7F92B2000F0B4F90C2000F09C
:101F5000B1F90E2000F0AEF9082000F0ABF94E20E8
:101F600000F0A8F9F12000F0A5F9372000F0A2F95F
:101F7000072000F09FF9102000F09CF9032000F0EA
:101F800099F90E2000F096F9092000F093F900204D
:101F900000F090F9E12000F073F9002000F08AF9D8
:101FA0000E2000F087F9142000F084F9032000F0DF
:101FB00081F9112000F07EF9072000F07BF9312033
:101FC00000F078F9C12000F075F9482000F072F9AE
:101FD000082000F06FF90F2000F06CF90C2000F0E1
:101FE00069F9312000F066F9362000F063F90F201E
:101FF00000F060F9112000F043F97820FEF78EFE22
:10200000292000F03DF9BDE81040032000F086B81B
:102010000000024070B5074C4FF480552804A061C1
:10202000C820FEF77BFEA002A061C820FEF776FE66
:10203000A56170BD000002402DE9F043344E4FF41D
:102040008017B761DFF8CC8074044FF40069C8F8DA
:102050001840314D2A242C60B5F10404D4F800C096
:102060005FEA8C7CFAD500BFD4F800C05FEA0C6C44
:10207000FAD44FF0100CC6F818C04FEA102CC5F86F
:1020800000C000BFD4F800C05FEA8C7CFAD5C0B2B3
:10209000286020688007FCD5100A28602068800727
:1020A000FCD5D0B2286020688007FCD520680006E7
:1020B000FCD4B7612B20286020688007FCD52068FD
:1020C0000006FCD41020B061080A28602068800750
:1020D000FCD5C8B2286020688007FCD5180A2860A3
:1020E00020688007FCD5D8B2286020688007FCD51E
:1020F00020680006FCD4B7612C2028602068800787
:10210000FCD520680006FCD4C8F81890BDE8F08320
:1021100000040240000002400C3C004070B5174A29
:102120004FF480119161164A4B12C9019161154C0F
:1021300036212160211F0C68A407FCD50C682406F9
:10214000FCD49361104CF0254FF4A07658B10128CF
:102150000BD002280BD0032804D1E82000F0AAF805
:102160006680258070BD482002E02820F6E78820A0
:1021700000F0A0F86580268070BD000000040240D9
:10218000000002400C3C00401C0000202DE9FC4FE8
:102190001446DDE90CBA7F2A0DD9343CE4B2842C14
:1021A00004D0742C04D0852C04D004E08A2402E0EE
:1021B000822400E08B24C3F307274A1E3A4403F02D
:1021C000FF0895B2431E08EB030292B22B46FFF7BD
:1021D00033FF002625E000BFA4F1200111FB0761B9
:1021E0000B98002530F811904FEA1A2001904FEA21
:1021F0001B20009012E000BF09FA05F0000405D58D
:10220000009800F057F80BF0FF0004E0019800F090
:1022100051F80AF0FF0000F04DF86D1CA845EBD80E
:10222000761CB742D8D8BDE8FC8F2DE9FE4F9B46FF
:10223000DDE90D9814460E460546DFB2DDF830A004
:1022400019E07819B0F5A07F09D3CBF307208119E5
:102250008EB200253044F02810D2202A0AD0CDF8C2
:1022600000A0CDE901985B4631462846FFF78EFF76
:10227000781985B2641C2278002AE2D1BDE8FE8F6D
:10228000094A4FF4801191614A12CB0107498B61D1
:10229000074B1860181F03689B07FCD503681B06D3
:1022A000FCD48A6170470000000402400000024034
:1022B0000C3C0040084A10219161CA01CB05074936
:1022C0008B61074B1860181F03689B07FCD50368D8
:1022D0001B06FCD48A6170470004024000000240E3
:1022E0000C3C0040044908B50A6802430A600968CA
:1022F0000140009108BD000030380240044908B593
:102300000A6802430A6009680140009108BD0000A4
:102310004438024030B5264A002405790168131F6D
:1023200085B371B345798DB1012D17D0022D18D029
:10233000012483792BB31E4908310A1F012B18D0C1
:10234000022B20D0032B22D0012428E015688D43D6
:10235000156001681A680A431A60EAE71D688D4330
:1023600001E01D680D431D60016813680B43136095
:10237000DFE703680D689D430D6000681168014345
:1023800011600CE00DE0036815689D4302E00368EE
:1023900015681D43156000680A6802430A602046FC
:1023A00030BD1D688D431D60006811688143E7E7FB
:1023B000043C014003490968884301D0002070476C
:1023C00001207047143C0140F0B50A680F2692FACC
:1023D000A2F2B2FA82F303248AE001279F4015EAB1
:1023E00007027DD04D68012D01D0022D1BD18D68D3
:1023F000876892FAA2FCBCFA8CFC4FEA4C0C04FAF7
:102400000CFC27EA0C0792FAA2FCBCFA8CFC4FEAFF
:102410004C0C05FA0CF52F438760CD68476855438F
:1024200097432F4347600F69D0F80CC092FAA2F58A
:10243000B5FA85F54FEA450E04FA0EF52CEA050CBF
:1024400092FAA2F5B5FA85F56D00AF404CEA070C9B
:10245000C0F80CC04D68022D33D192FAA2F5B5FA3E
:1024600085F5082D15D2D1F814C0056A92FAA2F7A5
:10247000B7FA87F7BF0006FA07F7BD4392FAA2F74B
:10248000B7FA87F7BF000CFA07FC45EA0C050562AE
:1024900017E0D1F814E0476A150A95FAA5FCBCFAD2
:1024A0008CFC4FEA8C0C06FA0CFC95FAA5F5B5FAF3
:1024B00085F5AD0027EA0C070EFA05FE47EA0E0780
:1024C00047624D68076892FAA2FCBCFA8CFC4FEA9E
:1024D0004C0C04FA0CFE27EA0E0792FAA2F200E076
:1024E00005E0B2FA82F2520095402F4307605B1C70
:1024F0000A681546DA407FF470AF0020F0BD00692D
:10250000814301D00020704701207047006981435A
:1025100001D000207047012070470069814301D03D
:10252000002070470120704730B5036891FAA1F48C
:10253000B4FA84F465000324AC4091FAA1F1B1FA35
:1025400081F14900A3438A401343036030BD30B595
:10255000C36891FAA1F4B4FA84F465000324AC4092
:1025600091FAA1F1B1FA81F14900A3438A401343E2
:10257000C36030BD10B503680122C3F380132BBBC9
:10258000D1E900231A43D1E9023423431A430B69EA
:102590001A434B691A438B691A43CB691A430B6A76
:1025A0001A4303684FF6BF74A3431A43026042689C
:1025B0004B6922F0040242EA134242600A6AB2F511
:1025C000005F02D1898C89B201610022C16921F4C6
:1025D0000061C161104610BD0A06930D074A1A44F6
:1025E000D2F8083823EA1143090C91FAA1F1B1FAA3
:1025F00081F188400343C2F8083870470030014039
:102600000149086070470000B8000020F0B502687A
:102610001D4B1E4C9F031E4D1E4E984207D0B842C4
:1026200005D0A04203D0A84201D0B04205D1D1F8D4
:1026300004C022F0700242EA0C02984210D0B84264
:102640000ED0A0420CD0A8420AD0B04208D0124C02
:10265000A04205D0114CA04202D0114CA04203D19F
:10266000CC6822F44072224302608A68C2620A88FF
:102670008262984201D109690163416941F0010117
:1026800041610020F0BD0000000001400004004056
:1026900000080040000C00400040014000440140A0
:1026A0000048014008B54FF0E0210A690092421C41
:1026B00000D0401C0A69D20300D5401E0028F9D181
:1026C00008BD000010B504490448FEF73DFA024970
:1026D000491E087010BD0000D1000020BC00002081
:1026E0002DE9F04389B00025069518216846079525
:1026F000FDF7A4FD0420FFF7F5FD8020FFF7F2FDB4
:102700000120FFF7EFFD0220FFF7ECFD564E4FF4DE
:102710000050B061554F41F20301B961DFF85091AB
:10272000CA064FF4C058C9F81820C101B961012484
:102730008DE83100CDE9035469463046FFF744FE89
:102740004FF44040CDE90005694604943046FFF758
:102750003BFE0E20CDE90005694604944846FFF78C
:1027600033FE0320CDE90004CDE902456946384631
:102770000494FFF729FE4FF4E060CDE900056946B7
:1027800004943846FFF720FE200302268DE851000E
:10279000CDE9035469463846FFF716FECDE90084BB
:1027A00002AA694682E870004846FFF70DFE4FF026
:1027B0001008CDE9008402AA694682E87000384614
:1027C000FFF702FE2B490020FFF706FF2A490020F1
:1027D000FFF702FF8DF81C408DF81D50CDF81880D2
:1027E0008DF81E6006A8FFF795FD40208DF81C406F
:1027F00006908DF81D508DF81E6006A8FFF78AFD23
:10280000012210214846FFF7A2FE0122402148463E
:10281000FFF79DFE002210214846FFF785FE0022AB
:1028200040214846FFF780FE144C20680022C0F388
:102830000220114600F0D7F901460A2000F06DFF92
:102840000A2000F05DFF20680022C0F3022011463C
:1028500000F0C9F90146172000F05FFF172000F0D3
:102860004FFF09B0BDE8F0830008024000040240B9
:102870000000024001000F000100000F0CED00E01D
:1028800010B590B028216846FDF7D8FC18210AA899
:10289000FDF7D4FC4FF48050FFF730FD0120FFF727
:1028A00021FDA0200A9002200B9003200024CDE9F6
:1028B0000C040520CDE90E400AA90F48FFF784FD5E
:1028C0004FF48270CDE900404FF40070CDE9044030
:1028D00002942820CDE9060403940A20CDE908409B
:1028E000064C69462046FFF745FE606820F0100060
:1028F000606010B010BD00000000024000300140D8
:102900000E4810B50C4901604FF4827141600021FE
:102910008160C1604FF400720161C0E90512C161BC
:102920000162416281620A21C162FEF7B7FB0028A1
:1029300001D072B6FEE710BD00380040202F002005
:102940000E4810B50C4901604FF4827141600021BE
:102950008160C1604FF400720161C0E90512C1617C
:102960000162416281620A21C162FEF797FB002881
:1029700001D072B6FEE710BD003C0040782F002069
:1029800010B586B014216846FDF758FC0120FFF70A
:10299000B5FC4FF4C860ADF8000000204FF6FF71A1
:1029A000CDE901010C4C0390049069462046FFF7E5
:1029B0002DFE206820F080002060A06844F207010E
:1029C0008843A060606820F070006060A06820F01C
:1029D0008000A06006B010BD0000014010B58AB0B4
:1029E00000242748049405940694079408940994B5
:1029F0000094019402944FF08041039401600421FB
:102A0000C0E901144FF47A41C0E903148461FEF770
:102A100037FD08B172B6FEE74FF48050049004A968
:102A20001748FEF793FD08B172B6FEE71448FEF7AB
:102A300072FF08B172B6FEE7089408A9104809941D
:102A4000FEF7E0FC08B172B6FEE70120CDE90040D8
:102A50000294002269460A480394FEF7D5FE08B1A5
:102A600072B6FEE702200190042269460448FEF790
:102A7000CBFE002801D072B6FEE70AB010BD000000
:102A8000D02F002010B586B014216846FDF7D6FB84
:102A90001548016841F002010160006840F6B83154
:102AA00000F00200059041F6FF00ADF800000020A4
:102AB000CDE901010D4C039069462046FFF7A6FDC4
:102AC000206820F080002060A06844F2070188435D
:102AD000A060606820F070006060A06820F0800056
:102AE000A06006B010BD0000403802400004004065
:102AF00010B58CB024216846FDF7A0FB00241648D1
:102B0000099414490A94C0E90014C821C0E902419B
:102B1000046184610220CDE9000402AB01200C2194
:102B20000F2283E8170006AB83E8070069460A48CE
:102B3000FEF777FD08B172B6FEE7099409A90648C9
:102B40000A94FEF75FFC002801D072B6FEE70CB0D5
:102B500010BD00000008004018300020FEE7000013
:102B600070B5012212A1134802F080FC040016D0B7
:102B70004FF47A7501220EA10E4802F077FC040092
:102B80000DD0012002F06CFA21460BA003F038FDB5
:102B90002846FFF787FD002000F06CFBEAE70020E5
:102BA00002F05EFA2146BDE8704009A003F028BD9E
:102BB0000000000008020020665F6D6F756E7420D3
:102BC0006572726F7220282569290D0A00000000C5
:102BD000665F6D6F756E74204F4B20282569290D37
:102BE0000A000000FEE730B500F00703C3F1070458
:102BF000042C00D90424181D072801D2002300E06A
:102C0000DB1E012505FA04F0401E084098409D4057
:102C10006D1E1540284330BD70470000F0B51A4CBA
:102C2000ADF50D7D4FF47A754FF40056012217492A
:102C3000684602F047FC0746144915A003F0E0FC83
:102C4000394618A003F0DCFC2846FFF72BFD0020D6
:102C500000F010FB002002F003FA207941036846DF
:102C600002F0FAFA8CAB32461349684602F09FFD37
:102C7000010003D011A003F0C3FCD7E7684602F0BF
:102C800051FA0DF50D7DF0BD8C000020382E00208E
:102C9000776F726B2D7472642D20282573290A0DAD
:102CA00000000000665F6F70656E206572726F7263
:102CB00020282569290D0A0074040020665F6765D5
:102CC0007473206572726F7220282569290D0A00BD
:102CD00038B504461248134B0068B0FBF3F04FF4CC
:102CE0007A73584300906068B0F5827F0DD10B462F
:102CF000009200228021204600F032F870B1606D11
:102D000040F020006065032038BD009830B1401EBF
:102D1000009020688068C0430006F6D5002038BDCA
:102D2000B800002000366E0110B50446FEF7F6F834
:102D300001460248C0E9011410BD00000000002057
:102D400010B5FEF7EBF805494A688968801A884291
:102D500001D2012010BD002010BD000000000020A5
:102D60002DE9F8431E46914688460446089DFEF725
:102D7000D5F8401B351AFEF7D1F8074625480068FC
:102D8000C0F3CB30684338E0701C37D0FEF7C6F88C
:102D9000C01BA84203D215B1009860B32CE0206894
:102DA000416821F0E00141606068B0F5827F0BD19D
:102DB000A068B0F5004F02D0B0F5806F04D1206854
:102DC000016821F040010160A06AB0F5005F09D1FF
:102DD0002068016821F4005101602068016841F415
:102DE00000510160012084F85100002084F8500057
:102DF0000320BDE8F8830025401E0090206881680C
:102E000038EA010004D000214945BDD10020F0E797
:102E10000121F9E7B80000207047FEF785B80000EF
:102E20002E4810B5016821F0070141F00201016050
:102E3000016801F007010229FAD12948016821F44B
:102E4000404141F4004101602648016841F480316D
:102E500001600168C1F340410029FAD02149224AAA
:102E6000091D0B68214C23401A430A600A6822F4AA
:102E700040320A60016841F0807101600168C1F36D
:102E800040610029FAD017480830016821F0F001AC
:102E90000160016821F4E05141F480510160016852
:102EA00021F460410160016821F0030141F0020159
:102EB0000160016801F00C010829FAD10C48FFF704
:102EC0009FFB0020FEF752F808B172B6FEE70548F6
:102ED0008C30016821F08071016010BD003C02401F
:102EE0000070004000380240192040000080BFFF01
:102EF0000090D0030248016841F4700101607047FE
:102F000088ED00E00148FEF7AFBD0000D02F0020A3
:102F10000948016911F0010F02D06FF00101016150
:102F2000064A4FF000519161016821F001010160F2
:102F30000348FEF799BD0000000800400008024069
:102F400018300020F0B502681D4B1E4C9F031E4D2B
:102F50001E4E984207D0B84205D0A04203D0A842E6
:102F600001D0B04204D122F0700C4A6842EA0C024F
:102F7000984210D0B8420ED0A0420CD0A8420AD03D
:102F8000B04208D0124CA04205D0124CA04202D050
:102F9000114CA04203D122F44074CA6822434C6908
:102FA00022F08002224302608A68C2620A6882625A
:102FB000984201D10969016301214161F0BD00001E
:102FC000000001400004004000080040000C0040E8
:102FD00000400140004401400048014010B501F0AC
:102FE0001F030121046A99408C430462016A9A40DC
:102FF0001143016210BD10B5846842EA032224F433
:103000007F440A432243826010BD826822F070022E
:103010000A4342F007018160704710B5036A046AF1
:1030200024F001040462846924F0F00444EA0214E8
:1030300023F00A020A438461026210BD70B5046A7B
:1030400024F0010404628469056A124EB0420ED075
:10305000B0F1804F0BD0104EB04208D00F4EB042AE
:1030600005D00F4EB04202D00E4EB04203D124F034
:103070000304144301E044F001041A0724F0F004AF
:1030800044EA126225F00A0301F00A011943826141
:10309000016270BD000001400004004000080040D3
:1030A000000C00400040014010B5036A23F01003FB
:1030B00003628369046A23F4704343EA023224F012
:1030C000A00343EA01118261016210BD30B5046AB8
:1030D00024F0100404628469056A24F4407444EA0C
:1030E000022222F470444FF6FF7202EA03322243B6
:1030F000A02425F0A00304EA0111194382610162B2
:1031000030BD000070B5044600680169E26821F432
:103110004051114301612169A068E2690843616976
:10312000114308432168CA6849F20C639A43024379
:10313000CA6020684169A26921F44071114341616C
:1031400031492068884202D03049884202D1FDF7D7
:1031500095FF01E0FDF782FFE26900231921642554
:103160003226B2F5004F626828D0A0FB0101930F10
:103170009200FDF72BF80146B0FBF5F06FF0180256
:10318000504301EB800006EB0010B0FBF5F000F0BF
:10319000F002B1FBF5F002EB0012B1FBF5F06FF0BD
:1031A0001803584301EB800006EB0010B0FBF5F06C
:1031B00000F00F0021681044886070BDA0FB010181
:1031C00092185B41FDF702F80146B0FBF5F00201F1
:1031D000B1FBF5F06FF01803584301EB800006EBEC
:1031E000C000B0FBF5F000F0F80002EB4002B1FBCC
:1031F000F5F0584301EB800006EBC000B0FBF5F0A2
:1032000000F00700D6E70000001001400014014064
:103210002DE9F041984617460E460446069D1DE0EE
:10322000681C1BD02DB1FDF779FEA0EB0800A84269
:1032300014D92068C16821F4D071C1602068416947
:1032400021F001014161202084F83D0084F83E0016
:10325000002084F83C000320BDE8F081206800686D
:1032600036EA000004D00020B842D9D00020F3E7AD
:103270000120F9E72DE9F84310B10120BDE8F883FA
:10328000464D287880077CD4DFF81481D8F80000F8
:10329000016821F0380101600A24FF2003F084FE58
:1032A000641E14F0FF04F8D100263146304603F0C6
:1032B00085FB01285DD14FF47A70FFF735FD4FF49F
:1032C000D571082003F07AFB012808D00021A9203D
:1032D00003F074FB012837D80226A92436E06F4694
:1032E000FF2003F061FE3855641CE4B2042CF7D3D0
:1032F0009DF8020001283CD19DF80300AA2838D18E
:103300005FEA4074FFF71CFD28B12146A92003F0B5
:1033100055FB0028F6D1FFF713FD50B300213A20EA
:1033200003F04CFB28BB0024FF2003F03DFE385582
:10333000641CE4B2042CF7D39DF80000400601D5CC
:103340000C2616E0042614E001263446FFF7F8FCAC
:1033500028B10021204603F031FB0028F6D1FFF709
:10336000EFFC28B14FF40071102003F027FB00B1EF
:1033700000266E7001F000FB5EB1D8F80000016815
:1033800000E008E021F038010160287820F0010019
:1033900000E001202870287870E70000000000207D
:1033A000202F00207FB51446030002D0042004B073
:1033B00070BD6C4E3078C00701D00320F7E70125BF
:1033C00061B101290DD067480329407848D004290C
:1033D0007ED0042501F0D0FA2846E8E703F048FC47
:1033E000BBE00021092003F0E9FA0028F2D1102106
:1033F000684603F015FA0028ECD09DF80010012073
:10340000B0EB911F0CD19DF809109DF8082001EB3D
:1034100002229DF8071000EB0140104480021DE0DD
:103420009DF805009DF80A1000F00F0000EBD11088
:103430009DF809109DF8072001F0030100EB410100
:103440009DF80800800900EB82009DF8062002F03C
:10345000030200EB8220401CC91F3EE020607EE09A
:1034600040074FF000011AD58D2003F0A7FA00287D
:10347000B0D1FF2003F098FD1021684603F0D0F989
:103480000028A7D03025FF2003F08EFD6D1E15F01B
:10349000FF05F8D19DF80A00010910201DE0092060
:1034A00003F08CFA002895D11021684603F0B8F992
:1034B00000288FD07078800711D59DF80A009DF8FC
:1034C0000B108006400E00EBD1109DF80D1000E0AF
:1034D00014E0FF2202EB9111401C8840BEE79DF8EA
:1034E0000B008107C90E01EB50109DF80A10401C1B
:1034F000C1F38401491C10FB01F0AFE710F0060F87
:10350000BFD06A460B211846FFF74CFF0028AFD109
:103510009DF80000800904D19DF80A0040067FF55F
:1035200059AFD4E900147078000701D4490264024D
:10353000202003F043FA00289AD12146212003F0ED
:103540003DFA002894D10021262003F037FA002804
:103550008ED147F2305003F013FD002891D00025A2
:1035600038E700000000002070B51C460D4630B959
:103570002CB11C480178C90703D0032070BD04207A
:1035800070BD4078000700D452024FF40076012C41
:10359000114604D0122003F011FA60B118E0112096
:1035A00003F00CFAC0B93146284603F039F998B156
:1035B00001F0E2F914E03146284603F031F918B180
:1035C000641E05F50075F6D100210C2003F0F6F914
:1035D00001F0D2F914B903E001F0CEF9012070BD79
:1035E000002070BD0000002008B101207047014894
:1035F000007870470000002070B51C4615460E4646
:1036000030B92CB122490878C00703D0032070BD1F
:10361000042070BD0878400701D5022070BD4878AD
:10362000010700D45502012C0CD010F0060F03D076
:103630001946972003F0C2F92946192003F0BEF974
:1036400068B11AE02946182003F0B8F9D0B9FE2174
:10365000304603F0B9FCA8B101F08EF915E0FC2169
:10366000304603F0B1FC18B1641E06F50076F6D1C1
:10367000FD21002003F0A8FC20B101F07DF924B168
:10368000012070BD01F078F9FAE7002070BD00005C
:1036900000000020FFF7EEBDFFF784BEFFF764BF18
:1036A000FFF7A2BFFFF7A8BFFEE700000FB4084B6B
:1036B00010B504A902AA039800F020F9044602A953
:1036C000002000F0BDFC204610BC5DF814FB00009B
:1036D000414000087CB5044600201D4616460029DE
:1036E0000BD0491ECDE90041044B6A4629463046BD
:1036F00000F004F9009A002111707CBD2B400008F5
:10370000002809DB00F01F020121914040098000E0
:1037100000F1E020C0F8001170470907090E0028E9
:1037200004DB00F1E02080F80014704700F00F0087
:1037300000F1E02080F8141D70470907090E0028E9
:1037400004DB00F1E02080F80014704700F00F0067
:1037500000F1E02080F8141D704702E008C8121F35
:1037600008C1002AFAD170477047002001E001C16A
:10377000121F002AFBD170472DE9FF5F82B00021A4
:10378000DDE90430020DDDF840B0034318D044F603
:103790001050A2F2FF3242431514119801281FD095
:1037A000A5EB0B00401C5FEA000A4FF000064E4FED
:1037B000DFF83891B046504615D5CAF1000413E041
:1037C000119801244AA3012801D16FEA0B01029844
:1037D000119AC0E90031C0E9024206B0BDE8F09F8D
:1037E000CBF10000DFE704460021404A491842EBD4
:1037F0000450CDE9001012E0E00707D032463B4606
:1038000040464946FCF747FE8046894632463B46DD
:1038100010461946FCF73FFE06460F466410002C82
:10382000EAD1DDE90401DDE90023BAF1000F06DA8F
:10383000FCF731FE42464B46FCF72DFE05E0FCF757
:103840009CFE42464B46FCF798FE04460E4600227C
:10385000284BFCF719FF03D84FF0FF30014607E073
:103860000022254B20463146FCF76EFDFCF7F4FEA6
:10387000102409E0002C0ADB0A220023FCF7A6FC36
:10388000039B30321A55641E50EA0102F2D1641CC7
:10389000039AC4F111031444119A012A03D001229E
:1038A00008430DD10AE0084304D000204FF0110B6B
:1038B000119072E7A3EB0B056D1E0DE05B4504DD77
:1038C0004FF0000205F1010504E003DA4FF00002B9
:1038D000A5F10105002AECD002981199C0E9023146
:1038E000C0E9004579E70000000014400000F03F07
:1038F000300000000000F0430000E03F2DE9FF4FE2
:1039000095B09B468946064600250FE2252877D1CB
:1039100000242746F84A0121059400E0044316F8E4
:10392000013F203B01FA03F01042F7D130782A28FA
:1039300011D06FF02F033078A0F13002092A16D889
:10394000059A44F0020402EB820203EB42021044A7
:10395000761C0590EFE759F8042B0592002A03DA4C
:10396000504244F40054059044F00204761C307830
:103970002E2816D116F8010F44F004042A280DD081
:103980006FF02F023078A0F13003092B09D807EB34
:10399000870302EB4303C718761CF3E759F8047B4F
:1039A000761C30786C280FD006DC4C2817D068289D
:1039B0000DD06A2814D104E0742810D07A280FD1D1
:1039C0000DE044F400140AE044F4801401E044F4EF
:1039D00040147278824202D104F58014761C761C61
:1039E000307866280BD013DC582877D009DC002803
:1039F00075D04528F6D04628F4D047281AD19DE145
:103A000018E0632835D0642879D0652812D195E173
:103A1000702873D008DC6728F1D069286FD06E2831
:103A20000DD06F2806D1B5E073282CD0752875D03D
:103A3000782874D05A46179990476D1C75E1C4F3E5
:103A40000250022809D003280DD0D9F8001004280C
:103A50000DD00D6009F1040967E1D9F80010EA17EB
:103A6000C1E90052F6E7D9F800100D80F2E70D70B9
:103A7000F0E719F8041B8DF8001000208DF8010004
:103A8000EA46012003E059F804AB4FF0FF3061072C
:103A90004FF0000102D40DE008F101018846B9425F
:103AA0000FDA8045F8DB1AF808100029F4D108E095
:103AB00008F1010188468142FADB1AF80810002952
:103AC000F6D105985B46A0EB080721463846179AC1
:103AD00000F094FA284400EB080507E04DE029E1E6
:103AE0000DE01AF8010B5A4617999047B8F10108F2
:103AF000F7D25B4621463846179A13E142E00A2284
:103B00000092C4F302524FF0000A022A08D059F87A
:103B100004CB032A4FEAEC710AD00DE029E02AE039
:103B200009F1070121F00702F2E802C1914609E01C
:103B30000FFA8CFC4FEAEC71042A03D14FFA8CFC8B
:103B40004FEAEC71002907DA0A460021DCF1000C8B
:103B500061EB02012D2202E0220504D52B228DF813
:103B60000420012203E0E20701D02022F7E790467B
:103B700059E00A2102E010220DE010214FF0000A66
:103B800000910BE010224FF0000A44F004040827D3
:103B9000009203E008224FF0000A0092C4F30252A0
:103BA000022A05D059F804CB0021032A08D009E0E5
:103BB00009F1070121F00702F2E802C1914605E090
:103BC0001FFA8CFC042A01D10CF0FF0C4FF0000806
:103BD000220728D5702806D0009B83F0100353EAF3
:103BE0000A0305D00EE040228DF80420012208E0EF
:103BF0005CEA010206D030228DF804208DF8050021
:103C000002229046009B83F0080353EA0A030AD17C
:103C10005CEA010201D1620705D530228DF804204B
:103C20004FF001087F1E582804D034A003900EA83E
:103C300002900DE036A0F9E753466046009AFCF783
:103C4000C5FA84460398825C0298401E0290027076
:103C50005CEA0100F0D1029806A9081A00F1200AD6
:103C6000600702D524F4803400E00127574502DDC7
:103C7000A7EB0A0000E0002000EB0A010090059885
:103C80004144401A0590E00306D45B462146179A4A
:103C9000059800F0B3F90544002706E001A85A464C
:103CA000C05D179990476D1C7F1C4745F6DBE0030C
:103CB0000CD55B462146179A059800F09FF90544FC
:103CC00004E030205A46179990476D1C0099481E11
:103CD00000900029F5DC08E0029802995A46007825
:103CE000491C0291179990476D1CBAF10001AAF185
:103CF000010AF1DC65E100000928010030313233AE
:103D00003435363738396162636465660000000017
:103D10003031323334353637383941424344454601
:103D20000000000000F058F90544761C30780028A7
:103D30007FF4ECAD19B02846BDE8F08F620700D4DF
:103D4000062709F1070222F0070CFCE80223E146EE
:103D500003F000485FEA080C02D00FF2702C0DE06F
:103D60005FEA045C02D50FF2682C07E05FEAC47CCE
:103D700002D00FF2602C01E0AFF2700C4FF0FF3870
:103D800023F00043CDF850C065280CD006DC452850
:103D900009D046281DD047283DD13DE0662818D0DF
:103DA00067287ED138E00021112F01DB112000E0CF
:103DB000781CCDE9000106A90EA8FFF7DDFCDDE9BE
:103DC0000F010E9A03910021009207F1010A04915C
:103DD0004DE04FF000400097CDE9011006A90EA874
:103DE000FFF7CAFCDDE90F0203920E9B1199002236
:103DF000DDF80CA00093049211B9791C00EB010AC4
:103E0000B7EB0A0004D4C0F1FF3007F1010A0490B7
:103E1000AAEB0700019044E0012F00DA01270021FE
:103E2000112F01DD112000E03846CDE9000106A97F
:103E30000EA8FFF7A1FCDDE90F010E9A0391002106
:103E400004910092BA4621070CD40399514500DA37
:103E50008A46BAF1010F05DD009AAAF10101515C11
:103E6000302908D0B84202DA10F1040F06DA012135
:103E7000CDE9011015E0AAF10101E9E7002805DC10
:103E8000049901440491AAEB000102E0411C514550
:103E900000DD8A460499401A401C01904FF0004012
:103EA0000290200704D40198504501DBCDF804802E
:103EB00000208DF84F0002980DF14F07B0F1004F30
:103EC00025D02B200E9002984FF0020800280CDA23
:103ED000404202902D200E9007E00A210298FCF744
:103EE000FEF93031029007F8011DB8F10001A8F188
:103EF0000108F2DC02980028EFD1791E0E980870B4
:103F0000307800F0200040F0450007F8020D12A8BC
:103F1000C01B00F107081498007800B1012000EBE5
:103F20000A01019801EBE07105984144401A401ED6
:103F30000590E00306D45B462146179A059800F0E9
:103F40005DF805441498007818B15A4617999047BF
:103F50006D1CE00324D55B462146179A059800F0B6
:103F60004DF805441CE00498002807DBDDE9030157
:103F7000884203DD0098405C179901E017993020D2
:103F80005A469047049805F10105401C0490019899
:103F9000401E019004D12E205A46179990476D1C5F
:103FA000BAF10001AAF1010ADDDC05E017F8010B06
:103FB0005A46179990476D1CB8F10001A8F1010805
:103FC000F4DC5B462146179A0598ABE62D0000000D
:103FD0002B000000200000002DE9F04104460025E0
:103FE0001E461746880404D405E039462020B04711
:103FF0006D1C641EF9D52846BDE8F0812DE9F0411D
:10400000044600251E469046C80301D5302700E02F
:104010002027880404D505E041463846B0476D1C8A
:10402000641EF9D52846BDE8F0814A68002A06D00A
:104030000A68531C0B6010704868401E4860704747
:104040000A68531C0B601070704700002DE9F041A6
:10405000544C86B000266670A670B4F90C20B4F9F2
:104060000610A2F10B00814200DAE080B4F90600EC
:10407000904200DDE280B4F90600012800DAE68013
:10408000B4F906000025002800DD012546A103A89B
:10409000FFF70CFB4FF6E070CDE90106444803AA98
:1040A00041680091036840F233112D20FEF7BDF8FE
:1040B000207948B16079B4F90610884204D102F041
:1040C000B3FE06B0BDE8F08101202071A0796071D7
:1040D000384801F03BF837493648E83901F012FB1F
:1040E000344935A0E83902F08BFA20782189C8429A
:1040F00003D1384600F008FFE3E7344F1020E070AA
:1041000007F1160831492B4801F0FAFBF0B9BA7DE6
:10411000E2B1617805F10B00814217D02078A378D5
:10412000984213D397F808C040465FEACC6CE9D5B3
:104130002E2AE7D05B1CDAB2A270B4F906309A429C
:10414000E0DB491C617000F0DFFEDBE7E670194838
:1041500000F0FCFF174A1EA3E83A1C49154801F07D
:1041600006F80B3515E06178A94216D040462E2A94
:104170000BD0A278521CD2B2A270B4F906309A4287
:1041800003DB491C617000F0BFFE1049094800F0D4
:10419000FEFF10B9BA7D002AE5D1064800F0D6FF2F
:1041A0008FE700002000002025692020200000006B
:1041B00014000020D00100206F70656E5F6469728A
:1041C0002020282573290D0A000000003C0400204F
:1041D0002A2E7472640000002DE9F05F914C0025D6
:1041E000914EA570257365712571DFF84082657069
:1041F0004FF48047357039464046FEF787F9DFF8BF
:1042000030A2DFF830B228B179004046FEF77EF9DF
:1042100000287BD1B94647464FF400484946384606
:10422000FEF774F928B941463846FEF76FF90028C1
:10423000F4D04FF480413846FEF768F900B9E574D0
:104240004FF400417948FEF761F94FF0010820B1C1
:10425000E07CE8B3012802D017E084F8138076A14F
:104260007748FCF715F8002850D076496E48FCF7DF
:104270001DF875A16C48FBF7ECFF71496A48FBF724
:10428000E8FF84F8138084F812806748FBF7F9FF91
:104290006549A94608444570FEF7C0FC5046CAF877
:1042A0002450DAF8001041F00101CAF800104FF470
:1042B0009677416AB942FCD300214162C16841F05E
:1042C0000101C1600021CBF82410DBF8001000E0F0
:1042D00007E041F00101CBF800104FF48046534D48
:1042E00082E055A15948FBF7D3FF00280ED058496A
:1042F0004D48FBF7DBFF54A14B48FBF7AAFF53499E
:104300004948FBF7A6FFE574A574BEE779E031469E
:104310002846FEF7FBF830B94FF400412846FEF777
:10432000F5F80028F3D031462846FEF7EFF808B933
:1043300084F813904FF400412846FEF7E7F808B9D7
:1043400084F81380E07CA17C884238D098B9404939
:104350003548FBF7ABFF3CA13348FBF77AFF3B49FD
:104360003148FBF776FF20796072207BE071207A7C
:104370002071A0792073E07C012813D131492A48AB
:10438000FBF794FF30A12848FBF763FF2C49264830
:10439000FBF75FFF20792072207BA071607A20718B
:1043A000E0792073E07CA0741F48FBF76AFF1E4988
:1043B000014481F8019084F80590FEF72FFC2079E4
:1043C000217B884206D05A46506AB842FCD32171FC
:1043D000FEF724FC4FF480611E48FEF797F8F0B119
:1043E00084F8029002F068FB31462846FEF78EF80A
:1043F00000288CD04FF400412846FEF787F80028AB
:1044000085D0DAF8001021F00101CAF80010DBF8BD
:10441000001021F00101CBF80010BDE8F09F84F8F6
:104420000280DFE78C000020382E002000080240C8
:1044300000040040000001406E6F206469736B004F
:104440006E0000206A0100202F00000050000020B4
:10445000060100200004024010B504460020E07070
:10446000401E2063204602F0B2F808B1042010BDBF
:1044700004F2322001F03AFFA0F52A41553901D06B
:10448000032010BD94F83400E92805D0EB2814D19E
:1044900094F83600902810D104F16A0001F01BFF57
:1044A0000749B1EB002F06D004F1860001F013FF9D
:1044B0000449884201D1002010BD022010BD000037
:1044C000004641544641543300E0401C02780AB192
:1044D0008A42FAD1D0B27047F0B50022144D13468B
:1044E00005EB021426685EB10768BE4209D1666812
:1044F0008768BE4205D1A4684669B44204D000E092
:104500000123521C022AEBD3022A01D069B904E02C
:104510004BB9022907D01220F0BD05EB02108089AB
:10452000B0F5807F01D00020F0BD1020F0BD00006C
:10453000B030002030B50021054B0C4603EB0112D2
:104540001568854200D11460491C0229F6D330BD9C
:10455000B03000200268490AC06A5289B1FBF2F10A
:10456000001D04C81AB1914203D3891AF8E700204C
:1045700070470068084470478269891E921E8A420B
:1045800001D800207047C26A408901FB00207047B3
:104590002DE9F05F82460C4601F11A0001F0A6FEFB
:1045A00078BB2078012700F03F00401E00EB80011F
:1045B000DFF8589001EBC00500264FF6FF7B00BFE7
:1045C00019F80600204401F091FE80466FB11E2DBF
:1045D00017D201F0F5FA07463AF815006D1C01F004
:1045E000EFFA87420DD1474601E0D84509D1761C44
:1045F0000D2EE5D32078400606D52FB13AF81500E8
:1046000010B10020BDE8F09F0120FBE7EC9400080A
:1046100038B514A0144C0068009020798DF8000083
:10462000A0788DF8010060794BF23022401C8DF8A3
:1046300002000421684600F01BF8010AE1732074AF
:104640006079A178000200EB013008494EF2952212
:1046500008444FF4807100F00BF8010A6173A073F5
:1046600038BD0000000000018C0000207404002010
:1046700030B50023074C09E010F8015B5B1C85EAAC
:10468000122534F8155085EA022292B28B42F3D3F8
:10469000104630BD649200082DE9F04105680F0016
:1046A000804606D001F0D0FC022809D20120BDE8E6
:1046B000F0812E6916B1A869B04207D8012605E03D
:1046C000411CF4D0A9698142F1D83E463446A8691C
:1046D000641CA04202D80224022E0AD3214640467E
:1046E00001F0B2FC38B10128E1D0411CDFD0B44266
:1046F000EDD10020DBE74FF0FF3632462146284659
:1047000002F018F830B957B122463946284602F06F
:1047100011F820B101280FD001242046C7E72C61F1
:10472000D5E90501891E884201D8401E68612879B3
:1047300040F001002871F0E73446EEE72DE9F84F2C
:10474000824600680E680024C76888462546705D6A
:104750006D1C20281AD32F2813D05C2811D01E2CB2
:1047600039D2012101F00CFA5FEA000933D0B9F126
:10477000800F12D201466DA0FFF7A6FE58BB0CE0D9
:104780006D1C715D2F29FBD05C29F9D07219C8F816
:104790000020202805D204250FE027F81490641C7F
:1047A000D5E7002509E000BF07EB440030F8020C14
:1047B000202801D02E2802D1641E002CF4D1002024
:1047C00027F814003CB10B2220210AF1240001F04B
:1047D000F7FE002603E00620BDE8F88F761C37F8C8
:1047E00016002028FAD02E28F8D01EB145F0030577
:1047F00000E0641E2CB107EB440030F8020C2E28B8
:10480000F7D14FF000094FF0080BCDF8009000BF32
:1048100037F8160006F101065FEA000824D0B8F167
:10482000200F04D0B8F12E0F04D1A64202D045F0DB
:104830000305EDE70098584501D2A64219D1BBF116
:104840000B0F0FD0A64201D045F003050CD84FF056
:10485000080000904FEA896026464FF00B0B4FEAA4
:104860001069D5E745F003059AF82400E52838D00B
:104870003AE04046B8F1800F10D3002101F080F9F2
:104880005FEA000805D02C4901EB080010F8800C05
:10489000804645F00205B8F1000F04D0014627A07C
:1048A000FFF712FE20B14FF05F0845F003050FE05F
:1048B000A8F14100192802D849F0020908E0A8F13E
:1048C0006100192804D8413049F001091FFA80F825
:1048D000009A0AEB020181F824800098401C0090A5
:1048E00096E705218AF82410BBF1080F03D14FEA9F
:1048F00089604FEA1069C9F38100032803D06FEA89
:104900000901890701D145F00205A90709D409F079
:104910000301012901D145F01005012801D145F01D
:1049200008058AF82F50002056E70000222A3A3C5A
:104930003E3F7C7F000000006C9400082B2C3B3D28
:104940005B5D0000401E022812D20A4901EB0011F3
:104950008889B0F5807F05D008B1401E80B288817B
:1049600010B103E00020FAE7002008600020704743
:1049700002207047B030002003494FF48050886116
:10498000FF2002F011BB0000000402402DE9F041BD
:104990000F4604460021066800F02AFA88B900256F
:1049A0003046E16901F013FE58B9216A0978E5291A
:1049B0000CD059B100250121204600F073F80028E1
:1049C000EED0042800D10720BDE8F0816D1CBD4267
:1049D000F1D1F9E72DE9F04704460021D0F8009025
:1049E00000F006FA00285BD1FF25471EA846276382
:1049F0004846E16901F0EBFD060050D1216A0878D4
:104A000050B1CA7AE52802F03F02A2713FD01307E5
:104A100004D50F2A3BD105E0042640E00F2A01D03F
:104A2000E5B120E094F82F20520632D4420606D594
:104A300091F80D8000F0BF00626905462263A8422C
:104A400009D14A7B424506D1D9F80C00FFF7A0FDF9
:104A500008B16D1E00E0FF25EDB21AE0084602F035
:104A600067F940451BD094F82F00C0070FD1D4F848
:104A7000201004F124000B2211F8013B10F8015B17
:104A80005B1B521E02D0002BF6D000E03BB1FF258D
:104A900027630021204600F005F80600A8D0304624
:104AA000BDE8F0872DE9F047054647690468C0690D
:104AB0008946203710B1B7F5001F02D30420BDE8A6
:104AC000F087F90560D1401CE861A9694FF0000842
:104AD00029B16089401E10EA572F05D054E0208983
:104AE000B0EB571F1DD94FE0284601F0ADFA06463E
:104AF00001281BD9701C33D0A069B0423ED8B9F14F
:104B0000000F0ED02846A969FFF7C6FD06000BD09E
:104B1000012E0BD0701C23D0204602F05BF9F8B9AF
:104B200006E0C5F81C80C9E70720C8E70220C6E7F1
:104B30004FF40072002104F1340001F041FD4FF008
:104B4000000831462046FFF717FD4FF001092063AA
:104B50000DE000BF84F80390204602F03BF908B155
:104B60000120ACE7206B08F10108401C206361893B
:104B70004145EFD8216BA1EB080020633146204668
:104B8000AE61FFF7F9FCE861C7F308002044343058
:104B90006F612862002092E72DE9F0470426FF2488
:104BA000894605462746D0F8008047E0404601F098
:104BB0000EFD060046D1296A087880B1CA7AE52838
:104BC00002F03F02AA7108D02E2806D022F020035E
:104BD000082B06D0B446CC4506D0FF241EE00426A0
:104BE00030E04FF0010CF6E70F2A01D014BB1CE0B7
:104BF000420605D54F7B00F0BF006A6904462A6370
:104C0000A04209D1487BB84206D1D8F80C0001F087
:104C100057FD08B1641E00E0FF24E4B200212846DD
:104C2000FFF740FF060009D00CE0084602F080F8CC
:104C3000B84209D04FF0FF30286305E0E969002948
:104C4000B4D10EB10020E8613046BDE8F087000025
:104C50002DE9F04F0446D0F8009090F82F0089B06D
:104C600010F0A00F03D0062009B0BDE8F08F00259A
:104C7000D9F80C0000E06D1C30F815100029FAD1AD
:104C800004F124010C226846039101F08FFC9DF889
:104C90000B00C00719D0402084F82F0001263346AE
:104CA0006946D9F80C20039801F056F92046FFF721
:104CB00091FE10B9761C642EF1D3642E0FD0042817
:104CC000D2D19DF80B0084F82F009DF80B008007CF
:104CD00007D50D200C35B5FBF0F6761C02E0072059
:104CE000C2E7012631462046FFF750FE05007BD182
:104CF000761E05965FD06169704201EB4011204637
:104D000000F076F805006FD1039802F011F84FF625
:104D1000FF7B07904846E16901F059FC050063D12B
:104D2000D9F80C0006900598D4F82080C0B2049001
:104D3000079988F80D100F2188F80B10002188F8CA
:104D40000C1008F11A0001F0C5FF0498DFF89CA0D0
:104D5000401E00EB800101EBC006002701E05D452D
:104D600003D0069830F81650761C1AF8070029462A
:104D7000404401F0AFFF05B95D467F1C0D2FEED317
:104D80005D4505D0069830F8160008B1049803E098
:104D9000049840F04000049088F80000012089F851
:104DA000030000212046FFF77DFE05001CD1059879
:104DB000401E0590AED14846E16901F008FC0500AF
:104DC00012D120220021206A01F0FAFB0B22206A76
:104DD000039901F0EBFB94F82F00216A00F0180012
:104DE0000873012089F8030028463DE7EC94000889
:104DF0002DE9F04107680E460546B1F5001F36D291
:104E0000F00634D16E61AC6824B93878032805D334
:104E1000BC6A1CB178894FEA402812E03889B0EBAF
:104E2000561F24D9B86A12E0284601F00DF904464D
:104E3000401C1AD0022C1AD3B869A04217D9A6EB8D
:104E4000080646452146EFD23846FFF795FBC5E9EF
:104E5000064060B100EB5620E861C6F30800384414
:104E6000343028620020BDE8F0810120FBE70220F9
:104E7000F9E70000084910B50B5C002253B9012284
:104E80000A540A1801EB8000127A40680168104643
:104E900088470246104610BDD030002030B4054C83
:104EA000231804EB80001B7A406804691846A44666
:104EB00030BC6047D030002030B4054D2C1805EBD5
:104EC0008000247A406885682046AC4630BC604744
:104ED000D0300020044A111802EB8000097A4068A3
:104EE0004268084610470000D030002030B4054D1D
:104EF0002C1805EB8000247A4068C5682046AC4633
:104F000030BC6047D03000202DE9F04F89B0834697
:104F1000182103A8FBF792F95846FBF7B2F9C0B283
:104F2000172800D91720444EC0F11700C4B2B6F9B3
:104F30000600002803DD7078401EC5B200E07578D9
:104F40001722594603A8FBF790F905E03BA103A8F7
:104F5000FBF77FF9641EE4B2002CF7D1B046F0886D
:104F6000374C4FF6FF761F2770B9B8F90C0030B3F5
:104F70000C2809DACDE901676068009031A23C2174
:104F800002202368FDF751F998F80010B8F80820BE
:104F90004046D1424CD08178B8F90C00C1464FF65A
:104FA000E07A4FF03C08814220D123485946123024
:104FB000FBF77CF999F80300102803D00FE0CDE946
:104FC0000176D9E7CDE901A66068009005EB85017F
:104FD00008EB810103AA02202368FDF726F999F85E
:104FE0000300002824D1CDE9017616E099F80300EA
:104FF00010280CD1CDE901A76068009005EB850170
:1050000008EB810103AA02202368FDF70EF999F845
:10501000030000280CD1CDE901676068009005EB22
:10502000850108EB810103AA02202368FDF7FDF842
:1050300009B0BDE8F08F0000200000202000000033
:105040000C0000202E2E2020202020202020202098
:1050500020202020202020202020202000000000D0
:105060003EB5134AD2E9003188B100224FF47844AA
:10507000032812D0022815D0012807D10091CDE9CC
:1050800001420CA200210846FDF7CFF83EBD1F20CB
:1050900001900FA200910290F4E70091CDE9014246
:1050A00012A2EFE70091CDE9014217A2EAE7000062
:1050B0000C000020202020202020204E4F20534490
:1050C0002043617264202020202020200000000066
:1050D00020202020202020202020202020202020D0
:1050E0002020202020202020000000002020202040
:1050F0002020204E4F2053442020202020202020FC
:105100002020202000000000202020202020204EF1
:105110004F2053442052454144203030202020204D
:105120000000000038B5044600F01CFC00280CD13B
:105130006946204601F00AFF002806D12069FFF7E2
:1051400001FC002801D10021216038BD38B504469A
:10515000694601F0FBFE002808D1216921B108460B
:10516000FFF7F0FB002801D10021216038BD70B5A8
:105170000D4604461146436300F0C4FA002805D1E9
:1051800029462046BDE8704000F001B870BD2DE909
:10519000F0410C46074601F116052146384600F05D
:1051A000AFFB06000AD14CB1A07D38B100231A46EE
:1051B0002946786B01F03CFA0028EED03046BDE875
:1051C000F081F7B590B017460D4600220EA910A841
:1051D00000F036FD040038D10DB30E980026009083
:1051E000314602966846FFF703FE040005D101210F
:1051F0006846FFF7D1FC040002D0042C10D024E054
:1052000000200146089A525C2A54401C491C0B2875
:10521000F8D32E5418B1401E295C2029F9D001E0A2
:105220002E7000248FB10E98016A01F0D0F90400AD
:105230000BD10E99087803280CD0042808D0272019
:105240000844343001F047F8386013B02046F0BD10
:105250006420F5E74320F3E72DE9FE4F0D460446B1
:10526000694601F073FE070064D1677D002FFBD112
:10527000E06A4FF0020A4FF0010804F1300B0028F9
:105280006AD0691C29D0E068A84200D20546A56111
:10529000002D4FD02046691EFFF75CF90146E06102
:1052A0000098FFF769F9002875D000996D1E4A89AA
:1052B000521E02EA55221518208BC005E9D0226A39
:1052C000AA42E6D0207D00063BD548780123594606
:1052D000FFF70CFE00286ED12FE002C80191A168F3
:1052E00083460225F1B10026AD1C02918946204675
:1052F000761C00F0A9FE014601284CD9481C5AD062
:1053000009F101008142F1D00198854206D8CBF81D
:1053100000600BF10400029A04C083460098806983
:105320008842E0D8E06A05600198854203D80021F0
:10533000CBF8001097E0112795E0207D00F07F006A
:105340002075009801232A4640785946FFF7B4FD9E
:10535000002830D1256286E0E068A84203D2217D92
:10536000890700D405464FF00009A069C4F81890D9
:1053700005B3009949894E0270B1691EB1FBF6F27E
:10538000401EB0FBF6F18A4206D3711E8843A0612D
:105390002D1AE1690DE04FE0A16849B900212046CE
:1053A000FFF77AF90146012846D0481C55D0A16084
:1053B000E161D9B927E050E0A069AD1B3044A0619C
:1053C000207D8007204605D5FFF766F9010004D14E
:1053D00000250DE000F038FE0146481C3DD00129B3
:1053E0002AD900988069884226D9E161B542E3D87C
:1053F000A0692844A061E80505D00098FFF7BCF833
:10540000D0B100EB5529E168A069884204D9E06079
:10541000217D41F040012175C00524D0226A4A4512
:1054200021D0207D000610D50098012359464078F0
:10543000FFF75CFD88B904E084F815A00220BDE800
:10544000FE8F207D00F07F002075009801234A46E2
:1054500040785946FFF730FD18B184F815800120D7
:10546000EDE7C4F820903846E9E700002DE9F74160
:1054700081B0904602980090684600F0BAFE0400A1
:1054800003D50B2004B0BDE8F0810D4E002756F87F
:1054900024501DB12846FFF74DF82F7001980028C1
:1054A00000D0077046F8240002D0B8F1010F01D0F7
:1054B0000020E7E7002201A902A800F0C1FBE1E714
:1054C000DC0000202DE9F74795B005000BD002F075
:1054D0003F063246694616A800F0B2FB04004FF0C2
:1054E000000904D001E1092018B0BDE8F087009858
:1054F00001903E2000F060FB5FEA000809D00099AF
:1055000001A8C1F80C80169900F0C4FC040002D078
:1055100010E01120E8E79DF83300000601D50624CD
:1055200008E0700801D0012100E0002101A8FEF789
:10553000D3FF044616F01C0F5FD04FF0010AC4B130
:10554000042C10D100206E4902E0401C022804D235
:1055500001EB00121268002AF7D1022807D001A837
:10556000FFF776FB044646F008066CB1A4E012246F
:10557000A2E09DF80A0010F0110F01D007249BE073
:10558000700701D50824ADE0300745D500F0BBFD1C
:105590000746099839460E3001F094FB09983946C0
:1055A000163001F08FFB09992020C87209990098E4
:1055B00000F07EFE074600220999009801F06EFB7C
:1055C000099800211C3001F07DFB009880F803A0B1
:1055D00007B3D0F830A00022394601A801F047F9FE
:1055E000040069D15146009800F0F1FF04000098D2
:1055F000A7F1010707610BD05EE0ECBB9DF80A0044
:10560000C10601D5042457E0B10701D5C007B5D1C3
:10561000300701D546F040060098006B6862099893
:10562000A862700801D0012100E0002101A800F06B
:10563000FFFD286158B30999009800F039FEA86071
:1056400009981C3000F047FEC5F82C90E8600099DE
:105650002960009905F130004FF40072C988A980D3
:105660002E7585F81590C5F8209000218246C5F862
:10567000189000F0A5FF00E01EE0B0063CD5EE68F3
:10568000BEB3AE610098A9684089470210E00224C9
:1056900012E0284600F0D8FC0146012800D8022478
:1056A000481C02D0F61B1CB104E00124F61B01E0EB
:1056B000BE42EED8E96124B1404600F07FFAA4B9B9
:1056C00015E0F00518D00098FEF756FF90B100EBFA
:1056D00056222A620098012351464078FFF7ECFBDE
:1056E00038B10124404600F069FAC5F80090204620
:1056F000FAE601E00224F5E7404600F05FFAF6E73B
:10570000B0300020F3B581B0040009D00022694612
:1057100002A800F095FA05004FF0000702D043E020
:105720000920FEBD00993E20216000F045FA0600E8
:1057300008D00098C6602046029900F0ABFB050037
:1057400002D016E01120FEBD94F82F00000607D409
:10575000A079C00613D5216A009800F0A9FDA060C9
:105760000098C188A18020460021FFF741FB050079
:1057700007D0304600F022FA042D14D014E005259D
:1057800008E0A06850B10021204600F051FD2061E2
:1057900028B91225304600F011FA05E0276130469D
:1057A00000F00CFA01E0052527602846FEBD2DE932
:1057B000FE4F88460021196099461546044602A905
:1057C00001F0C4FB002812D1607D00280FD1207D9C
:1057D000C0070BD0E168A0690127081A4FF0020A40
:1057E00004F1300B854200D9054684E00720BDE86E
:1057F000FE8FA169C80566D102984089401E10EA53
:10580000512611D129B1E06A28B12046FEF7A2FE47
:1058100005E0A06803E02046E16900F015FC0228DD
:105820001BD3411C4AD0E061E1690298FEF7A4FE57
:1058300098B130440190680A009025D0029932183E
:105840004889824201D9801B0090DDE90032487806
:105850004146FFF731FB88BB03E084F815A0022026
:10586000C5E7207D00060CD5216A0198081A009929
:10587000884206D208EB40204FF40072594600F0EF
:1058800095FE009846022CE0226A0198824218D0C8
:10589000207D00060AD50298012359464078FFF77B
:1058A00025FB58B9207D00F07F0020750298012368
:1058B00059464078019AFFF7FFFA10B16775012049
:1058C00095E701982062208BC0F30800C0F50076B0
:1058D000AE4200D92E46011932464046303100F022
:1058E00065FEA069B0443044A061D9F80000811978
:1058F000AD1BC9F80010002D7FF47BAF002076E7C8
:10590000F8B50E460746694601F020FB040027D192
:105910007EB13E2000F050F9050010D00098002123
:10592000C5603846FFF738F90446042809D044B169
:1059300013E000213846FFF75BFA044610E011201F
:10594000F8BD3146384600F0E0FB00213846FFF74D
:10595000A9F80446042800D10024284600F02EF9B6
:105960002046F8BDF8B50446694601F0EFFA002874
:105970000ED1217D4A060BD508060ED50098226A65
:105980000123407804F13001FFF7B0FA08B101209B
:10599000F8BD207D00F07F00207500F0B4FB0646C6
:1059A000616A009800F013FE0028F1D1A56A29462B
:1059B000E87A40F02000E872A268206801F06EF9F1
:1059C00005F11C00E16801F07DF9314605F1160092
:1059D00001F078F9002105F1120001F07BF900983F
:1059E0000121C17001F0B2F9217D01F0BF012175E3
:1059F000F8BD2DE9FE4F0446002088461860994600
:105A0000154602A9204601F0A1FA002806D1607DC2
:105A1000002803D1207D800702D40720BDE8FE8F37
:105A2000A069012742194FF0020A04F1300B8242AB
:105A300000D2C5439BE0A169C80575D10298408991
:105A4000401E10EA512618D129B1E06A38B120462B
:105A5000FEF780FD07E0A06838B9002100E0E169A9
:105A60002046FEF719FE00287DD001282DD0411CCC
:105A700054D0E061A16801B9A060207D00060BD57B
:105A80000298226A012340785946FFF72FFAA0BBFB
:105A9000207D00F07F002075E1690298FEF76CFD23
:105AA00098B130440190680A009027D032180298CB
:105AB00041898A4201D9891B0091DDE90032407891
:105AC0004146FFF713FAC0B903E084F815A002209D
:105AD000A4E7216A0198081A009988420AD208EBC3
