:100000000C94A5020C94CD020C94CD020C94CD025C
:100010000C94CD020C944D0D0C94CD020C94CD0299
:100020000C94CD020C94CD020C94CD020C94CD0214
:100030000C94CD020C94CD020C94CD020C94CD0204
:100040000C941C1C0C94CD020C94CD020C94CD028B
:100050000C94CD020C94CD020C94CD020C94CD02E4
:100060000C94FC1A0C94CD0210181C1E1C181000C5
:1000700000071911111F000000000000001F0E04EE
:10008000040E1F000000000043594C3A203030207D
:10009000202020484541443A2030002D2D204E6F2D
:1000A0002066696C6573202D2D00202020202020E3
:1000B0002020202020202020202020202020002060
:1000C0002020202020202020202020202020202030
:1000D0002020200020202020202020202020202040
:1000E000202020202020202000666F7220742E6D9A
:1000F000652F7A785F64656C74615F73002D002DE5
:10010000005A582046444420456D756C20322E35E7
:1001100020002020202020202032303235202020B6
:100120002020202020200020205261686F73742D31
:1001300053747564696F2E72752020002020202072
:1001400020202020202020202020202020202020AF
:1001500000202020202020202020202020202020BF
:100160002020202000457667656E792055677279DA
:10017000756D6F762120202000696D6167652E20E6
:100180005468616E6B7320746F20202020006F66AE
:100190002077726974696E6720746F202E2A7472DA
:1001A0006420004164646564207468652066756E2F
:1001B0006374696F6E2000616E204C4344323030AE
:1001C0003420646973706C61792E005365726765C1
:1001D00079204D6164436174207769746820200040
:1001E000666F722074686520626F61726420667247
:1001F0006F6D2020005468697320697320746865EE
:100200002076657273696F6E0020202020202020E8
:1002100020202020202020202020202000202075A9
:10022000736572732E2E2E20202020202020202067
:100230002000202D616E64206D616E79206F7468DE
:1002400065727320202000202D416C657852617505
:100250006368202020202020202000202D4D616474
:10026000436174534520202020202020202000209E
:100270002D5261686F7374202020202020202020C0
:1002800020202000202D457667656E792055677205
:1002900079756D6F7620202000456469746564204F
:1002A000746F2076657220322E353A00202020208F
:1002B000202020202020202020202020202020005E
:1002C0006F6620457667656E52552E2020202020CF
:1002D0002020202000546865206F726967696E6174
:1002E0006C2070726F6A65637400202020202D2DB1
:1002F0004E6F20436172642D2D20202020200000AD
:10030000002110422063308440A550C660E7700889
:100310008129914AA16BB18CC1ADD1CEE1EFF13110
:1003200012100273325222B5529442F772D66239D9
:100330009318837BB35AA3BDD39CC3FFF3DEE36260
:1003400024433420040114E664C774A44485546A29
:10035000A54BB528850995EEE5CFF5ACC58DD553F0
:1003600036722611163006D776F6669556B4465B79
:10037000B77AA719973887DFF7FEE79DD7BCC7C4C0
:1003800048E5588668A7784008611802282338CCC9
:10039000C9EDD98EE9AFF9488969990AA92BB9F550
:1003A0005AD44AB77A966A711A500A333A122AFD19
:1003B000DBDCCBBFFB9EEB799B588B3BBB1AABA620
:1003C0006C877CE44CC55C222C033C600C411CAE69
:1003D000ED8FFDECCDCDDD2AAD0BBD688D499D9730
:1003E0007EB66ED55EF44E133E322E511E700E9FB9
:1003F000FFBEEFDDDFFCCF1BBF3AAF599F788F8880
:1004000091A981CAB1EBA10CD12DC14EF16FE18050
:1004100010A100C230E3200450254046706760B947
:10042000839893FBA3DAB33DC31CD37FE35EF3B1A0
:10043000029012F322D2323542145277625672EA97
:10044000B5CBA5A89589856EF54FE52CD50DC5E2F0
:1004500034C324A01481046674476424540544DB27
:10046000A7FAB79987B8975FE77EF71DC73CD7D340
:1004700026F2369106B01657667676154634564CF7
:10048000D96DC90EF92FE9C899E9898AB9ABA94490
:1004900058654806782768C018E1088238A3287D87
:1004A000CB5CDB3FEB1EFBF98BD89BBBAB9ABB75E0
:1004B0004A545A376A167AF10AD01AB32A923A2E57
:1004C000FD0FED6CDD4DCDAABD8BADE89DC98D2630
:1004D0007C076C645C454CA23C832CE01CC10C1F67
:1004E000EF3EFF5DCF7CDF9BAFBABFD98FF89F1780
:1004F0006E367E554E745E932EB23ED10EF01E00C7
:1005000000000800020100000304070000000000D2
:1005100000000001020408102040800102040810BD
:10052000200102040810200404040404040404024A
:10053000020202020203030303030300000000257A
:100540000028002B0000CF023B1A11241FBECFEF62
:10055000D8E0DEBFCDBF11E0A0E0B1E0E8EBFBE307
:1005600002C005900D92A833B107D9F727E0A8E3A0
:10057000B1E001C01D92A632B207E1F712E0C5EA70
:10058000D2E004C02197FE010E942E1DC33AD1077C
:10059000C9F70E94B3140C94DA1D0C94000082E099
:1005A00080933B0108950F931F93E0913F01F091D9
:1005B00040019B01AC01225031094109510982815E
:1005C0009381A481B5810297A109B1092817390740
:1005D0004A075B0778F4A081B0E00E94231D0685DE
:1005E000178520893189600F711F821F931F1F910A
:1005F0000F91089560E070E0CB01F9CFCF92DF92C8
:10060000EF92FF920F931F93CF93DF93EC016A0158
:100610007B0102E010E02EEF31E00E94FF0A892BFF
:10062000F1F48881998185359A4AD9F422E530E040
:10063000B701A601CE010E94FF0A892BA1F481E037
:10064000288139812634314409F480E0DF91CF914B
:100650001F910F91FF90EF90DF90CF90089583E06E
:10066000F5CF82E0F3CF81E0F1CFCF92DF92EF922E
:10067000FF920F931F93CF93DF9300D000D0CDB79D
:10068000DEB7623071058105910588F461E070E0A4
:1006900080E090E00F900F900F900F90DF91CF913E
:1006A0001F910F91FF90EF90DF90CF900895E09110
:1006B0003F01F0914001C280D380E480F5806C1549
:1006C0007D058E059F0510F7AB01BC01242F2F7708
:1006D00084E0289F9001112487E0769567955795CF
:1006E00047958A95D1F7C680D780E084F1844C0D78
:1006F0005D1D6E1D7F1D04E010E0CE0101960E947D
:10070000FF0A892B19F669817A818B819C819F7000
:10071000C1CF0F931F93CF93DF93EC01E0913F0183
:10072000F0914001198218826C817D818E819F81B8
:10073000613071058105910569F102811381248180
:100740003581601771078207930720F561157105E0
:100750008105910521F46285738584859585688777
:1007600079878A879B87611571058105910569F0F5
:100770000E94D3026C877D878E879F8790E080E000
:10078000DF91CF911F910F910895628573858485C4
:100790009585F0CF81E090E0F3CF2F923F924F927A
:1007A0005F926F927F928F929F92AF92BF92CF9201
:1007B000DF92EF92FF920F931F93CF93DF93EC01A1
:1007C000E880F9808FEFE81AF80A19F483E090E0E6
:1007D00043C04C845D846E847F8441145104610461
:1007E0007104A1F300913F0110914001F80126A08E
:1007F00037A088849984AA84BB846701FFE0CF2254
:10080000DD24C114D10409F04FC0D301C201019607
:10081000A11DB11D8C879D87AE87BF878114910470
:10082000A104B10499F2F80180818150990B9701DC
:1008300044E0369527954A95E1F782239323892B47
:1008400099F5C501B4010E94350362307105810537
:100850009105A8F481E090E0DF91CF911F910F9175
:10086000FF90EF90DF90CF90BF90AF909F908F90D0
:100870007F906F905F904F903F902F900895F80178
:1008800002811381248135816017710782079307E4
:1008900008F09CCF688779878A879B870E94D3025C
:1008A0006C877D878E879F87960185E0220F331F97
:1008B0008A95E1F74C855D856E857F8500E210E0C5
:1008C000C1010E94FF0A892B29F6F1018081811163
:1008D00009C04C865D866E867F8688869986AA8644
:1008E000BB8674CFF982E88290E080E0B5CFAF920A
:1008F000BF92CF92DF92EF92FF920F931F93CF930D
:10090000DF936C017B01FB0180816F5F7F4F803241
:10091000C9F38F3209F47B01F60114821582168225
:100920001782F7018081803208F088C0C601DF910C
:10093000CF911F910F91FF90EF90DF90CF90BF90DC
:10094000AF900C948903C1E0D0E0CE01DF91CF914C
:100950001F910F91FF90EF90DF90CF90BF90AF90DD
:100960000895C3E0D0E0F1CF222309F493C0E30E51
:10097000F11C81E08B87C6010E948903EC01892B61
:1009800021F7E0913F01F0914001A6A0B7A0F60148
:10099000208131812F70332745E0220F331F4A9584
:1009A000E1F7448555856685778500E210E0C5014D
:1009B0000E94FF0A892B39F6F5018081882389F28C
:1009C000838583FD0BC0F601028113814BE050E06B
:1009D000B801C5010E94431D892B71F0C6010E9418
:1009E000CD030097A1F2EC01B0CF222309F452C04D
:1009F000E30EF11C80E0BECFF80183858111A5CF05
:100A0000E0913F01F091400106A0F7A1E02D838520
:100A100084FFA7CF84899589B0E0A0E0DC01992705
:100A20008827428D538D70E060E0842B952BA62B98
:100A3000B72BF60184839583A683B783F601C28121
:100A4000D3814BE050E060E270E0CE010E946B1D6C
:100A500020E0E0E098E031E03E0FEE0DFF2DF11DCB
:100A60008081803208F480CF8F3209F4BECF8E327D
:100A7000A1F0291778F48F3768F4682F70E0E1E06F
:100A8000F1E04191442369F0042E000C550B6417EA
:100A90007507B9F7C5E0D0E058CF9830D9F78BE0AB
:100AA0000CC04FE9480F4A3108F48052FE01E20FB2
:100AB000F11D8083892F91E0920F292FE32F982F2A
:100AC000CACF4F925F926F927F92AF92BF92CF92B6
:100AD000DF92EF92FF920F931F93CF93DF93EC017E
:100AE000E0913F01F091400188E090E03097D9F02B
:100AF000088119810115110509F46FC08C859D8548
:100B0000AE85BF85892B8A2B8B2B09F466C04C8060
:100B10005D806E807F8081E048165104610471041D
:100B200089F481E090E0DF91CF911F910F91FF90C8
:100B3000EF90DF90CF90BF90AF907F906F905F90DD
:100B40004F90089582819381A481B58148165906FA
:100B50006A067B0630F7411451046104710421F4E4
:100B6000428453846484758401501109C80124E0CF
:100B7000969587952A95E1F7608170E00E94D91CCF
:100B80005B016C01F12CE12CEA14FB0488F4C30135
:100B9000B2010E9435032B013C0182E0481651044A
:100BA0006104710408F4BDCF8FEFE81AF80AECCFA6
:100BB000488659866A867B86C301B2010E94D302A9
:100BC0006C0D7D1D811D911D6C877D878E879F8794
:100BD0001983088390E080E0A6CF83E090E0A3CF64
:100BE0002F923F924F925F926F927F928F929F923D
:100BF000AF92BF92CF92DF92EF92FF920F931F932B
:100C0000CF93DF93CDB7DEB7A4970FB6F894DEBFCE
:100C10000FBECDBF1092400110923F01009709F422
:100C2000A2C01C010E947D0A80FDA0C040E050E0EF
:100C3000BA01CE0101960E94FE02C12CD12C760190
:100C40008130C9F500E110E02EEB31E040E050E0EA
:100C5000BA01CE0101960E94FF0A892BD9F081E0EA
:100C600090E0A4960FB6F894DEBF0FBECDBFDF9123
:100C7000CF911F910F91FF90EF90DF90CF90BF9099
:100C8000AF909F908F907F906F905F904F903F902C
:100C90002F9008958D818B50823018F089E090E07C
:100CA000E0CFC984DA84EB84FC84B701A601CE01CD
:100CB00001960E94FE02833091F28111EFCF04E28F
:100CC00010E02DE030E0B701A601CE0101960E94B0
:100CD000FF0A892B21F6E981D101EC93AC81288DA3
:100CE000398D4A8D5B8DB0E00E94231D2B013C01A4
:100CF0008A809B80B12CA12C6C897D898E899F89EB
:100D0000681979098A099B0964197509860997097F
:100D10002E2F30E050E040E00E94011D2E5F3F4F3B
:100D20004F4F5F4FF101228333834483558388A162
:100D300099A1AAA1BBA182879387A487B5878C0CB0
:100D40009D1CAE1CBF1C86829782A086B186840C37
:100D5000951CA61CB71C86869786A08AB18A3092FD
:100D6000400120923F0190E080E07BCF82E090E064
:100D700078CFEF92FF920F931F93CF93DF93CDB76E
:100D8000DEB76C970FB6F894DEBF0FBECDBF0091F3
:100D90003F01109140010115110509F444C0BC0147
:100DA000F801E6A0F7A0CE0141969C838B83409783
:100DB0000E947704009751F5F70180818823A9F1FB
:100DC000838584FD32C084899589B0E0A0E0DC0190
:100DD00099278827428D538D70E060E0842B952BF6
:100DE000A62BB72BF801828F938FA48FB58FF701B5
:100DF000848D958DA68DB78DF801868B978BA08FEE
:100E0000B18F128A138A148A158A80E06C960FB605
:100E1000F894DEBF0FBECDBFDF91CF911F910F9130
:100E2000FF90EF90089588E0F1CF83E0EFCFEF924D
:100E3000FF920F931F93CF93DF93CDB7DEB72C971D
:100E40000FB6F894DEBF0FBECDBFE0913F01F09129
:100E50004001DC0111961C921E923097C9F18C0161
:100E6000CE01019613969C938E931297E6A0F7A05D
:100E7000CD010E9477040097F1F4F7018081882367
:100E8000B9F0838584FF27C084899589B0E0A0E00C
:100E9000DC0199278827428D538D70E060E0842B18
:100EA000952BA62BB72BF80184839583A683B78354
:100EB000C8010E9489032C960FB6F894DEBF0FBEBE
:100EC000CDBFDF91CF911F910F91FF90EF900895CB
:100ED00088E090E0F0CF83E090E0EDCF9F92AF927A
:100EE000BF92CF92DF92EF92FF920F931F93CF9317
:100EF000DF93CDB7DEB72C970FB6F894DEBF0FBEE9
:100F0000CDBFE0913F01F0914001309709F4D9C085
:100F1000942E7B016C01CE010196D60113969C9311
:100F20008E931297672BA9F4C6010E9489032C9611
:100F30000FB6F894DEBF0FBECDBFDF91CF911F91EA
:100F40000F91FF90EF90DF90CF90BF90AF909F9068
:100F50000895A6A0B7A083E090E0F60144855585EA
:100F600066857785411551056105710509F448C00D
:100F7000208131812F70332785E0220F331F8A951E
:100F8000E1F700E210E0C5010E94FF0A892B09F099
:100F90009BC0D5018C9181111AC0E0913F01F09165
:100FA0004001A6A0B7A0F7013996D6011C964D9135
:100FB0005D916D917C911F97452B462B472B41F5F9
:100FC000108290E080E0B3CF90E080E0C6CF853E15
:100FD00021F0F501838583FFE0CFF1E09F120AC085
:100FE000C6010E946105009779F38330910509F0ED
:100FF0009ECFD3CF9110E8CFC6010E94CD03F3CF8F
:101000008330910551F2F70139960097C9F28FCFDD
:10101000B50197012F5E3F4FDB018D91BD018032FD
:1010200061F0853009F485EEAF014F5F5F4F80833B
:101030004217530709F041C0F901D50118968C9168
:101040008032A9F08EE28083B501685F7F4FCF01C7
:1010500004963196DB014D91BD01403241F09F0174
:101060002F5F3F4F40832817390749F5FC01D50111
:101070001B968C91D70118968C93D5015C964D9157
:101080005D916D917C915F97D7014D935D936D93C9
:101090007C931397D50158968D919C91D701159605
:1010A0009C938E931497D50156968D919C91D70160
:1010B00017969C938E93169783CFFA01ADCFF901C3
:1010C000C9CF88E090E033CF81E090E030CF94EA60
:1010D0009093BC009091BC0097FFFCCF9091B90019
:1010E000987F983021F0903111F081E00895880FB9
:1010F0008093BB0084E88093BC008091BC0087FF94
:10110000FCCF8091B900887F883111F0803469F775
:1011100080E0089584E98093BC008091BC0084FD48
:10112000FCCF0895CF93C82F8FE30E9467082091CA
:101130000001237081E090E001C0880F2A95EAF752
:10114000C82BC093BB0084E88093BC008091BC0096
:1011500087FFFCCFCF910C948A08CF93C82F84606F
:101160000E9492088AE08A95F1F700C08C2F8B7F4D
:10117000CF910C949208982F807194FD80E195FD99
:10118000806296FD806497FD80680895CF93DF9319
:10119000C82F0E94BB08D82FDE7F8D2F0E94AD087C
:1011A0008D2F0E94920885EC8A95F1F700008C2F14
:1011B0008295807F0E94BB08D82FDE7F8D2F0E94F2
:1011C000AD088D2F0E949208CC7F39F095EC9A954E
:1011D000F1F70000DF91CF9108958FE39FE1019730
:1011E000F1F700C0F6CFCF93C82F0E94BB088160F3
:1011F0000E94AD0885EC8A95F1F700008C2F82954E
:10120000807F0E94BB08C82FC1608C2F0E94AD0850
:101210008C2F0E9492088FE39FE10197F1F700C0A5
:101220000000CF9108950F931F93CF93DF93C62FA4
:1012300028E0829FC001112480640E94C60888E0D3
:10124000C89FE0011124C859DF4F8E01085F1F4F6E
:10125000FE0184910E94F30821960C171D07C1F727
:10126000DF91CF911F910F91089581E00C94C608F2
:10127000CF9388B1806388B987B18F7C87B910928A
:10128000B90088E48093B80080E00E9492082FEFB4
:1012900083EF91E0215080409040E1F700C00000D2
:1012A00080E30E94920880E30E94AD088FE19EE4F3
:1012B0000197F1F700C0000080E30E94AD088FE8BD
:1012C00091E00197F1F700C0000080E30E94AD08B3
:1012D0008FE891E00197F1F700C0000080E20E94E2
:1012E000920880E20E94AD0880E20E9492088FE896
:1012F00091E00197F1F700C0000088E20E94C60863
:101300008CE00E94C60886E00E94C6080E9435094B
:10131000C0E06C2F8C2F0E941309CF5FC430C9F737
:10132000CF91089583E08093000180E00C949208AF
:101330001092000180E00C949208613049F028F08E
:10134000623041F0633041F0089580580C94C60833
:101350008054FCCF8C56FACF8C52F8CF0F931F934A
:10136000CF938C01C0E08C2F90E0F8010190002019
:10137000E9F73197E01BF10B8E179F0740F4800FC0
:10138000911FFC0180810E94F308CF5FECCFCF91C9
:101390001F910F910895CF93DF93EA010E949D0959
:1013A000CE01DF91CF910C94AE09CF93DF93EC0186
:1013B000FE0184912196882319F00E94F308F8CF4A
:1013C000DF91CF910895CF93DF93EA010E949D09A9
:1013D000CE01DF91CF910C94D509805D0C94F30878
:1013E000CF93C42F0E949D0980E38C0FCF910C9462
:1013F000F3080C94F308CF93C42F0E949D098C2FFF
:10140000CF910C94F3088FEF8EBD0DB407FEFDCF86
:101410008EB508950DB407FEFDCF8EB508958EBD2F
:101420000DB407FEFDCF0895BF92CF92DF92EF92E9
:10143000FF920F931F93CF93DF93C82FE42ED52EE7
:10144000C62EB72EF22E2A9A87FF0BC020E040E06E
:1014500050E0BA0187E70E94140AD82F8230A0F426
:10146000CF772A9A0E94030A2A980E94030A0E94B0
:10147000030A05E610E00E94030AD82F8F3F51F1BE
:1014800001501109C1F7DFEF8D2FDF91CF911F912F
:101490000F91FF90EF90DF90CF90BF900895C834E8
:1014A00009F4D7E88D2F0E940F0AC8EC0E94030AA6
:1014B000D82F87FD0CC003E511E0C0E0CF1521F364
:1014C0000E94030AF80181938F01CF5FF7CFC150CB
:1014D00069F7F1CF8C2F0E940F0A8B2D0E940F0A03
:1014E0008C2D0E940F0A8D2D0E940F0A8E2D0E94B6
:1014F0000F0AC034A1F6D5E9D5CF1F93CF93DF9360
:10150000109257012A9ACAE00E94030AC150E1F7DB
:1015100020E040E050E0BA0180E40E94140AC82FA5
:10152000813011F524E04AEA51E060E070E088E49F
:101530000E94140A813031F580915501813091F477
:10154000809156018A3A71F4C8EAD1E620E040E081
:1015500050E060E070E489EE0E94140A882399F15B
:101560002197A1F780E58CBD2A9A0E94030A81E0A9
:1015700090915701911180E0DF91CF911F910895D3
:101580008CE02FC020E040E050E0BA0189EE0E94DC
:10159000140A8230A0F482E08093570119EEC8EA61
:1015A000D1E620E040E050E0BA01812F0E94140A09
:1015B0008823D1F02197A9F710925701D3CFC09378
:1015C000570111E4ECCF24E040E050E0BA018AE793
:1015D0000E94140A8111C6CF8091530186FDD0CF9D
:1015E00084E080935701BECF20E040E052E060E00D
:1015F00070E080E50E94140A8111DECFB3CFBF9264
:10160000CF92DF92EF92FF920F931F93CF93DF93CE
:101610007C0169018091570183FD07C089E0440F77
:10162000551F661F771F8A95D1F720E081E50E943C
:10163000140AC0E4DCE9882361F081E090E0DF91E6
:10164000CF911F910F91FF90EF90DF90CF90BF90BF
:1016500008950E94030A8F3F19F42197D1F7EDCF27
:101660008E3F59F7D0E0C0E0BB24BA94BEBC0E94C4
:101670000A0ACC15DD0550F00115110539F0F70106
:10168000808301501109C70101967C012196C23067
:10169000DC0761F72A9A8FEF8EBD0E940A0A81E06B
:1016A00090E0012B61F680E0CACFEF92FF920F939A
:1016B0001F93CF93DF930097C9F0EA018C01209725
:1016C000C1F1E0904101F0904201E114F10489F18F
:1016D000F80181918F010E940F0AF1E0EF1AF108E1
:1016E000F0924201E09241012197E9CF4115510565
:1016F0006105710509F18091570183FD07C089E0FB
:10170000440F551F661F771F8A95D1F720E088E5A3
:101710000E94140AD1E081110DC08FEF0E940F0AC0
:101720008EEF0E940F0A80E092E090934201809336
:101730004101D0E0C0E017C0C0914101D091420109
:101740002197CD3F8FEFD80721F080E00E940F0A4C
:10175000F7CF0E94030A8F71853071F0D1E0C0E0AD
:101760002A9A0E94030A8D2F9C2FDF91CF911F91FF
:101770000F91FF90EF90089508E813E10E94030A8B
:101780008F3F61F00115110549F3EFE8F1E0319762
:10179000F1F700C0000001501109F0CFD1E0C0E026
:1017A000012BF1F2D0E0DCCF1F93CF93DF9320E049
:1017B00040E050E0BA018AE40E94140A60E081111E
:1017C0000EC0C3E4D1E01FEF1EBD0E940A0A899338
:1017D00081E0C335D807C1F72A9A60914C0170E0C7
:1017E00090E080E0DF91CF911F910895E8E6F0E06E
:1017F00080818D7F80830895EF92FF920F931F93D6
:10180000CF93DF93CDB7DEB72D970FB6F894DEBF39
:101810000FBECDBF40E0682F80E00E94FB0910E0C2
:1018200006E180915F011817B0F5E12EF12C0E9DB5
:10183000F0010F9DF00D1124EA56FE4F808584FFC4
:1018400005C041E0612F81E00E94FB09109FB001BB
:10185000112461567E4FCE0101960E94971D0E9D68
:10186000F0010F9DF00D1124EA56FE4F808584FF94
:101870000DC0CE0101960E94A81DAE014F5F5F4FC3
:10188000612F82E00E94CB091F5FCBCFCE01019672
:101890000E949E1DF2CF2D960FB6F894DEBF0FBEAC
:1018A000CDBFDF91CF911F910F91FF90EF900895E1
:1018B000CF9380E791E00E94CD03892B59F540E05A
:1018C00060E871E080E791E00E946E07892B21F5C6
:1018D000C0918901CC2369F361E171E089E891E06D
:1018E0000E94721D892B21F48091880184FFE1CF31
:1018F000CE3221F480918A018E32D9F686E1E0E879
:10190000F1E0A6E9B1E001900D928A95E1F780E05F
:10191000CF9108958EEFFCCF8FEFFACFCF93DF9367
:10192000C82FCC23F9F040E150E060E671E080E799
:1019300091E00E94431D892B21F48EEFDF91CF911E
:10194000089580E791E00E946105892BB1F74C2F43
:1019500060E871E080E791E00E946E07892B49F012
:101960008FEFECCF80E791E00E94CD03882379F3DD
:10197000E4CFD0918901DD23A1F261E171E089E832
:1019800091E00E94721D892B21F48091880184FFCF
:10199000C8CFDE3221F480918A018E3211F680E0C8
:1019A000CDCFDF92EF92FF920F931F93CF93DF93F0
:1019B000C82FD62FD42EE82EF12C86E1C89F8001A7
:1019C00011240A561E4F8D2F0E948E0C81113DC08E
:1019D00046E150E060E871E0C8010E94431D892B98
:1019E00091F3C11124C0D13059F481E0D81208C05C
:1019F00042E450E066E971E08CEA91E00E94591DF2
:101A000086E18E9DD0018F9DB00D1124AA56BE4F48
:101A1000E0E8F1E001900D928A95E1F780E0DF9136
:101A2000CF911F910F91FF90EF90DF900895C330F9
:101A300039F7D111E5CF81E0D812E2CF42E450E08E
:101A40006CEA71E086E991E0D9CF8DEFE8CF87E0CD
:101A500090E09093C5008093C4001092C00080EC89
:101A60008093C2001092C1000895EDE6F0E08081FD
:101A700080618083289A8BB1816F8BB988B18F6028
:101A800088B9219820988AB1837F8AB9089584B152
:101A90008C6284B981E58CBD08951F920F920FB6B8
:101AA0000F9211248F939F934F9915C04C9913C097
:101AB0004D9B18C080915C01882341F080915C01AE
:101AC000815080935C0181E080935E0180915C0194
:101AD000811101C0539A9F918F910F900FBE0F906B
:101AE0001F90189580915C018F5F90915D0189171F
:101AF00028F480935C0181E080935E015398EBCFE2
:101B00000F9320E8629FD0011124FC013099FAC0A4
:101B1000B59BFCCF30918600B59A632F621B232FB3
:101B2000603508F0F3CF3099EDC0B59BFCCF309114
:101B30008600B59A632F621B232F603708F4F3CF1A
:101B40003099E0C0B59BFCCF30918600B59A632FE9
:101B5000621B232F603508F4E6CF603708F0E3CF2F
:101B60003099D0C0B59BFCCF30918600B59A632FD9
:101B7000621B232F603708F4D6CF3099C3C0B59BC2
:101B8000FCCF30918600B59A632F621B232F6035FE
:101B900008F4C9CF603708F0C6CF3099B3C0B59B01
:101BA000FCCF30918600B59A632F621B232F6035DE
:101BB00008F0B9CF3099A6C0B59BFCCF3091860014
:101BC000B59A632F621B232F603708F4ACCF30998E
:101BD00099C0B59BFCCF30918600B59A632F621BEC
:101BE000232F603508F49FCF603708F09CCF3099E1
:101BF00089C0B59BFCCF30918600B59A632F621BDC
:101C0000232F603708F48FCF30997CC0B59BFCCF71
:101C100030918600B59A632F621B232F603508F43C
:101C200082CF603708F07FCF30996CC0B59BFCCF76
:101C300030918600B59A632F621B232F603508F020
:101C400072CF30995FC0B59BFCCF30918600B59ABA
:101C5000632F621B232F603708F465CF309952C081
:101C6000B59BFCCF30918600B59A632F621B232F62
:101C7000603508F458CF603708F055CF309942C02E
:101C8000B59BFCCF30918600B59A632F621B232F42
:101C9000603708F448CF309935C0B59BFCCF309100
:101CA0008600B59A632F621B232F603508F43BCF63
:101CB000603708F038CF58E000278827309922C0D5
:101CC000B59BFCCF30918600B59A632F621B232F02
:101CD000603520F16037B8F0440F5A9539F400FDB3
:101CE00041930FEF58E0A150B04062F0440F4160C3
:101CF0005A9539F400FD41930FEF58E0A150B040E0
:101D00000AF0DCCF44C0440F5A9539F400FD4193EA
:101D10000FEF58E0A150B040AAF30CC0440F41604F
:101D20005A9539F400FD41930FEF58E0A150B040AF
:101D30004AF3C4CF3099E6CFB59BFCCF30918600F3
:101D4000B59A632F621B232F6035B0F0440F5A956C
:101D500039F400FD41930FEF58E0A150B040BAF0C4
:101D6000440F41605A9539F400FD41930FEF58E05C
:101D7000A150B04062F0A2CF440F5A9539F400FD53
:101D800041930FEF58E0A150B0400AF0D3CF0F912C
:101D90000895E82FE295AE2FA770B0E0A25EBE4F87
:101DA0009C91E695E695E3702091580120FF02C0D2
:101DB00087FFE4602091C00025FFFCCFF0E0E25EE9
:101DC000FE4F20812093C6008093580120915B0133
:101DD000211133C0E82FE695E695E770F0E0E25E6A
:101DE000FE4F2081E82FE770F0E0E25EFE4F308189
:101DF0004091C00045FFFCCF9093C600E0915A018E
:101E00008E27E82FF0E0EE0FFF1FE150FD4F859188
:101E1000949140915901942790935A0180935901CC
:101E20008091C00085FFFCCF2093C6008091C00048
:101E300085FFFCCF3093C60008952FE7D3CF2F92B4
:101E40003F924F925F926F927F928F929F92AF924A
:101E5000BF92CF92DF92EF92FF920F931F93CF9397
:101E6000DF93CDB7DEB7C451D1400FB6F894DEBFD3
:101E70000FBECDBF813009F4E7C020E1CD5FDE4F5A
:101E80002883C350D14032E0C250DF4F3883CE5F49
:101E9000D04041E0CA5FDE4F4883C650D140C09079
:101EA0000802D0900902E0900A02F0900B0226018D
:101EB000370147E076946794579447944A95D1F751
:101EC0004091F4015091F5016091F6017091F70194
:101ED000440D551D661D771D00E012E030E020E046
:101EE0008AE492E00E94FF0A892B09F034C5C98276
:101EF000DA82EB82FC82C250DF4F3881CE5FD04065
:101F0000232F30E0CC5FDE4F39832883C450D1408B
:101F1000CD5FDE4F5881C350D140C250DF4F488162
:101F2000CE5FD040549FA0011124C55FDE4F59837E
:101F30004883CB50D1401A0135942794C101880FB2
:101F4000991FC450DF4F99838883CC5FD04021E034
:101F500030E0C750DF4F39832883C95FD0402091DC
:101F60005D01229DC001239D900D1124C750DF4FBC
:101F700048815981C95FD0404817590708F077C098
:101F80006091EE0170E0CA010E94D91C892B81F595
:101F90004601570197E0B694A794979487949A9531
:101FA000D1F784149504A604B704A1F04091F4017C
:101FB0005091F5016091F6017091F701480D591D9E
:101FC0006A1D7B1D00E012E030E020E08AE492E030
:101FD0000E94FF0AF601EE0FFF1FEE0FFF1FF170C8
:101FE000E65BFD4FC080D180E280F38024013501A3
:101FF000C750DF4F88819981C95FD040C450DF4FFF
:1020000068817981CC5FD0400E94D91C892B71F402
:10201000660F771F660F771FE1E0F0E0EC0FFD1F02
:10202000E60FF71FC082D182E282F382C750DF4FF2
:1020300088819981C95FD0400196C750DF4F99834D
:102040008883C95FD0408BCF55E0CD5FDE4F58838A
:10205000C350D14088E0C250DF4F8883CE5FD0406C
:1020600093E0CA5FDE4F9883C650D14018CF1092DC
:102070005C0110925E019FEF2DE339E49150204006
:102080003040E1F700C00000DA9A80916800846077
:10209000809368004FEFC450DF4F4883CC5FD0403F
:1020A000219853980E94980989B1807C39F131991F
:1020B000FBCF319BFECF2A9A0E9492098091680043
:1020C0008B7F8093680080E0CC5EDE4F0FB6F89483
:1020D000DEBF0FBECDBFDF91CF911F910F91FF905B
:1020E000EF90DF90CF90BF90AF909F908F907F90B8
:1020F0006F905F904F903F902F9008950E949209AB
:1021000080915C0181112BC0539AC750DF4F188218
:10211000C95FD040C1010196CD5EDE4F99838883AF
:10212000C351D140C950DF4F19821882C75FD040D8
:10213000C950DF4F88819981C75FD040883E934066
:1021400080F4C950DF4F88819981C75FD0400196E4
:10215000C950DF4F99838883C75FD040E9CF539838
:10216000D4CF80915C01C450DF4F3881CC5FD04028
:10217000831709F441C180915E01882309F1F89425
:1021800010925E017894CB50DF4F19821882C55FA0
:10219000D040CB50DF4F88819981C55FD0408031DE
:1021A000974248F7CB50DF4F88819981C55FD04077
:1021B0000196CB50DF4F99838883C55FD040E9CF2C
:1021C000F89410925E01789450915C01C450DF4FF6
:1021D0005883CC5FD040E52FE69584E0E89FF0017E
:1021E000112421E030E02C0F3D1FE20FF31FC080CF
:1021F000D180E280F38050FF77C02601370117E0DD
:1022000076946794579447941A95D1F74091F401C6
:102210005091F5016091F6017091F701440D551D43
:10222000661D771D00E012E030E020E08AE492E0D5
:102230000E94FF0A892B09F081C331E0C550DF4FAE
:102240003883CB5FD040C550DF4F8881CB5FD04013
:10225000CD5EDE4F48815981C351D14084171506A8
:1022600008F042C06091EE010E94CD1C911130C077
:1022700046015701B7E0B694A79497948794BA950E
:10228000D1F7481459046A047B04A1F04091F40189
:102290005091F5016091F6017091F701480D591DBB
:1022A0006A1D7B1D00E012E030E020E08AE492E04D
:1022B0000E94FF0AF601EE0FFF1FEE0FFF1FF170E5
:1022C000E65BFD4FC080D180E280F38024013501C0
:1022D000C550DF4F9881CB5FD0409F5FC550DF4F27
:1022E0009883CB5FD040AFCF26013701F7E07694DB
:1022F000679457944794FA95D1F7CB55DF4FC8822E
:10230000D982EA82FB82C55AD0404091F4015091B3
:10231000F5016091F6017091F701440D551D661DA0
:10232000771D00E012E030E020E08AE492E00E94B5
:10233000FF0A892B09F002C321E0C550DF4F288333
:10234000CB5FD040C550DF4F3881CB5FD0403215D6
:10235000130408F051C06091EE01832F0E94CD1C40
:10236000911130C046015701E7E0B694A7949794C5
:102370008794EA95D1F784149504A604B704A1F0D4
:102380004091F4015091F5016091F6017091F701CF
:10239000480D591D6A1D7B1D00E012E030E020E071
:1023A0008AE492E00E94FF0AF601EE0FFF1FEE0F93
:1023B000FF1FF170E65BFD4FC080D180E280F380AB
:1023C00024013501C550DF4F5881CB5FD04044E038
:1023D000549FF001112485EA90E08C0F9D1FE80FB7
:1023E000F91FC082D182E282F3825F5FC550DF4F66
:1023F0005883CB5FD040A6CF80915C011AE0612F5B
:102400000E94CD1C482F63E086E00E94F009809175
:102410005C01612F0E94CD1C892F0E94ED09C450E0
:10242000DF4F4881CC5FD040C55FDE4F28813981C6
:10243000CB50D140429FC001439F900D11249C017D
:1024400035952795CF5EDE4F39832883C151D14022
:1024500089B180958170C550DF4F8883CB5FD040B4
:1024600080915E01811179C289B1807C09F075C2C9
:102470008091C10088608093C100C750DF4F4881C0
:10248000C95FD040242F30E088E090E0CC5FDE4F81
:1024900068817981C450D1400E94ED1CC9010E941D
:1024A000ED1CC35FDE4F99838883CD50D140892BCB
:1024B00009F0D2C0C090FC01D090FD01E090FE0177
:1024C000F090FF01CD5FDE4F5881C350D140C55021
:1024D000DF4F8881CB5FD040589F200D311D1124E4
:1024E000CC5FDE4F48815981C450D140249FF00118
:1024F000259FF00D349FF00D1124F595E795F59586
:10250000E795FF270091EE01802E912CB12CA12C94
:10251000CF5EDE4F88819981C151D1408E0F9F1FC0
:10252000C150DF4F99838883CF5FD04010E0DF0137
:10253000AA0FBB1FAA0FBB1F25EA30E02C0F3D1FBF
:10254000A20FB31F2D913D914D915C912250310905
:1025500041095109C501B4010E94BD1C2B013C0178
:10256000C150DF4F88819981CF5FD040B8010E9470
:10257000ED1C092E000CAA0BBB0B840D951DA61D8E
:10258000B71D9C01AD012C0D3D1D4E1D5F1DC95F8A
:10259000DE4F288339834A835B83C750D14031960D
:1025A000EE0FFF1FEE0FFF1F45EA50E04C0F5D1FBF
:1025B000E40FF51F2081318142815381225031097E
:1025C00041095109C501B4010E94BD1C4B015C01C8
:1025D000C150DF4F88819981CF5FD0400196B8010B
:1025E0000E94ED1C092E000CAA0BBB0B880D991D37
:1025F000AA1DBB1D9C01AD012C0D3D1D4E1D5F1D77
:10260000C150DF4F288339834A835B83CF5FD0403B
:1026100000E012E030E020E0C95FDE4F48815981E0
:102620006A817B81C750D1408AE492E00E94FF0A10
:10263000892B09F090C130E020E0C150DF4F488184
:1026400059816A817B81CF5FD0408AE494E00E9407
:10265000FF0A892B09F07FC180915E0181117DC144
:1026600089B1807C09F079C1C750DF4F3881C95FDB
:10267000D040311110C0C550DF4F4881CB5FD040F2
:1026800063E082E10E94F0091AE08EE40E94C90E24
:102690001150D9F7219AC35FDE4F4881CD50D14008
:1026A000C05FDE4F4883C051D140C15FDE4F18820A
:1026B000CF50D140C15FDE4F08811981CF50D1404A
:1026C000065B1D4F2CE0F22E80E00E94C90EFA94AA
:1026D000F110FACF51E050935B018FEF9FEF909391
:1026E0005A018093590181EA0E94C90E81EA0E9431
:1026F000C90E81EA0E94C90E10925B018EEF0E9402
:10270000C90EC450DF4F8881CC5FD0400E94C90EF3
:10271000C550DF4F8881CB5FD0400E94C90EC250A8
:10272000DF4F9881CE5FD040983041F4C750DF4FE3
:102730002881C95FD04089E0243031F0C750DF4F95
:102740008881C95FD0408F5F0E94C90ECA5FDE4F8B
:102750008881C650D1400E94C90EF09059018091E5
:102760005A010E94C90E8F2D0E94C90E96E1F92EC2
:102770008EE40E94C90E309B03C0FA94F110F8CF8A
:102780008CE0F82E80E00E94C90E309B03C0FA94C2
:10279000F110F8CF30997DC08091C100877F809380
:1027A000C10031E030938100C750DF4F4881C95FDD
:1027B000D040411101C02198C250DF4F6881CE5FE7
:1027C000D040C8010E94800D109281009091C100FC
:1027D00098609093C10081113CC0C95FDE4F488171
:1027E00059816A817B81C750D14090E080E00E948E
:1027F000550B81112EC040E052E060E070E08AE4A9
:1028000092E00E94550B811124C040E050E0BA01D3
:1028100090E080E00E94550B81111BC0C150DF4F3A
:10282000488159816A817B81CF5FD04090E080E010
:102830000E94550B40E052E060E070E08AE494E0D2
:102840000E94550B40E050E0BA0190E080E00E9409
:10285000550B80915E01811180C089B1807C09F0A7
:102860007CC0C750DF4F3881C95FD0403F5FC75041
:10287000DF4F3883C95FD040CD5FDE4F4881C35002
:10288000D1404313E5CDC750DF4F1882C95FD04018
:10289000DFCD51E050935B018FEF9FEF90935A0192
:1028A0008093590181EA0E94C90E81EA0E94C90EF3
:1028B00081EA0E94C90E10925B018BEF0E94C90E43
:1028C000C750DF4F9881C95FD040911101C0219856
:1028D00080915E01811141C089B1807C09F03DC0C9
:1028E000C250DF4FD880CE5FD040780120E8E20EA2
:1028F000F11CF801E016F10631F00F5F1F4F8081E7
:102900000E94C90EF6CFDA94D110EFCF1091590181
:1029100080915A010E94C90E812F0E94C90E16E3B0
:102920008EE40E94C90E80915E01811192CF89B11F
:10293000807C09F08ECF115099F78BCF11E08091F8
:10294000C100877F8093C10021980E9498092A9A2C
:10295000112309F4A5CB81E0B7CB89B1807C09F4C0
:10296000E1CB10E0ECCFCF93DF93CDB7DEB7639729
:102970000FB6F894DEBF0FBECDBF80E880BF1092C7
:102980008000109282000E94270D0E94350D0E9447
:10299000470D84E596E00E94291A78940E94380930
:1029A0008AE692E090931702809316028AE492E0FE
:1029B000909315028093140210E0712C76E9A72EF3
:1029C00071E0B72EE6E14E2EF5E02F2E312C0E945D
:1029D000F60B0E9435096FE2562EF50128E511929B
:1029E0002A95E9F790E080E00E94F0058EEE91E0F4
:1029F0000E94F005892B09F417C126B181E090E00F
:102A0000322F347022FF02C090E080E09093510694
:102A100080935006311115C080914C0690914D065F
:102A2000892B79F4809152069091530601969093E8
:102A30005306809352068FE39CE90197F1F700C09B
:102A40000000809150069091510690934D0680931E
:102A50004C0626B181E090E0322F387023FF02C08F
:102A600090E080E090934F0680934E06311115C0A0
:102A700080914A0690914B06892B79F480915206F9
:102A80009091530601979093530680935206EFE37B
:102A9000FCE93197F1F700C0000080914E0690915B
:102AA0004F0690934B0680934A0680915206909170
:102AB00053068230910509F478C0BCF40097B9F14F
:102AC0008130910509F451C0069724F030925306E5
:102AD00020925206809152069091530697FF86CF1E
:102AE000109253061092520681CF8430910509F45A
:102AF00086C00CF46FC08530910531F741E551E097
:102B000060E080E00E94E3094CE351E061E080E096
:102B10000E94E30947E251E062E080E00E94E3099D
:102B200042E151E063E080E00E94E3093BC04AEEED
:102B300052E060E080E00E94E30945ED52E061E090
:102B400080E00E94E30940EC52E062E080E00E94F5
:102B5000E3094CEA52E063E080E00E94E30942E0CE
:102B600063E083E10E94FB0941CF49E952E060E064
:102B700080E00E94E30944E852E061E080E00E94C6
:102B8000E3094FE652E062E080E00E94E3094BE592
:102B900052E063E080E00E94E30942E063E083E109
:102BA0000E94FB0943E060E0DCCF47E452E060E0D4
:102BB00080E00E94E30942E352E061E080E00E948D
:102BC000E3094DE152E062E080E00E94E30949E060
:102BD00052E0DFCF45EF51E060E080E00E94E30982
:102BE00040EE51E061E080E00E94E3094BEC51E0EF
:102BF00062E080E00E94E30947EB51E0CACF43EA7C
:102C000051E060E080E00E94E3094EE851E061E0BD
:102C100080E00E94E30949E751E062E080E00E9421
:102C2000E30945E651E0B5CFFFEF23EC39E0F15081
:102C300020403040E1F700C000008FEF93ECE9E066
:102C400081509040E040E1F700C000000E9435094B
:102C500041E051E061E082E00E94E309FFEF20E7FC
:102C600032E0F15020403040E1F700C0000003E1C5
:102C700053E1F52E4FEF50E060E0802F0E94E30912
:102C80004DEF50E062E08F2D801B0E94E3098FEF33
:102C900090E7E2E081509040E040E1F700C00000A2
:102CA000015040F749EE50E063E080E00E94E30904
:102CB000FFEF2DE339E4F15020403040E1F700C050
:102CC000000044ED50E060E080E00E94E3094FEB3B
:102CD00050E062E080E00E94E3098FEF99E6E8E1CE
:102CE00081509040E040E1F700C000004AEA50E027
:102CF00061E080E00E94E309FFEF29E638E1F1504E
:102D000020403040E1F700C000008FEF91EEE4E09A
:102D100081509040E040E1F700C000000E94D40BD9
:102D20006E877F87888B998B2A9A40EE50E064E00B
:102D300070E080911602909117020E94B21DE091FE
:102D40001602F091170280818823D1F144E050E00F
:102D500070E060E0CE0101960E94B21D49815A8167
:102D60006B817C818E859F85A889B9894817590711
:102D70006A077B0771F044E050E070E060E0CE014C
:102D80000E960E94C21D60E084E090E00E94CC1D7F
:102D900024CEF1E0FB8B00E08091160290911702A7
:102DA0000E94B906882309F4BBC18B89813009F0E0
:102DB0000ECE2A9A60E084E090E00E94CC1D07CEFF
:102DC0005082E0911602F091170211821B8A00E0F6
:102DD0000E943509609116027091170280E791E018
:102DE0000E94170710925F01F50128E511922A95BC
:102DF000E9F70E94580C81110EC080E1E0E7F1E094
:102E0000A0E6B1E001900D928A95E1F780915F0113
:102E10008F5F80935F01F12C11E01F0D40E060E0B7
:102E2000812F0E94D10C81111FC080915F018F5FA3
:102E300080935F01F12E33E01313EECF80915F0199
:102E4000811125C0011112C04BE950E061E083E01F
:102E50000E94E3098FEF9BE7E2E981509040E04058
:102E6000E1F700C00000B9CD1F2DE8CFF50128E53E
:102E700011922A95E9F781E080935F013EE2309359
:102E80009F013093A00180E180939E0110E0112307
:102E900009F4BCC1115081E00E948E0CF8CF41E0D2
:102EA00060E0812F0E94D10C811106C00E9435097B
:102EB000812F0E94FC0BE0C18F3F09F0DDC187CD5F
:102EC0003399A9C180915F01823098F0112301F1FB
:102ED000FF24FA94F10E40E06F2D80E00E94FB0980
:102EE00081E00E948E0C40E2612F80E00E94FB098D
:102EF0001F2D83E033998FC12FEF31EE94E02150E5
:102F000030409040E1F700C00000815099F7DACFDF
:102F1000809189018E3269F341E061E080E00E9496
:102F2000D10C811106C00E94350980E00E94FC0B83
:102F3000E0CF8F3FF1F64BCD1A8A31990DC0EA8967
:102F4000EF5FEA8BFFEF21EE34E0F150204030409C
:102F5000E1F700C00000F1CF8FEF95EAEEE081507D
:102F60009040E040E1F700C00000812E912C149DBC
:102F7000C00111249C0121563E4F6901FC01EA5613
:102F8000FE4F7F01808584FF68C042E050E066E12B
:102F900071E0C9010E94431D892B89F4002319F0B7
:102FA000015001111FC0E0911602F09117025082EA
:102FB000E0911602F0911702118200E04BC0F70178
:102FC00081858E3271F3053068F4FAE00F9FD001ED
:102FD0001124A85EBD4F8DE0F60101900D928A95F7
:102FE000E1F70F5F88E1E82E82E0F82E10E0E0E0E4
:102FF000DD24D394DE0E8091160290911702E80F23
:10300000F92FF11D5082F70101900020E9F7319767
:10301000AF014E195F098091160290911702B70116
:103020008D0D911D0E94501DF70101900020E9F7C0
:103030003197EE19FF09ED0D1F5F2AE0E20EF11C3A
:103040001017B0F28091160290911702E80FF92F35
:10305000F11D10820E94F60BBBCE0E94F60BE12CF4
:10306000002381F148E1642E42E0742EF12CE12C22
:10307000F30101900020E9F73197AF014619570994
:103080008091160290911702B3018E0D911D0E943E
:10309000501DF30101900020E9F73197E619F70977
:1030A000EE0DEE24E394EE0E80911602909117023D
:1030B000E80FF92FF11D5082F3943AE0630E711C72
:1030C0000F11D6CFF60101900020E9F73197AF013B
:1030D0004C195D09F12C8091160290911702B601EE
:1030E0008E0D9F1D0E94501DF60101900020E9F7F2
:1030F0003197CF018C199D09E0911602F0911702CA
:10310000EE0DFF1DE80FF91F1082489CF001499C4D
:10311000F00D1124EA56FE4F80858170782E3CCE4A
:10312000149DC0011124FC01E156FE4F7F01FB8973
:10313000F111B1C00E94350980E00E94F90980E2D6
:103140000E94F909B701CE0101960E94971DCE0198
:1031500001960E949E1DCE0101960E94AE092A8909
:103160002531C0F02A9A44E050E070E060E0CE01E2
:103170000E960E94C21D8091160290911702FC01CA
:1031800001900020E9F7AF01481B590B64E070E0A3
:103190000E94C21D48E850E063E081E00E94E3091C
:1031A0008091040290910502A0910602B09107025D
:1031B000AC01BD015F716627772721E0452B462BC7
:1031C000472B09F420E03DE0B695A79597958795A4
:1031D0003A95D1F7820F80935D0180915D0183352F
:1031E00018F0F2E5F0935D0169E171E0C7010E941A
:1031F000721D21E0892B09F420E0772009F468C0D2
:10320000529A822F0E941F0F8111E1CB0E94350933
:10321000812F0E94FC0B319B8FCE329B04C0339BCD
:1032200002C03199FACF0E94D40BCE84DF84E888A3
:10323000F9886C157D058E059F0509F0C8CB32997C
:103240003FCE80915F018230B8F08150990B181702
:1032500019060CF024CEFF24F394F10E40E06F2DFC
:1032600080E00E94FB0980E00E948E0C40E2612F0A
:1032700080E00E94FB091F2D83E0329921CE9FEF51
:10328000E1EEF4E09150E040F040E1F700C00000D2
:10329000815099F7D6CFA0911602B0911702FD0187
:1032A00001900020E9F731974E2F4A1B242F30E080
:1032B000CD01820F931FFC0180818F3211F04150AC
:1032C000F5CFC90101968A0F9B1F0E94AE0962CFFC
:1032D000529897CF90E080E0089580918706909172
:1032E0008806891B990B089590918806809187061E
:1032F0002FEF3FEF981748F4E92FF0E0E757F94F29
:10330000208130E09F5F90938806C9010895E09185
:10331000880680918706E81730F4F0E0E757F94F08
:10332000808190E008958FEF9FEF08950895CF93E7
:10333000DF93EC01E0916006F09161063097F1F0C7
:1033400090918806809187069817C0F090E0292F09
:1033500030E02617370754F4DE01A20FB31F4C915B
:103360002757394FD9014C939F5FF1CF10928806B0
:1033700060938706CB01DF91CF910994DF91CF91C4
:103380000895E0916206F0916306309729F010925B
:1033900066061092650609940895CF93DF931F92F5
:1033A000CDB7DEB76983209164062223F9F020911E
:1033B0006506203258F021E030E0FC01338322839F
:1033C00090E080E00F90DF91CF91089580916606A4
:1033D000E82FF0E0E959F94F998190838F5F80934E
:1033E00066068093650681E090E0ECCF61E0CE0157
:1033F00001960E94771AF7CFCF92DF92EF92FF9259
:103400000F931F93CF93DF937C01CB018A0120910F
:103410006406222389F0EB016B01C40ED51ECC1586
:10342000DD0569F06991D701ED91FC910190F08182
:10343000E02DC7010995F3CF642F0E94771AC801C8
:10344000DF91CF911F910F91FF90EF90DF90CF9080
:1034500008951092880610928706109266061092C0
:1034600065060E944C1A81EC99E10E94A31A87E933
:1034700099E10C949E1AE4E5F6E01382128288EE3C
:1034800093E0A0E0B0E084839583A683B7838AE2CB
:1034900091E091838083089510921C0781E08093CE
:1034A0001A071092190761E082E10E948F1C61E007
:1034B00083E10E948F1CE9EBF0E080818E7F8083A6
:1034C00080818D7F808388E48093B80085E4809339
:1034D000BC000895ECEBF0E080818A7B808360E0A3
:1034E00082E10E948F1C60E083E10C948F1C20918C
:1034F000CB06260F3327331F21323105ECF4209100
:103500001C07FC0190E080E0243069F082E008951F
:10351000A091CB062191AC014353594FA40FB52F75
:10352000B11D2C930196861798F38091CB06680FF6
:103530006093CB0680E0089581E008959093100792
:1035400080930F07089590931207809311070895B1
:1035500085EC8093BC0010921C070895CF93DF93F5
:1035600091E090931407882361F0C091B800D09146
:10357000BA000E946A1A0E944C1AD093BA00C093F3
:10358000B800DF91CF91089585ED8093BC008091C4
:10359000150790911607A0911707B0911807079685
:1035A000A11DB11D23E0B695A795979587952A95FE
:1035B000D1F72091BC0024FD03C010921C07089590
:1035C00040911507509116076091170770911807E1
:1035D000452B462B472B69F30097A105B10541F018
:1035E0002AE22A95F1F700C00197A109B109E1CFBC
:1035F000809113070C94AE1A1F920F920FB60F9280
:1036000011242F933F934F935F936F937F938F93E7
:103610009F93AF93BF93EF93FF938091B900887FFF
:10362000803609F44CC008F03FC0883209F4A8C0C5
:1036300018F5803109F49CC0B8F4882309F4F9C066
:10364000883009F495C0FF91EF91BF91AF919F91A0
:103650008F917F916F915F914F913F912F910F903B
:103660000FBE0F901F901895883109F489C08032E1
:1036700051F78093A90615C0803409F49EC048F420
:103680008033B9F38833F9F68093A9060E94A81A0B
:10369000DACF803509F485C0883509F496C08834BE
:1036A00091F60E94C41ACFCF883909F48CC038F53E
:1036B000883729F050F4883611F0803721F683E0FE
:1036C00080931C071092AA0657C0883809F47BC063
:1036D000803919F0803809F0B6CF8091AA0680327F
:1036E00008F071C0E091AA0681E08E0F8093AA06CF
:1036F0008091BB00F0E0E555F94F80833DC0803BF1
:1037000039F0E0F4803A09F479C0883A09F09BCFA7
:1037100084E080931C071092CC061092CB06E091B7
:103720001107F091120709958091CB0681110FC006
:1037300081E08093CB061092CD0609C0803C09F44D
:1037400076C0883C09F473C0883B09F07CCFE091D7
:10375000CC0681E08E0F8093CC06F0E0E353F94F66
:1037600080818093BB009091CC068091CB0629C0CC
:1037700080911B078093BB0085EC8093BC0063CFD6
:103780009091EE068091ED06981758F5E091EE06BF
:1037900081E08E0F8093EE06F0E0E151F94F8081D9
:1037A000E9CFE091EE0681E08E0F8093EE068091E6
:1037B000BB00F0E0E151F94F80839091EE068091DB
:1037C000ED069817C8F285E8D8CFE091EE0681E0C3
:1037D0008E0F8093EE068091BB00F0E0E151F94F2F
:1037E000808380911A0781115CCF81E08093190753
:1037F00084EA8093BC0010921C0725CF0E94A81A6F
:103800008091AA06803230F4E091AA06F0E0E555F6
:10381000F94F10826091AA0670E0E0910F07F091D5
:1038200010078BEA96E009951092AA060CCF85EC5A
:10383000E0CF1092A90635CF1F920F920FB60F92CC
:1038400011242F933F938F939F93AF93BF938091B6
:103850001E0790911F07A0912007B091210730917A
:103860001D0723E0230F2D3758F50196A11DB11D2B
:1038700020931D0780931E0790931F07A093200796
:10388000B09321078091220790912307A0912407EC
:10389000B09125070196A11DB11D80932207909339
:1038A0002307A0932407B0932507BF91AF919F9161
:1038B0008F913F912F910F900FBE0F901F901895F1
:1038C00026E8230F0296A11DB11DD2CF833081F0CF
:1038D00028F4813099F08230A9F008958730A9F05A
:1038E0008830C9F08430B1F4809180008F7D03C0AE
:1038F000809180008F7780938000089584B58F77C2
:1039000084BD089584B58F7DFBCF8091B0008F7703
:103910008093B00008958091B0008F7DF9CF1F9300
:10392000CF93DF93282F30E0F901E150FB4F8491D2
:10393000F901ED5EFA4FD491F901E95DFA4FC491B6
:10394000CC23A9F0162F81110E94661CEC2FF0E009
:10395000EE0FFF1FE55CFA4FA591B4918FB7F89475
:10396000EC91111108C0D095DE23DC938FBFDF915D
:10397000CF911F910895DE2BF8CFDB018F939F939A
:103980000E94231DBF91AF91A29F800D911DA39F07
:10399000900DB29F900D11240895991B79E004C0F9
:1039A000991F961708F0961B881F7A95C9F780957E
:1039B0000895AA1BBB1B51E107C0AA1FBB1FA61776
:1039C000B70710F0A61BB70B881F991F5A95A9F7C8
:1039D00080959095BC01CD01089597FB072E16F4B4
:1039E000009407D077FD09D00E94D91C07FC05D0B0
:1039F0003EF4909581959F4F0895709561957F4F06
:103A00000895A1E21A2EAA1BBB1BFD010DC0AA1F1F
:103A1000BB1FEE1FFF1FA217B307E407F50720F037
:103A2000A21BB30BE40BF50B661F771F881F991FB2
:103A30001A9469F760957095809590959B01AC01FB
:103A4000BD01CF0108950E94341DA59F900DB49F24
:103A5000900DA49F800D911D11240895EE0FFF1F5E
:103A60000590F491E02D0994A29FB001B39FC0018D
:103A7000A39F700D811D1124911DB29F700D811D9A
:103A80001124911D0895FB01DC0104C08D9101906A
:103A9000801921F441505040C8F7881B990B0895B4
:103AA000FB01DC0102C001900D9241505040D8F75B
:103AB00008956817790768F4FB01DC01E40FF51F2E
:103AC000A40FB51F02C002900E9241505040D8F78B
:103AD00008950C94501DDC0101C06D93415050407D
:103AE000E0F70895FB0151915523B1F0BF01DC01CE
:103AF000052E4D91442369F010D0D9F7CD010190E6
:103B0000002049F04D91411108D0C9F3FB0141114A
:103B1000EECF81E090E001970895402539F04032E2
:103B200029F440294B57465E08F018940895FB018C
:103B3000DC0101900D920020E1F70895DC016C9109
:103B400061546A3108F060526F596D93C1F708955E
:103B5000DC016C9161566A3108F0605E6F5B6D93B9
:103B6000C1F70895DC01CB01FC01F999FECF06C035
:103B7000F2BDE1BDF89A319600B40D92415050402B
:103B8000B8F70895DC01CB0103C02D910E94CD1D33
:103B900041505040D0F70895262FF999FECF1FBA13
:103BA00092BD81BD20BD0FB6F894FA9AF99A0FBE66
:083BB00001960895F894FFCF7F
:103BB80003202B2C3B5B3D5C5D222A3A3C3E3F7C3C
:103BC800002E747264002E2E002E69736400777DB7
:103BD800DFDDF7FDDFDD00000000CD19FC196A19F3
:083BE80096196D197419871973
:00000001FF
