:100000000C9481010C94A9010C94A9010C94A901F0
:100010000C94A9010C94F00B0C94A9010C94A90167
:100020000C94A9010C94A9010C94A9010C94A901A8
:100030000C94A9010C94A9010C94A9010C94A90198
:100040000C940F190C94A9010C94A9010C94A9010A
:100050000C94A9010C94A9010C94A9010C94A90178
:100060000C94EF170C94A90110181C1E1C181000FA
:1000700000071911111F000043594C3A203030205D
:1000800020484541443A2030002D3E002D2D204E81
:100090006F2066696C6573202D2D005A58204644E8
:1000A0004420456D756C2020322E30002D2D4E6F72
:1000B00020436172642D2D00000021104220633026
:1000C0008440A550C660E770088129914AA16BB1B0
:1000D0008CC1ADD1CEE1EFF1311210027332522258
:1000E000B5529442F772D662399318837BB35AA300
:1000F000BDD39CC3FFF3DEE3622443342004011428
:10010000E664C774A44485546AA54BB5288509954F
:10011000EEE5CFF5ACC58DD55336722611163006F7
:10012000D776F6669556B4465BB77AA7199738879F
:10013000DFF7FEE79DD7BCC7C448E5588668A778B7
:100140004008611802282338CCC9EDD98EE9AFF9EF
:10015000488969990AA92BB9F55AD44AB77A966A97
:10016000711A500A333A122AFDDBDCCBBFFB9EEB3F
:10017000799B588B3BBB1AABA66C877CE44CC55C67
:10018000222C033C600C411CAEED8FFDECCDCDDD8F
:100190002AAD0BBD688D499D977EB66ED55EF44E37
:1001A000133E322E511E700E9FFFBEEFDDDFFCCFDF
:1001B0001BBF3AAF599F788F8891A981CAB1EBA133
:1001C0000CD12DC14EF16FE18010A100C230E320AF
:1001D0000450254046706760B9839893FBA3DAB357
:1001E0003DC31CD37FE35EF3B1029012F322D232FF
:1001F0003542145277625672EAB5CBA5A895898527
:100200006EF54FE52CD50DC5E234C324A01481044E
:100210006674476424540544DBA7FAB79987B897F6
:100220005FE77EF71DC73CD7D326F2369106B0169E
:1002300057667676154634564CD96DC90EF92FE9B6
:10024000C899E9898AB9ABA94458654806782768EE
:10025000C018E1088238A3287DCB5CDB3FEB1EFB96
:10026000F98BD89BBBAB9ABB754A545A376A167A3E
:10027000F10AD01AB32A923A2EFD0FED6CDD4DCD66
:10028000AABD8BADE89DC98D267C076C645C454C8E
:10029000A23C832CE01CC10C1FEF3EFF5DCF7CDF36
:1002A0009BAFBABFD98FF89F176E367E554E745EDE
:1002B000932EB23ED10EF01E000000080002010095
:1002C0000003040700000000000000000102040811
:1002D00010204080010204081020010204081020B0
:1002E00004040404040404040202020202020303DC
:1002F0000303030300000000250028002B00AB01CE
:100300003C1611241FBECFEFD8E0DEBFCDBF11E0F9
:10031000A0E0B1E0EEEAF5E302C005900D92A4344E
:10032000B107D9F726E0A4E4B1E001C01D92A33ED5
:10033000B207E1F711E0C1E8D1E004C02197FE0166
:100340000E94441ACF37D107C9F70E94E90E0C94D6
:10035000D51A0C94000082E0809347010895CF9352
:10036000C82F6CE370E080E196E00E94241660E8FC
:1003700080E196E00E94AC156C2F80E196E00E942F
:10038000AC1580E196E0CF910C9439160F931F9332
:10039000CF938C01C42F80EB860F0E94AF01F80130
:1003A0008481C89F802D11248F700E94AF01F801B5
:1003B0008481C89FC001112424E0959587952A95D2
:1003C000E1F78F70805FCF911F910F910C94AF0177
:1003D000CF93C62F6CE370E080E196E00E94241674
:1003E00060E480E196E00E94AC156C2F80E196E01D
:1003F0000E94AC1580E196E0CF910C943916FF92E3
:100400000F931F93CF93DF93EC0189819A81892BFE
:1004100009F180EE860F803608F060E2F12C862F1D
:100420008052990B8C018C81F816A0F4809FB0014A
:10043000819F700D1124EB816E0F711D6F0D711D69
:10044000E981FA81E60FF71F6491CE010E94E8016D
:10045000F394E9CF80E0DF91CF911F910F91FF904E
:1004600008950F931F93CF93DF938C018EEA0E9420
:10047000AF01C0E040E06C2FC8010E94C601D0E18E
:1004800060E2C8010E94FF01D150D1F7CF5FC830B0
:1004900089F78FEA0E94AF0140E060E0C801DF9178
:1004A000CF911F910F910C94C6010F931F93CF937F
:1004B000DF938C01EB01FE0164912196662321F00C
:1004C000C8010E94FF01F7CFDF91CF911F910F91DB
:1004D0000895BF92CF92DF92EF92FF920F931F93F6
:1004E000CF93DF9300D000D0CDB7DEB77C01B62E1E
:1004F0001A8219821C821B8267FF19C06DE20E945A
:10050000FF01B19431E020E0CE0101966C014AE098
:10051000022F10E01B1414F50C0D1D1D8B2D642FE4
:100520000E94E119F8019083B82E2F5FF1CF30E0DF
:100530006111E9CF60E30E94FF01BB24B3948B2DCE
:100540000F900F900F900F90DF91CF911F910F910F
:10055000FF90EF90DF90CF90BF900895B22EB30E32
:100560000C0D1D1D0C151D0551F3F80162918F0135
:10057000605DC7010E94FF01F5CF0F931F93E091CB
:100580004B01F0914C019B01AC0122503109410912
:10059000510982819381A481B5810297A109B10992
:1005A000281739074A075B0778F4A081B0E00E945A
:1005B000391A0685178520893189600F711F821FBE
:1005C000931F1F910F91089560E070E0CB01F9CF68
:1005D000CF92DF92EF92FF920F931F93CF93DF930F
:1005E000EC016A017B0102E010E02EEF31E00E9495
:1005F000E70A892BF1F48881998185359A4AD9F4E3
:1006000022E530E0B701A601CE010E94E70A892B5E
:10061000A1F481E0288139812634314409F480E055
:10062000DF91CF911F910F91FF90EF90DF90CF90CE
:10063000089583E0F5CF82E0F3CF81E0F1CFCF9250
:10064000DF92EF92FF920F931F93CF93DF9300D02F
:1006500000D0CDB7DEB7623071058105910588F411
:1006600061E070E080E090E00F900F900F900F90AD
:10067000DF91CF911F910F91FF90EF90DF90CF907E
:100680000895E0914B01F0914C01C280D380E48049
:10069000F5806C157D058E059F0510F7AB01BC013B
:1006A000242F2F7784E0289F9001112487E07695EE
:1006B0006795579547958A95D1F7C680D780E0848E
:1006C000F1844C0D5D1D6E1D7F1D04E010E0CE0118
:1006D00001960E94E70A892B19F669817A818B813C
:1006E0009C819F70C1CF0F931F93CF93DF93EC0139
:1006F000E0914B01F0914C01198218826C817D814F
:100700008E819F81613071058105910569F10281BA
:10071000138124813581601771078207930720F5C3
:10072000611571058105910521F4628573858485C4
:100730009585688779878A879B876115710581050B
:10074000910569F00E94BD026C877D878E879F8727
:1007500090E080E0DF91CF911F910F910895628525
:10076000738584859585F0CF81E090E0F3CF2F925B
:100770003F924F925F926F927F928F929F92AF9231
:10078000BF92CF92DF92EF92FF920F931F93CF937E
:10079000DF93EC01E880F9808FEFE81AF80A19F48A
:1007A00083E090E043C04C845D846E847F84411478
:1007B000510461047104A1F300914B0110914C01AB
:1007C000F80126A037A088849984AA84BB84670195
:1007D000FFE0CF22DD24C114D10409F04FC0D301C2
:1007E000C2010196A11DB11D8C879D87AE87BF8771
:1007F00081149104A104B10499F2F801808181501F
:10080000990B970144E0369527954A95E1F78223A5
:100810009323892B99F5C501B4010E941F0362300F
:10082000710581059105A8F481E090E0DF91CF91F9
:100830001F910F91FF90EF90DF90CF90BF90AF90FE
:100840009F908F907F906F905F904F903F902F90F0
:100850000895F801028113812481358160177107A1
:100860008207930708F09CCF688779878A879B87E0
:100870000E94BD026C877D878E879F87960185E0E9
:10088000220F331F8A95E1F74C855D856E857F8544
:1008900000E210E0C1010E94E70A892B29F6F1016C
:1008A0008081811109C04C865D866E867F86888630
:1008B0009986AA86BB8674CFF982E88290E080E0B0
:1008C000B5CFAF92BF92CF92DF92EF92FF920F938C
:1008D0001F93CF93DF936C017B01FB0180816F5FDE
:1008E0007F4F8032C9F38F3209F47B01F601148205
:1008F000158216821782F7018081803208F088C045
:10090000C601DF91CF911F910F91FF90EF90DF9083
:10091000CF90BF90AF900C947303C1E0D0E0CE01B4
:10092000DF91CF911F910F91FF90EF90DF90CF90CB
:10093000BF90AF900895C3E0D0E0F1CF222309F437
:1009400093C0E30EF11C81E08B87C6010E94730304
:10095000EC01892B21F7E0914B01F0914C01A6A00D
:10096000B7A0F601208131812F70332745E0220F97
:10097000331F4A95E1F7448555856685778500E202
:1009800010E0C5010E94E70A892B39F6F501808144
:10099000882389F2838583FD0BC0F60102811381D0
:1009A0004BE050E0B801C5010E94591A892B71F043
:1009B000C6010E94B7030097A1F2EC01B0CF222339
:1009C00009F452C0E30EF11C80E0BECFF80183852C
:1009D0008111A5CFE0914B01F0914C0106A0F7A148
:1009E000E02D838584FFA7CF84899589B0E0A0E0BE
:1009F000DC0199278827428D538D70E060E0842BBD
:100A0000952BA62BB72BF60184839583A683B783FA
:100A1000F601C281D3814BE050E060E270E0CE018C
:100A20000E94811A20E0E0E098E031E03E0FEE0DF8
:100A3000FF2DF11D8081803208F480CF8F3209F4C0
:100A4000BECF8E32A1F0291778F48F3768F4682F63
:100A500070E0E1E1F1E04191442369F0042E000CE3
:100A6000550B64177507B9F7C5E0D0E058CF98303B
:100A7000D9F78BE00CC04FE9480F4A3108F4805297
:100A8000FE01E20FF11D8083892F91E0920F292F43
:100A9000E32F982FCACF4F925F926F927F92AF92BF
:100AA000BF92CF92DF92EF92FF920F931F93CF935B
:100AB000DF93EC01E0914B01F0914C0188E090E074
:100AC0003097D9F0088119810115110509F46FC01B
:100AD0008C859D85AE85BF85892B8A2B8B2B09F450
:100AE00066C04C805D806E807F8081E04816510436
:100AF0006104710489F481E090E0DF91CF911F914E
:100B00000F91FF90EF90DF90CF90BF90AF907F90CC
:100B10006F905F904F90089582819381A481B581F9
:100B2000481659066A067B0630F7411451046104E1
:100B3000710421F442845384648475840150110942
:100B4000C80124E0969587952A95E1F7608170E0C9
:100B50000E94EF195B016C01F12CE12CEA14FB04FB
:100B600088F4C301B2010E941F032B013C0182E003
:100B7000481651046104710408F4BDCF8FEFE81AE0
:100B8000F80AECCF488659866A867B86C301B20193
:100B90000E94BD026C0D7D1D811D911D6C877D879E
:100BA0008E879F871983088390E080E0A6CF83E03B
:100BB00090E0A3CF2F923F924F925F926F927F92DD
:100BC0008F929F92AF92BF92CF92DF92EF92FF925D
:100BD0000F931F93CF93DF93CDB7DEB7A4970FB6D4
:100BE000F894DEBF0FBECDBF10924C0110924B01A6
:100BF000009709F4A2C01C010E94670A80FDA0C0F2
:100C000040E050E0BA01CE0101960E94E802C12CFA
:100C1000D12C76018130C9F500E110E02EEB31E0F6
:100C200040E050E0BA01CE0101960E94E70A892B0C
:100C3000D9F081E090E0A4960FB6F894DEBF0FBE25
:100C4000CDBFDF91CF911F910F91FF90EF90DF907B
:100C5000CF90BF90AF909F908F907F906F905F905C
:100C60004F903F902F9008958D818B50823018F0D7
:100C700089E090E0E0CFC984DA84EB84FC84B7019A
:100C8000A601CE0101960E94E802833091F2811103
:100C9000EFCF04E210E02DE030E0B701A601CE0175
:100CA00001960E94E70A892B21F6E981D101EC9394
:100CB000AC81288D398D4A8D5B8DB0E00E94391A48
:100CC0002B013C018A809B80B12CA12C6C897D89F1
:100CD0008E899F89681979098A099B0964197509A0
:100CE000860997092E2F30E050E040E00E94171A45
:100CF0002E5F3F4F4F4F5F4FF10122833383448379
:100D0000558388A199A1AAA1BBA182879387A487B3
:100D1000B5878C0C9D1CAE1CBF1C86829782A0865A
:100D2000B186840C951CA61CB71C86869786A08A63
:100D3000B18A30924C0120924B0190E080E07BCF51
:100D400082E090E078CFEF92FF920F931F93CF93C2
:100D5000DF93CDB7DEB76C970FB6F894DEBF0FBE4A
:100D6000CDBF00914B0110914C010115110509F403
:100D700044C0BC01F801E6A0F7A0CE0141969C83D7
:100D80008B8340970E946104009751F5F7018081A1
:100D90008823A9F1838584FD32C084899589B0E0D8
:100DA000A0E0DC0199278827428D538D70E060E038
:100DB000842B952BA62BB72BF801828F938FA48FB2
:100DC000B58FF701848D958DA68DB78DF801868B33
:100DD000978BA08FB18F128A138A148A158A80E0AC
:100DE0006C960FB6F894DEBF0FBECDBFDF91CF91EA
:100DF0001F910F91FF90EF90089588E0F1CF83E06D
:100E0000EFCFEF92FF920F931F93CF93DF93CDB766
:100E1000DEB72C970FB6F894DEBF0FBECDBFE091C2
:100E20004B01F0914C01DC0111961C921E923097FF
:100E3000C9F18C01CE01019613969C938E93129763
:100E4000E6A0F7A0CD010E9461040097F1F4F7013C
:100E500080818823B9F0838584FF27C084899589A0
:100E6000B0E0A0E0DC0199278827428D538D70E027
:100E700060E0842B952BA62BB72BF80184839583F8
:100E8000A683B783C8010E9473032C960FB6F8940B
:100E9000DEBF0FBECDBFDF91CF911F910F91FF90AD
:100EA000EF90089588E090E0F0CF83E090E0EDCF00
:100EB0009F92AF92BF92CF92DF92EF92FF920F93E9
:100EC0001F93CF93DF93CDB7DEB72C970FB6F8946F
:100ED000DEBF0FBECDBFE0914B01F0914C013097CA
:100EE00009F4D9C0942E7B016C01CE010196D60184
:100EF00013969C938E931297672BA9F4C6010E94B8
:100F000073032C960FB6F894DEBF0FBECDBFDF91F2
:100F1000CF911F910F91FF90EF90DF90CF90BF90F6
:100F2000AF909F900895A6A0B7A083E090E0F6014F
:100F3000448555856685778541155105610571059F
:100F400009F448C0208131812F70332785E0220FBA
:100F5000331F8A95E1F700E210E0C5010E94E70A1D
:100F6000892B09F09BC0D5018C9181111AC0E091A9
:100F70004B01F0914C01A6A0B7A0F7013996D6011C
:100F80001C964D915D916D917C911F97452B462B41
:100F9000472B41F5108290E080E0B3CF90E080E0F5
:100FA000C6CF853E21F0F501838583FFE0CFF1E0D8
:100FB0009F120AC0C6010E944B05009779F3833047
:100FC000910509F09ECFD3CF9110E8CFC6010E94C2
:100FD000B703F3CF8330910551F2F70139960097AB
:100FE000C9F28FCFB50197012F5E3F4FDB018D9185
:100FF000BD01803261F0853009F485EEAF014F5FAD
:101000005F4F80834217530709F041C0F901D501B2
:1010100018968C918032A9F08EE28083B501685FCA
:101020007F4FCF0104963196DB014D91BD014032D7
:1010300041F09F012F5F3F4F40832817390749F543
:10104000FC01D5011B968C91D70118968C93D50184
:101050005C964D915D916D917C915F97D7014D9319
:101060005D936D937C931397D50158968D919C91C8
:10107000D70115969C938E931497D50156968D9112
:101080009C91D70117969C938E93169783CFFA0164
:10109000ADCFF901C9CF88E090E033CF81E090E097
:1010A00030CF94EA9093BC009091BC0097FFFCCFA6
:1010B0009091B900987F983021F0903111F081E043
:1010C0000895880F8093BB0084E88093BC008091D2
:1010D000BC0087FFFCCF8091B900887F883111F078
:1010E000803469F780E0089584E98093BC008091A2
:1010F000BC0084FDFCCF0895CF93C82F87E20E94E7
:10110000510820910001237081E090E001C0880F18
:101110002A95EAF7C82BC093BB0084E88093BC00F3
:101120008091BC0087FFFCCFCF910C947408CF93C3
:10113000C82F84600E947C088AE08A95F1F700C07D
:101140008C2F8B7FCF910C947C08982F807194FD0D
:1011500080E195FD806296FD806497FD806808952A
:10116000CF93DF93C82F0E94A508D82FDE7F8D2F45
:101170000E9497088D2F0E947C0885EC8A95F1F7D4
:1011800000008C2F8295807F0E94A508D82FDE7FDB
:101190008D2F0E9497088D2F0E947C08CC7F39F0FC
:1011A00095EC9A95F1F70000DF91CF9108958FE3C8
:1011B0009FE10197F1F700C0F6CFCF93C82F0E94AF
:1011C000A50881600E94970885EC8A95F1F70000D8
:1011D0008C2F8295807F0E94A508C82FC1608C2F1C
:1011E0000E9497088C2F0E947C088FE39FE1019753
:1011F000F1F700C00000CF9108950F931F93CF9394
:10120000DF93C62F28E0829FC001112480640E94D2
:10121000B00888E0C89FE0011124C859DF4F8E0153
:10122000085F1F4FFE0184910E94DD0821960C1774
:101230001D07C1F7DF91CF911F910F91089581E0B4
:101240000C94B00888B1806388B987B18F7C87B966
:101250001092B90088E48093B80080E00E947C0876
:101260002FEF83EF91E0215080409040E1F700C0E4
:10127000000080E30E947C0880E30E9497088FE1D1
:101280009EE40197F1F700C0000080E30E949708F8
:101290008FE891E00197F1F700C0000080E30E9421
:1012A00097088FE891E00197F1F700C0000080E215
:1012B0000E947C0880E20E94970880E20E947C08DD
:1012C0008FE891E00197F1F700C0000088E20E94EA
:1012D000B0088CE00E94B00886E00E94B0080E942E
:1012E0001F0960E080E00E94FD0861E081E00C944D
:1012F000FD0883E08093000180E00C947C0810924C
:10130000000180E00C947C08809100010895613018
:1013100049F028F0623041F0633041F00895805880
:101320000C94B0088054FCCF8C56FACF8C52F8CF76
:101330000F931F93CF938C01C0E08C2F90E0F801A6
:1013400001900020E9F73197E01BF10B8E179F0702
:1013500040F4800F911FFC0180810E94DD08CF5F67
:10136000ECCFCF911F910F910895CF93DF93EA01B6
:101370000E948709CE01DF91CF910C949809CF93F9
:10138000DF93EC01FE0184912196882319F00E94DD
:10139000DD08F8CFDF91CF910895CF93DF93EA0175
:1013A0000E948709CE01DF91CF910C94BF09805D27
:1013B0000C94DD08CF93C42F0E94870980E38C0F23
:1013C000CF910C94DD080C94DD08CF93C42F0E94BC
:1013D00087098C2FCF910C94DD088FEF8EBD0DB453
:1013E00007FEFDCF8EB508950DB407FEFDCF8EB577
:1013F00008958EBD0DB407FEFDCF0895BF92CF9224
:10140000DF92EF92FF920F931F93CF93DF93C82F3A
:10141000E42ED52EC62EB72EF22E2A9A87FF0BC0A9
:1014200020E040E050E0BA0187E70E94FE09D82F93
:101430008230A0F4CF772A9A0E94ED092A980E9460
:10144000ED090E94ED0905E610E00E94ED09D82F94
:101450008F3F51F101501109C1F7DFEF8D2FDF915F
:10146000CF911F910F91FF90EF90DF90CF90BF90A1
:101470000895C83409F4D7E88D2F0E94F909C8EC03
:101480000E94ED09D82F87FD0CC00FE511E0C0E0E8
:10149000CF1521F30E94ED09F80181938F01CF5FF1
:1014A000F7CFC15069F7F1CF8C2F0E94F9098B2D2E
:1014B0000E94F9098C2D0E94F9098D2D0E94F909CD
:1014C0008E2D0E94F909C034A1F6D5E9D5CF1F931E
:1014D000CF93DF93109263012A9ACAE00E94ED092C
:1014E000C150E1F720E040E050E0BA0180E40E9402
:1014F000FE09C82F813001F524E04AEA51E060E09E
:1015000070E088E40E94FE09813021F5809161013C
:10151000813091F4809162018A3A71F4C8EAD1E68F
:1015200020E040E050E060E070E489EE0E94FE09B7
:10153000882389F12197A1F72A9A0E94ED0981E079
:1015400090916301911180E0DF91CF911F910895F7
:101550008CE02FC020E040E050E0BA0189EE0E940C
:10156000FE098230A0F482E08093630119EEC8EA9C
:10157000D1E620E040E050E0BA01812F0E94FE0950
:101580008823D1F02197A9F710926301D5CFC0939A
:10159000630111E4ECCF24E040E050E0BA018AE7B7
:1015A0000E94FE098111C8CF80915F0186FDD0CFD6
:1015B00084E080936301C0CF20E040E052E060E02F
:1015C00070E080E50E94FE098111DECFB5CFBF92A9
:1015D000CF92DF92EF92FF920F931F93CF93DF93FF
:1015E0007C0169018091630183FD07C089E0440F9C
:1015F000551F661F771F8A95D1F720E081E50E946D
:10160000FE09C0E4DCE9882361F081E090E0DF912D
:10161000CF911F910F91FF90EF90DF90CF90BF90EF
:1016200008950E94ED098F3F19F42197D1F7EDCF6E
:101630008E3F59F7D0E0C0E0BB24BA94BEBC0E94F4
:10164000F409CC15DD0550F00115110539F0F7014D
:10165000808301501109C70101967C012196C23097
:10166000DC0761F72A9A8FEF8EBD0E94F40981E0B2
:1016700090E0012B61F680E0CACFEF92FF920F93CA
:101680001F93CF93DF930097C9F0EA018C01209755
:10169000C1F1E0904D01F0904E01E114F10489F1A7
:1016A000F80181918F010E94F909F1E0EF1AF10828
:1016B000F0924E01E0924D012197E9CF411551057D
:1016C0006105710509F18091630183FD07C089E01F
:1016D000440F551F661F771F8A95D1F720E088E5D4
:1016E0000E94FE09D1E081110DC08FEF0E94F9091F
:1016F0008EEF0E94F90980E092E090934E01809372
:101700004D01D0E0C0E017C0C0914D01D0914E0115
:101710002197CD3F8FEFD80721F080E00E94F90993
:10172000F7CF0E94ED098F71853071F0D1E0C0E0F4
:101730002A9A0E94ED098D2F9C2FDF91CF911F9146
:101740000F91FF90EF90089508E813E10E94ED09D2
:101750008F3F61F00115110549F3EFE8F1E0319792
:10176000F1F700C0000001501109F0CFD1E0C0E056
:10177000012BF1F2D0E0DCCF1F93CF93DF9320E079
:1017800040E050E0BA018AE40E94FE0960E0811165
:101790000EC0CFE4D1E01FEF1EBD0E94F409899373
:1017A00081E0CF35D807C1F72A9A6091580170E0DF
:1017B00090E080E0DF91CF911F910895E1ECF0E09F
:1017C0008081886080830895E1ECF0E08081877FEC
:1017D00080830895E8E6F0E080818D7F808308951E
:1017E0001F920F920FB60F9211242F938F939F93F6
:1017F0004F9913C04C9911C080910E064D9B15C096
:10180000882319F0815080930E0680910E06811175
:1018100001C0539A81E080930C069F918F912F9184
:101820000F900FBE0F901F90189591E0980F909316
:101830000E0620910F06921302C080930E06539855
:10184000E9CFCF93DF9340E0682F80E00E94E50965
:10185000C0E0D6E180916501C817C0F4DC9FF001BB
:101860001124E456FE4F808584FF05C041E06C2FB3
:1018700081E00E94E509CD9FA00111244B555E4FE8
:101880006C2F82E00E94B509CF5FE4CFDF91CF914A
:101890000895CF9386E791E00E94B703892B59F50D
:1018A00040E066E871E086E791E00E945807892BE6
:1018B00021F5C0918F01CC2369F361E271E08FE8DB
:1018C00091E00E94881A892B21F480918E0184FF77
:1018D000E1CFCE3221F4809190018E32D9F686E1AB
:1018E000E6E8F1E0ACE9B1E001900D928A95E1F70C
:1018F00080E0CF9108958EEFFCCF8FEFFACFCF939A
:10190000DF93C82FCC23F9F040E150E066E671E0A8
:1019100086E791E00E94591A892B21F48EEFDF911E
:10192000CF91089586E791E00E944B05892BB1F78E
:101930004C2F66E871E086E791E00E945807892BFA
:1019400049F08FEFECCF86E791E00E94B703882340
:1019500079F3E4CFD0918F01DD23A1F261E271E050
:101960008FE891E00E94881A892B21F480918E01E2
:1019700084FFC8CFDE3221F4809190018E3211F6BF
:1019800080E0CDCFDF92EF92FF920F931F93CF9322
:10199000DF93C82FD62FD42EE82EF12C86E1C89FD6
:1019A0008001112404561E4F8D2F0E947F0C81113F
:1019B0003DC046E150E066E871E0C8010E94591A56
:1019C000892B91F3C11124C0D13059F481E0D81290
:1019D00008C042E450E06CE971E082EB91E00E94C3
:1019E0006F1A86E18E9DD0018F9DB00D1124A456F3
:1019F000BE4FE6E8F1E001900D928A95E1F780E0B4
:101A0000DF91CF911F910F91FF90EF90DF9008959C
:101A1000C33039F7D111E5CF81E0D812E2CF42E4EB
:101A200050E062EB71E08CE991E0D9CF8DEFE8CF27
:101A300087E090E09093C5008093C4001092C000AE
:101A400080EC8093C2001092C1000895EDE6F0E0B2
:101A5000808180618083289A8BB1816F8BB988B136
:101A60008F6088B9219820988AB1837F8AB90895B8
:101A700084B18C6284B981E58CBD08950F9320E810
:101A8000629FD0011124FC013099FAC0B59BFCCFB4
:101A900030918600B59A632F621B232F603508F0C2
:101AA000F3CF3099EDC0B59BFCCF30918600B59A4D
:101AB000632F621B232F603708F4F3CF3099E0C007
:101AC000B59BFCCF30918600B59A632F621B232F04
:101AD000603508F4E6CF603708F0E3CF3099D0C026
:101AE000B59BFCCF30918600B59A632F621B232FE4
:101AF000603708F4D6CF3099C3C0B59BFCCF309186
:101B00008600B59A632F621B232F603508F4C9CF76
:101B1000603708F0C6CF3099B3C0B59BFCCF309189
:101B20008600B59A632F621B232F603508F0B9CF6A
:101B30003099A6C0B59BFCCF30918600B59A632F33
:101B4000621B232F603708F4ACCF309999C0B59B46
:101B5000FCCF30918600B59A632F621B232F60352E
:101B600008F49FCF603708F09CCF309989C0B59BAF
:101B7000FCCF30918600B59A632F621B232F60370C
:101B800008F48FCF30997CC0B59BFCCF3091860094
:101B9000B59A632F621B232F603508F482CF60371C
:101BA00008F07FCF30996CC0B59BFCCF3091860098
:101BB000B59A632F621B232F603508F072CF3099DE
:101BC0005FC0B59BFCCF30918600B59A632F621B36
:101BD000232F603708F465CF309952C0B59BFCCFF6
:101BE00030918600B59A632F621B232F603508F46D
:101BF00058CF603708F055CF309942C0B59BFCCF25
:101C000030918600B59A632F621B232F603708F44A
:101C100048CF309935C0B59BFCCF30918600B59A3E
:101C2000632F621B232F603508F43BCF603708F029
:101C300038CF58E000278827309922C0B59BFCCFC9
:101C400030918600B59A632F621B232F603520F1F7
:101C50006037B8F0440F5A9539F400FD41930FEF07
:101C600058E0A150B04062F0440F41605A9539F4F9
:101C700000FD41930FEF58E0A150B0400AF0DCCFD7
:101C800044C0440F5A9539F400FD41930FEF58E0DA
:101C9000A150B040AAF30CC0440F41605A9539F4EA
:101CA00000FD41930FEF58E0A150B0404AF3C4CF7C
:101CB0003099E6CFB59BFCCF30918600B59A632F63
:101CC000621B232F6035B0F0440F5A9539F400FDA4
:101CD00041930FEF58E0A150B040BAF0440F41607B
:101CE0005A9539F400FD41930FEF58E0A150B040F0
:101CF00062F0A2CF440F5A9539F400FD41930FEFE3
:101D000058E0A150B0400AF0D3CF0F910895E82FCA
:101D1000E2959E2F9695969593702091640120FFF1
:101D200002C087FF94602091C00025FFFCCF29B13D
:101D3000207C11F00C94E40BE770F0E0E75DFE4FBF
:101D40004081E92FF0E0E75DFE4F90819093C6005F
:101D50008093640190910D062FE7911108C0E82F40
:101D6000E695E695E770F0E0E75DFE4F2081909103
:101D7000C00095FFFCCF99B1907CE1F6E82FE770A9
:101D8000F0E0E75DFE4F30814093C600E0918302B2
:101D90008E27E82FF0E0EE0FFF1FE854FF4F8591EC
:101DA00094914091820294279093830280938202BF
:101DB0008091C00085FFFCCF89B1807C09F0BACF4B
:101DC0002093C6008091C00085FFFCCF3093C600F1
:101DD0000895CF93DF93CDB7DEB765970FB6F8942C
:101DE000DEBF0FBECDBF80E880BF10928000109292
:101DF00082000E94180D0E94260D0E94380D80E17D
:101E000096E00E94081678940E9422098CE294E0E1
:101E100090931D0280931C028CE094E090931B022F
:101E200080931A021D8ABAE02B2E0E94EA0B0E94B0
:101E30001F094CEA50E061E085E00E94CD0988E589
:101E4000ACE9B1E01D928A95E9F790E080E00E944C
:101E5000DA0584EF91E00E94DA05892BD1F70E9420
:101E60001F094BE950E061E082E00E94CD09BFEF1D
:101E7000E3EDF0E3B150E040F040E1F700C00000D6
:101E80000E94BC0B6D837E838F8398872A9A40EED5
:101E900050E064E070E080911C0290911D020E946D
:101EA000AD1AE0911C02F0911D0280818823D1F1CE
:101EB00044E050E070E060E0CE0101960E94AD1A6F
:101EC00049815A816B817C818D819E81AF81B885EA
:101ED000481759076A077B0771F044E050E070E04B
:101EE00060E0CE0105960E94BD1A60E084E090E0BB
:101EF0000E94C71AA4CF21E0298BE12C80911C02FB
:101F000090911D020E94A306882309F4C1C1B989DA
:101F1000B13009F08ACF2A9A60E084E090E00E9414
:101F2000C71A83CF8FE28083E0911C02F0911D02DB
:101F30001182E12C0E941F0960911C0270911D0208
:101F400086E791E00E9401071092650188E5ACE9FF
:101F5000B1E01D928A95E9F70E94490C81110EC0EB
:101F600080E1E6E7F1E0A6E6B1E001900D928A9506
:101F7000E1F7809165018F5F8093650110E0FF2498
:101F8000F394F10E40E060E08F2D0E94C20C8111AD
:101F900020C0809165018F5F809365011F2D1330F4
:101FA00071F780916501811128C0E11014C00E9471
:101FB0001F094CE850E061E083E00E94CD09BFEFCB
:101FC000EBE7F2E9B150E040F040E1F700C000007B
:101FD00036CFF12EE6CF88E5ACE9B1E01D928A95C7
:101FE000E9F7B1E0B09365018EE28093A50180939B
:101FF000A60180E18093A401F12CFF2009F48BC29B
:10200000FA9481E00E947F0CF8CF41E060E08F2DD0
:102010000E94C20C811106C00E941F098F2D0E94D0
:10202000210CAEC28F3F09F0ABC2FFCE339978C20C
:1020300080916501823090F0FF20F9F01FEF1F0DB5
:1020400040E0612F80E00E94E50981E00E947F0C62
:1020500040E26F2D80E00E94E509F12E83E0339984
:102060005FC23FEF91EEA4E031509040A040E1F715
:1020700000C00000815099F7DBCF41E061E080E0D3
:102080000E94C20C811106C00E941F0980E00E94BC
:10209000210CE4CF8F3F11F7C8CE1A8A31990DC0B9
:1020A000BA89BF5FBA8BEFEFF1EE24E0E150F04068
:1020B0002040E1F700C00000F1CF3FEF85EA9EE04D
:1020C000315080409040E1F700C00000AF2CB12CAF
:1020D000A6E1FA9EC00111248C010B551E4FFC0194
:1020E000E456FE4F6F01808584FF69C042E050E0F6
:1020F00066E271E0C8010E94591A892B91F4EE2022
:1021000019F0EA94E11021C0E0911C02F0911D0247
:102110008FE28083E0911C02F0911D021182E12C7C
:102120004BC0D60119968C918E3261F3B9E0BE1581
:1021300060F0E29CD0011124A25EBD4F8DE0F80159
:1021400001900D928A95E1F7E3940EE112E0F12CF3
:10215000E0E08FE2C82EDD24D394DE0E80911C02D5
:1021600090911D02E80FF92FF11DC082F801019036
:102170000020E9F73197AF01401B510B80911C0201
:1021800090911D02B8018D0D911D0E94661AF801F3
:1021900001900020E9F73197E01BF10BED0DF3946E
:1021A000065F1F4FFE14B8F280911C0290911D0231
:1021B000E80FF92FF11D10820E94EA0BBBCE0E949E
:1021C000EA0BC12CEE2099F1FEE18F2EF2E09F2E5A
:1021D000D12CC12CAFE27A2EF40101900020E9F756
:1021E000AF01415051094819590980911C02909141
:1021F0001D02B4018C0D911D0E94661AF40101901C
:102200000020E9F73197E819F909EC0DCC24C394C3
:10221000CE0E80911C0290911D02E80FF92FF11D46
:102220007082D394FAE08F0E911CED10D5CFD801B7
:102230000D900020E9F7AD0141505109401B510BB1
:10224000D12C80911C0290911D02B8018C0D9D1D16
:102250000E94661AF80101900020E9F73197CF013A
:10226000801B910BE0911C02F0911D02EC0DFD1DF5
:10227000E80FF91F108286E18A9DF0018B9DF00D19
:102280001124E456FE4F808581708D8B198A36CEDD
:1022900084E491E00E94310269E870E084E491E016
:1022A0000E945502E989E111E5C00E941F0980E002
:1022B0000E94E30980E20E94E309F6E1FF9EC0016B
:1022C00011248B559E4F0E9498092A892531C0F010
:1022D0002A9A44E050E070E060E0CE0105960E944A
:1022E000BD1A80911C0290911D02DC010D9000200E
:1022F000E9F7AD01481B590B64E070E00E94BD1A7C
:1023000048E750E063E080E00E94CD0940910A0276
:1023100050910B0260910C0270910D028A019B0199
:102320001F712227332791E0012B022B032B09F485
:1023300090E0EDE07695679557954795EA95D1F74A
:10234000940F933508F0B1C090930F0680900E0261
:1023500090900F02A0901002B0901102240135015C
:1023600057E076946794579447945A95D1F74091E3
:10237000FA015091FB016091FC017091FD01440D47
:10238000551D661D771D00E012E030E020E08CE076
:1023900094E00E94E70A892B09F047CD8092C4029D
:1023A0009092C502A092C602B092C702CC24C394F8
:1023B000D12C80910F06B0E18B9FC0011124C8166B
:1023C000D90608F076C06091F40170E0C6010E9461
:1023D000EF19892BB1F5D501C40137E0B695A79562
:1023E000979587953A95D1F78D879E87AF87B88B5C
:1023F00084159505A605B705A1F04091FA01509105
:10240000FB016091FC017091FD01480F591F6A1F8B
:102410007B1F00E012E030E020E08CE094E00E94BE
:10242000E70AF401EE0FFF1FEE0FFF1FF170E45FEC
:10243000FB4F80809180A280B3804D845E846F8446
:102440007888C6018F709927892B81F4F60184E082
:10245000F695E7958A95E1F7EE0FFF1FEE0FFF1F48
:10246000EC53FD4F80829182A282B3829FEFC91A02
:10247000D90A9FCF80911C0290911D02FC0101900E
:102480000020E9F73197E81B2E2F30E0DC01A20F86
:10249000B31F4C914F3211F0E150F6CF2F5F3F4FF9
:1024A000820F931F0E9498092BCF82E580930F061D
:1024B0004DCF10920E0610920C06AFEFBDE3E9E48B
:1024C000A150B040E040E1F700C00000FD89FF23CB
:1024D00009F465C0529ADA9A80916800846080930A
:1024E000680033243A94219853980E947F0989B157
:1024F000807C09F456C03199FACF319BFECF2A9ADD
:102500000E9479092989213009F406CD809168005B
:102510008B7F809368000E941F098F2D0E94210CE1
:10252000319BBBCD329B04C0339B02C03199FACFA3
:102530000E94BC0B0D811E812F81388560177107A9
:102540008207930709F071CC329970CD80916501B3
:102550008230B0F08150990BF81619060CF055CD69
:1025600011E01F0D40E0612F80E00E94E50980E04E
:102570000E947F0C40E26F2D80E00E94E509F12E61
:1025800083E0329953CDEFEFF1EE24E0E150F040DB
:102590002040E1F700C00000815099F7D7CF529852
:1025A0009ACF0E94790980910E0681110FC0539A2B
:1025B000C12C1C861B868B859C85883E934040F4ED
:1025C0008B859C8501969C878B87F5CF5398F0CFA0
:1025D00080910E06831509F49EC080910C06882315
:1025E00089F0F89410920C0678941A8619868985D9
:1025F0009A858031974288F789859A8501969A87CE
:102600008987F5CF4C9BFECFF89410920C067894F6
:1026100030900E06B4E03B9EF0011124EC53FD4FC8
:1026200080809180A280B3802401350107E07694F8
:102630006794579447940A95D1F7809284029092B8
:102640008502A0928602B09287024091FA015091D1
:10265000FB016091FC017091FD01440D551D661D4B
:10266000771D00E012E030E020E08CE094E00E9472
:10267000E70A892B09F0F7C1E8E8F2E0FC8BEB8B65
:10268000DD24D3946091F4018D2D0E94D519911110
:1026900036C0D501C40117E0B695A79597958795E3
:1026A0001A95D1F78D879E87AF87B88B84159505CE
:1026B000A605B705A1F04091FA015091FB01609188
:1026C000FC017091FD01480F591F6A1F7B1F00E03C
:1026D00012E030E020E08CE094E00E94E70AF40190
:1026E000EE0FFF1FEE0FFF1FF170E45FFB4F8080C6
:1026F0009180A280B3804D845E846F847888AB899A
:10270000BC898D929D92AD92BD92BC8BAB8BD394C4
:10271000B0E1DB12B7CF45E066E084E491E00E94CF
:10272000C60180910E06622D0E94D519682F84E49F
:1027300091E00E94690280910E06622D0E94D519D7
:10274000692F84E491E00E94690280910E06622D57
:102750000E94D519482F63E085E00E94DA09809134
:102760000E06622D0E94D519892F0E94D709832D4C
:1027700090E0FC01EE0FFF1FFE87ED87D9B0D094EB
:10278000FD2DF170DF2E80910C0681117CC14E99D8
:102790007AC10E94DE0BEC2DF0E0EF5FFE4F9080DF
:1027A000292D2170A22EE92DE695F0E0B090F401DC
:1027B0002D2D30E08D859E85820F931F43E0880F7D
:1027C000991F4A95E1F78E0F9F1F6B2D70E00E94B5
:1027D000031A092E000CAA0BBB0B40910202509168
:1027E000030260910402709105022C013D01440E28
:1027F000551E661E771E53E0220F331F5A95E1F7D0
:10280000E20FF31FEE0FFF1FEE0FFF1FEC57FD4F00
:102810000081118122813381A9019801225031095F
:1028200041095109AB2DB0E00E94391A460E571EDE
:10283000681E791E00E012E030E020E0B301A20142
:102840008CE094E00E94E70A892B09F00CC180918A
:102850000C06811118C14E9916C10E94840981117C
:1028600002C00E94790991100EC04D2D63E08FE0E7
:102870000E94DA090E94DE0B1AE08EE40E94870EA5
:102880001150D9F7219AB12CBA2CAA24C501845F22
:102890009B4F5C011CE080E00E94870E1150D9F72D
:1028A00091E090930D06AFEFBFEFB0938302A0933A
:1028B000820281EA0E94870E81EA0E94870E81EAE5
:1028C0000E94870E10920D068EEF0E94870E832DB8
:1028D0000E94870E8D2D0E94870E81E0890D0E9437
:1028E000870E81E00E94870E109182028091830200
:1028F0000E94870E812F0E94870E16E18EE40E94AF
:10290000870E309B02C01150C9F71CE080E00E9486
:10291000870E309B02C01150C9F730994CC00E94FD
:10292000E40BB1E0B0938100911001C0219862E006
:10293000C5010E943E0D182F109281000E94DE0BEF
:1029400011111FC0B301A20190E080E00E943D0B75
:10295000182F81112EC040E052E060E070E08CE062
:1029600094E00E943D0B182F811117C040E050E009
:10297000BA0190E080E00E943D0B182F4CE08111DD
:102980000DC080910C0681117EC04E997CC0C3940D
:10299000B0E1CB12F3CEC12CF1CE47E062E084E48B
:1029A00091E00E94C601612F84E491E00E946902D7
:1029B000E8CF42E0F3CFE1E0E0930D062FEF3FEFE9
:1029C000309383022093820281EA0E94870E81EA7B
:1029D0000E94870E81EA0E94870E10920D068BEFEF
:1029E0000E94870E911001C0219880910C068111E0
:1029F0004AC089B1807C09F046C0450130E8830EA9
:102A0000911CF501A814B90439F08FEFA81AB80A7F
:102A100080810E94870EF5CF450190E8890E911CB8
:102A2000F5018A149B0439F0AFEFAA1ABA0A808123
:102A30000E94870EF5CF10918202809183020E943E
:102A4000870E812F0E94870E16E38EE40E94870E68
:102A500080910C06811195CF89B1807C09F091CFCE
:102A6000115099F78ECF11E00E94E40B21980E943B
:102A70007F092A9A112309F436CD809168008B7F53
:102A800080936800D2C989B1807C09F492CD10E0AE
:102A9000EBCF90E080E00895809144069091450648
:102AA000891B990B089590914506809144062FEF5C
:102AB0003FEF981748F4E92FF0E0EA5BF94F2081E7
:102AC00030E09F5F90934506C9010895E091450667
:102AD00080914406E81730F4F0E0EA5BF94F80811A
:102AE00090E008958FEF9FEF08950895CF93DF93BF
:102AF000EC01E0911C06F0911D063097F1F09091E9
:102B00004506809144069817C0F090E0292F30E0E8
:102B10002617370754F4DE01A20FB31F4C912A5B2E
:102B2000394FD9014C939F5FF1CF109245066093C6
:102B30004406CB01DF91CF910994DF91CF910895A5
:102B4000E0911E06F0911F06309729F010922206A0
:102B50001092210609940895CF93DF931F92CDB769
:102B6000DEB76983209120062223F9F02091210607
:102B7000203258F021E030E0FC013383228390E0E2
:102B800080E00F90DF91CF91089580912206E82F89
:102B9000F0E0ED5DF94F998190838F5F809322067D
:102BA0008093210681E090E0ECCF61E0CE010196B8
:102BB0000E947816F7CFCF92DF92EF92FF920F9399
:102BC0001F93CF93DF937C01CB018A0120912006D4
:102BD000222389F0EB016B01C40ED51ECC15DD0557
:102BE00069F06991D701ED91FC910190F081E02DA0
:102BF000C7010995F3CF642F0E947816C801DF91B1
:102C0000CF911F910F91FF90EF90DF90CF9008959B
:102C10001092450610924406109222061092210648
:102C20000E944D1680EA95E10E94A41686E795E180
:102C30000C949F1681E080932006609343061092C7
:102C400022061092210608950C941A160F93062F4F
:102C500021E04091210663E276E0809143060E94E4
:102C6000C5161092220610922106109220060F918E
:102C7000089561E00C942616E0E1F6E013821282DA
:102C800088EE93E0A0E0B0E084839583A683B783C9
:102C900085E391E09183808308951092D90681E0C5
:102CA0008093D7061092D60661E082E10E94A719B0
:102CB00061E083E10E94A719E9EBF0E080818E7F5B
:102CC000808380818D7F808388E48093B80085E451
:102CD0008093BC000895ECEBF0E080818A7B8083D8
:102CE00060E082E10E94A71960E083E10C94A719DB
:102CF00020918806260F3327331F21323105ECF44B
:102D00002091D906FC0190E080E0243069F082E057
:102D10000895A09188062191AC014657594FA40F00
:102D2000B52FB11D2C930196861798F380918806D4
:102D3000680F6093880680E0089581E0089590937D
:102D4000CD068093CC0608959093CF068093CE064F
:102D5000089585EC8093BC001092D9060895CF9316
:102D6000DF9391E09093D106882361F0C091B80081
:102D7000D091BA000E946B160E944D16D093BA00F3
:102D8000C093B800DF91CF9108954F925F926F92F8
:102D90007F928F929F92AF92BF92EF92FF920F938A
:102DA0001F93CF93DF93413208F0D9C0F22ED42F76
:102DB000E72E162FC82F0E9459194B015C018091F4
:102DC000D906811170C082E08093D9060093D7069E
:102DD0008FEF809366061092AB06D093AA06912FD0
:102DE000ACEAB6E0E12FFE2D8E2F891B8D1708F47B
:102DF0008FC01092D8068091D806CC0FC82BC093F4
:102E0000D8068091D606813009F085C01092D6068A
:102E10000E9459194B015C018091D8068093BB0038
:102E20008091D2069091D306A091D406B091D50698
:102E3000892B8A2B8B2BA1F00E9459190091D20665
:102E40001091D3062091D4063091D50668197909DE
:102E50008A099B09061717072807390708F444C091
:102E60008091BC0083FDD8CF85EC8093BC000E948C
:102E700059194B015C01FF2029F08091D90682305D
:102E800009F44BC0809166068F3F09F46AC08091B7
:102E90006606803209F467C080916606803309F4C3
:102EA00064C084E026C08091D2069091D306A091A0
:102EB000D406B091D506892B8A2B8B2B09F47FCFB2
:102EC0000E9459194090D2065090D3066090D406C3
:102ED0007090D506681979098A099B094616570624
:102EE0006806790608F06BCF8091D0060E94AF1675
:102EF00085E0DF91CF911F910F91FF90EF90BF90F0
:102F0000AF909F908F907F906F905F904F900895BB
:102F100081918D9369CF85EEA8CF8091D206909153
:102F2000D306A091D406B091D506892B8A2B8B2B82
:102F300009F4A1CF0E9459190091D2061091D3062D
:102F40002091D4063091D506681979098A099B0920
:102F5000061717072807390708F08DCFC5CF81E07E
:102F6000C8CF80E0C6CF82E0C4CF83E0C2CF85ED7A
:102F70008093BC008091D2069091D306A091D40694
:102F8000B091D5060796A11DB11D23E0B695A79572
:102F9000979587952A95D1F72091BC0024FD03C011
:102FA0001092D90608954091D2065091D3066091AF
:102FB000D4067091D506452B462B472B69F3009715
:102FC000A105B10541F02AE22A95F1F700C0019769
:102FD000A109B109E1CF8091D0060C94AF161F92E0
:102FE0000F920FB60F9211242F933F934F935F933D
:102FF0006F937F938F939F93AF93BF93EF93FF93C1
:103000008091B900887F803609F44CC008F03FC039
:10301000883209F4A8C018F5803109F49CC0B8F4CE
:10302000882309F4F9C0883009F495C0FF91EF9125
:10303000BF91AF919F918F917F916F915F914F91D0
:103040003F912F910F900FBE0F901F9018958831D0
:1030500009F489C0803251F78093660615C0803428
:1030600009F49EC048F48033B9F38833F9F68093AD
:1030700066060E94A916DACF803509F485C0883526
:1030800009F496C0883491F60E94B717CFCF8839DB
:1030900009F48CC038F5883729F050F4883611F0DF
:1030A000803721F683E08093D9061092670657C0D7
:1030B000883809F47BC0803919F0803809F0B6CF20
:1030C00080916706803208F071C0E091670681E068
:1030D0008E0F809367068091BB00F0E0E859F94FAE
:1030E00080833DC0803B39F0E0F4803A09F479C038
:1030F000883A09F09BCF84E08093D9061092890624
:1031000010928806E091CE06F091CF060995809145
:10311000880681110FC081E08093880610928A068C
:1031200009C0803C09F476C0883C09F473C0883B30
:1031300009F07CCFE091890681E08E0F80938906AB
:10314000F0E0E657F94F80818093BB0090918906AB
:103150008091880629C08091D8068093BB0085ECB9
:103160008093BC0063CF9091AB068091AA0698171C
:1031700058F5E091AB0681E08E0F8093AB06F0E04E
:10318000E455F94F8081E9CFE091AB0681E08E0FE5
:103190008093AB068091BB00F0E0E455F94F80834B
:1031A0009091AB068091AA069817C8F285E8D8CF0F
:1031B000E091AB0681E08E0F8093AB068091BB005F
:1031C000F0E0E455F94F80838091D70681115CCF00
:1031D00081E08093D60684EA8093BC001092D906E1
:1031E00025CF0E94A91680916706803230F4E091C5
:1031F0006706F0E0E859F94F10826091670670E0C9
:10320000E091CC06F091CD0688E696E00995109203
:1032100067060CCF85ECE0CF1092660635CF1F9283
:103220000F920FB60F9211242F933F938F939F937A
:10323000AF93BF938091DB069091DC06A091DD06F1
:10324000B091DE063091DA0623E0230F2D3758F5D2
:103250000196A11DB11D2093DA068093DB069093A1
:10326000DC06A093DD06B093DE068091DF06909128
:10327000E006A091E106B091E2060196A11DB11D04
:103280008093DF069093E006A093E106B093E206F8
:10329000BF91AF919F918F913F912F910F900FBE52
:1032A0000F901F90189526E8230F0296A11DB11DBF
:1032B000D2CF3FB7F8948091DF069091E006A091BD
:1032C000E106B091E20626B5A89B05C02F3F19F094
:1032D0000196A11DB11D3FBFBA2FA92F982F882796
:1032E000BC01CD01620F711D811D911D42E0660F71
:1032F000771F881F991F4A95D1F70895833081F071
:1033000028F4813099F08230A9F008958730A9F02F
:103310008830C9F08430B1F4809180008F7D03C083
:10332000809180008F7780938000089584B58F7797
:1033300084BD089584B58F7DFBCF8091B0008F77D9
:103340008093B00008958091B0008F7DF9CF1F93D6
:10335000CF93DF93282F30E0F901E854FD4F84919B
:10336000F901E453FD4FD491F901E052FD4FC491AE
:10337000CC23A9F0162F81110E947E19EC2FF0E0CA
:10338000EE0FFF1FEC50FD4FA591B4918FB7F8944D
:10339000EC91111108C0D095DE23DC938FBFDF9133
:1033A000CF911F910895DE2BF8CF991B79E004C0CF
:1033B000991F961708F0961B881F7A95C9F7809574
:1033C000089587FB082E062687FD819567FD619588
:1033D0000E94D5190EF4919507FC81950895AA1BBA
:1033E000BB1B51E107C0AA1FBB1FA617B70710F0F0
:1033F000A61BB70B881F991F5A95A9F78095909522
:10340000BC01CD01089597FB072E16F4009407D058
:1034100077FD09D00E94EF1907FC05D03EF4909586
:1034200081959F4F0895709561957F4F0895A1E212
:103430001A2EAA1BBB1BFD010DC0AA1FBB1FEE1F2E
:10344000FF1FA217B307E407F50720F0A21BB30B79
:10345000E40BF50B661F771F881F991F1A9469F7F5
:1034600060957095809590959B01AC01BD01CF0151
:1034700008950E944A1AA59F900DB49F900DA49F95
:10348000800D911D11240895EE0FFF1F0590F491FA
:10349000E02D0994A29FB001B39FC001A39F700DBE
:1034A000811D1124911DB29F700D811D1124911D4C
:1034B0000895FB01DC0104C08D910190801921F475
:1034C00041505040C8F7881B990B0895FB01DC015F
:1034D00002C001900D9241505040D8F708956817EE
:1034E000790768F4FB01DC01E40FF51FA40FB51F99
:1034F00002C002900E9241505040D8F708950C94AB
:10350000661ADC0101C06D9341505040E0F7089508
:10351000FB0151915523B1F0BF01DC01052E4D9106
:10352000442369F010D0D9F7CD010190002049F073
:103530004D91411108D0C9F3FB014111EECF81E05B
:1035400090E001970895402539F0403229F4402950
:103550004B57465E08F018940895DC01CB01FC013E
:10356000F999FECF06C0F2BDE1BDF89A319600B4DC
:103570000D9241505040B8F70895DC01CB0103C0D3
:103580002D910E94C81A41505040D0F70895262F1F
:10359000F999FECF1FBA92BD81BD20BD0FB6F89438
:0E35A000FA9AF99A0FBE01960895F894FFCF9B
:1035AE000300080109020A030B040C050D060E07A1
:1035BE000F202B2C3B5B3D5C5D222A3A3C3E3F7C30
:1035CE00002E747264002E2E00777DDFDDF7FDDF96
:1035DE00DD00000000AC15DB15491575154C1553B3
:0435EE001566150049
:00000001FF
