:020000040000FA
:100000000C944E030C9476030C9476030C947603B4
:100010000C9476030C9435100C9476030C947603B0
:100020000C9476030C9476030C9476030C9476036C
:100030000C9476030C9476030C9476030C9476035C
:100040000C94CC0E0C9476030C9476030C947603EB
:100050000C9476030C9476030C9476030C9476033C
:100060000C94160F0C9476030808000000000000A2
:100070000000000000005F0000000000000300031B
:10008000000000247E24247E2400002E2A7F2A3AA9
:10009000000000462610086462000020544A5420E4
:1000A000500000000004020000000000003C42007C
:1000B0000000000000423C000000001054385410C2
:1000C00000000010107C1010000000000080600094
:1000D0000000001010101010000000000060600010
:1000E000000000402010080400003C62524A463CD8
:1000F000000044427E404000000064525252524C84
:1001000000002442424A4A3400003028247E202045
:1001100000002E4A4A4A4A3200003C4A4A4A4A30C3
:100120000000020262120A060000344A4A4A4A34B7
:1001300000000C525252523C0000000000480000E7
:10014000000000008064000000000000102844004F
:10015000000000282828282800000000442810005B
:10016000000000040202520A0400003C425A565A9F
:100170001C007C121212127C00007E4A4A4A4A3449
:1001800000003C424242422400007E424242241887
:1001900000007E4A4A4A4A4200007E0A0A0A0A02CF
:1001A00000003C424252523400007E080808087E9B
:1001B00000000042427E4242000030404040403E4B
:1001C00000007E080814224000007E40404040406D
:1001D00000007E040808047E00007E040810207ED3
:1001E00000003C424242423C00007E121212120CBD
:1001F00000003C425262423C00007E121212324C1D
:100200000000244A4A4A4A3000000202027E0202EA
:1002100002003E404040403E00001E204040201E64
:1002200000003E402020403E000042241818244296
:10023000000002040870080402004262524A46426A
:10024000000000007E424200000000040810204030
:100250000000000042427E0000000008047E040806
:10026000000080808080808080003C4299A5A5812C
:10027000423C0020545454780000007E48484830E6
:100280000000000038444444000000304848487EE4
:10029000000000385454544800000000007C0A025A
:1002A00000000018A4A4A4A47C00007E0808087024
:1002B0000000000000487A40000000004080807A82
:1002C0000000007E1824400000000000003E404076
:1002D0000000007C047804780000007C04040478AA
:1002E0000000003844444438000000FC2424241852
:1002F00000000018242424FC80000000780404047A
:10030000000000485454542000000000043E4440C3
:100310000000003C4040403C0000000C3040300CED
:100320000000003C4038403C0000004428102844B5
:100330000000001CA0A0A07C0000004464544C44B9
:10034000000000080876424200000000007E000025
:100350000000004242760808000000000402040287
:10036000000020202020002020202020002020200D
:1003700020200020200020202020202020202020BD
:10038000202020202020002020202020202020208D
:10039000202020202020200020006F006900640021
:1003A000750074005300740073006F0068006100F2
:1003B00052005A582046444420456D756C20203226
:1003C0002E30002D002D0063796C3A3030202068EB
:1003D0006561643A30003E002D2D206E6F20666905
:1003E0006C6573202D2D0032303234002E5261683E
:1003F0006F737453747564696F002E457667656E0C
:10040000792055677279756D6F76004564697465FA
:10041000642062793A00546865206F726967696E7A
:10042000616C2070726F6A656374206F6620457618
:1004300067656E52552E002D2D2D2D2D2D2D2D2D18
:100440002D2D2D2D2D2D2D002D2D4E6F2043617224
:10045000642D2D0000002110422063308440A550FF
:10046000C660E770088129914AA16BB18CC1ADD1FA
:10047000CEE1EFF13112100273325222B5529442A2
:10048000F772D662399318837BB35AA3BDD39CC34A
:10049000FFF3DEE36224433420040114E664C774EE
:1004A000A44485546AA54BB528850995EEE5CFF59A
:1004B000ACC58DD55336722611163006D776F66642
:1004C0009556B4465BB77AA719973887DFF7FEE7EA
:1004D0009DD7BCC7C448E5588668A778400861180E
:1004E00002282338CCC9EDD98EE9AFF9488969993A
:1004F0000AA92BB9F55AD44AB77A966A711A500AE2
:10050000333A122AFDDBDCCBBFFB9EEB799B588B89
:100510003BBB1AABA66C877CE44CC55C222C033C2D
:10052000600C411CAEED8FFDECCDCDDD2AAD0BBDD9
:10053000688D499D977EB66ED55EF44E133E322E81
:10054000511E700E9FFFBEEFDDDFFCCF1BBF3AAF29
:10055000599F788F8891A981CAB1EBA10CD12DC187
:100560004EF16FE18010A100C230E320045025401D
:1005700046706760B9839893FBA3DAB33DC31CD37D
:100580007FE35EF3B1029012F322D232354214526D
:1005900077625672EAB5CBA5A89589856EF54FE5C9
:1005A0002CD50DC5E234C324A014810466744764BD
:1005B00024540544DBA7FAB79987B8975FE77EF71D
:1005C0001DC73CD7D326F2369106B016576676760D
:1005D000154634564CD96DC90EF92FE9C899E989E9
:1005E0008AB9ABA94458654806782768C018E1085D
:1005F0008238A3287DCB5CDB3FEB1EFBF98BD89BBD
:10060000BBAB9ABB754A545A376A167AF10AD01AAC
:10061000B32A923A2EFD0FED6CDD4DCDAABD8BAD08
:10062000E89DC98D267C076C645C454CA23C832CFC
:10063000E01CC10C1FEF3EFF5DCF7CDF9BAFBABF5C
:10064000D98FF89F176E367E554E745E932EB23E4C
:10065000D10EF01E00000000250028002B0004042D
:10066000040404040404020202020202030303035A
:100670000303010204081020408001020408102036
:10068000010204081020000000080002010000031D
:1006900004070000000000000000661011241FBEC7
:1006A000CFEFD8E0DEBFCDBF27E0A8E7B1E001C0C3
:1006B0001D92A131B207E1F711E0A0E0B1E0E8EB53
:1006C000F1E402C005900D92A837B107D9F713E005
:1006D000CEE4D3E004C02197FE010E94B41ECD34C5
:1006E000D107C9F70E947A100C94DA200C9400000C
:1006F000CF93DF938091A4069091A506A091A606C2
:10070000B091A706EBE8F6E0892B8A2B8B2B09F436
:1007100054C0E091A806F091A906A6A1B7A19D0139
:10072000BD01685F7F4FEBE8F6E0E90189919E012A
:10073000803259F0853009F485EEAF014F5F5F4F8D
:100740008083FA012617370781F718968C9118973E
:10075000803289F08EE28083EB01CF0104963196DE
:100760004991403241F09F012F5F3F4F408328174E
:10077000390739F5FC011B968C911B9780938A06EB
:100780005C964D915D916D917C915F97409382064F
:1007900050938306609384067093850658968D91D6
:1007A0009C915997909387068093860656968D91D3
:1007B0009C9190938906809388061082DF91CF9157
:1007C0000895F901CDCF90E0FC01EA57F94F24914B
:1007D000FC01EE58F94F3491FC01E25AF94FE491D3
:1007E000EE23C9F0222339F0233001F1A8F421309F
:1007F00019F1223029F1F0E0EE0FFF1FEC5AF94F0A
:10080000A591B4918FB7F894EC91611126C0309501
:100810003E233C938FBF08952730A9F02830C9F0BC
:10082000243049F7809180008F7D03C08091800043
:100830008F7780938000DFCF84B58F7784BDDBCF47
:1008400084B58F7DFBCF8091B0008F778093B0000F
:10085000D2CF8091B0008F7DF9CF3E2BDACF3FB75A
:10086000F89480917E0690917F06A0918006B091C9
:10087000810626B5A89B05C02F3F19F00196A11D42
:10088000B11D3FBFBA2FA92F982F8827BC01CD01DA
:10089000620F711D811D911D42E0660F771F881F39
:1008A000991F4A95D1F7089520915406260F3327B2
:1008B000331F21323105ECF42091D006FC0190E089
:1008C00080E0243069F082E00895A09154062191DF
:1008D000AC014E5C594FA40FB52FB11D2C9301965E
:1008E000861798F380915406680F6093540680E051
:1008F000089581E008951092D00681E08093CF069C
:100900001092AA0661E082E10E94E30361E083E1C4
:100910000E94E303E9EBF0E080818E7F8083808199
:100920008D7F808388E48093B80085E48093BC0049
:100930000895CF93DF9391E0909331068823B9F027
:10094000C091B800D091BA008091BC008A7B80939E
:10095000BC0060E082E10E94E30360E083E10E946A
:10096000E3030E947B04D093BA00C093B800DF91E8
:10097000CF910895CF92DF92EF92FF920F931F9342
:10098000CF93DF93D091F90681E0D13208F09CC07B
:10099000C091F8060E942F046B017C018091D00663
:1009A00081116CC082E08093D00681E08093CF06F5
:1009B0008FEF8093CE061092CD06D093CC06A8ED93
:1009C000B6E0ECEAF6E080E0D8138DC01092AB06FA
:1009D0008091AB06CC0FC82BC093AB068091AA06C2
:1009E000813009F084C01092AA060E942F046B0186
:1009F0007C018091AB068093BB008091D2069091E0
:100A0000D306A091D406B091D506892B8A2B8B2BC7
:100A1000A1F00E942F040091D2061091D3062091DC
:100A2000D4063091D5066C197D098E099F090617E9
:100A300017072807390708F442C08091BC0083FDDE
:100A4000D8CF85EC8093BC000E942F046B017C0101
:100A50008091D006823009F44CC08091CE068F3F41
:100A600009F469C08091CE06803209F466C0809195
:100A7000CE06803309F463C084E026C08091D2069C
:100A80009091D306A091D406B091D506892B8A2BDC
:100A90008B2B09F483CF0E942F040091D206109172
:100AA000D3062091D4063091D5066C197D098E09A4
:100AB0009F09061717072807390708F06FCF80919D
:100AC000D1060E94990485E01092D7061092F9068B
:100AD0001092D606DF91CF911F910F91FF90EF906A
:100AE000DF90CF9008959D9191938F5F6DCF85EEAC
:100AF000A9CF8091D2069091D306A091D406B0914F
:100B0000D506892B8A2B8B2B09F4A2CF0E942F04A8
:100B10000091D2061091D3062091D4063091D506CB
:100B20006C197D098E099F090617170728073907D1
:100B300008F08ECFC4CF80E0C7CF82E0C5CF83E07E
:100B4000C3CF089508950895E091300680912F064F
:100B5000E81730F4F0E0E15FF94F808190E008950C
:100B60008FEF9FEF08959091300680912F062FEF21
:100B70003FEF981748F4E92FF0E0E15FF94F20814B
:100B800030E09F5F90933006C901089580912F0651
:100B900090913006891B990B0895CF92DF92EF92C6
:100BA000FF920F931F93CF93DF937C01CB018A01B8
:100BB0002091D606222389F0EB016B01C40ED51ECD
:100BC000CC15DD0569F06991D701ED91FC9101909B
:100BD000F081E02DC7010995F3CF642F0E945404E2
:100BE000C801DF91CF911F910F91FF90EF90DF909F
:100BF000CF900895CF93DF931F92CDB7DEB769836F
:100C00002091D6062223F9F02091F906203258F0DF
:100C100021E030E0FC013383228390E080E00F90FC
:100C2000DF91CF9108958091D706E82FF0E0E85248
:100C3000F94F998190838F5F8093D7068093F9064F
:100C400081E090E0ECCF61E0CE0101960E94540477
:100C5000F7CFCF93C82F81E08093D6068CE38093A3
:100C6000F8061092D7061092F90660E88AEF96E02F
:100C70000E94FA056C2F8AEF96E00E94FA05CF9148
:100C80000C94BA040F931F93CF93C62F80550E94E4
:100C9000290606E017E0F8018481C89F802D112401
:100CA0008F700E942906F8018481C89FC001112419
:100CB00024E0959587952A95E1F78F70805FCF9115
:100CC0001F910F910C942906EF92FF920F931F939F
:100CD000CF93DF932091070730910807232B41F42E
:100CE00080E0DF91CF911F910F91FF90EF900895D9
:100CF00090EE980F903608F080E2D0E0282F205236
:100D0000330B8901EE24E3948CE3F82E80910A07DB
:100D1000D81740F5809F9001819F300D1124E091FC
:100D200009072E0F311D2D0F311DE0910707F0919E
:100D30000807E20FF31FC491E092D606F092F8067E
:100D40001092D7061092F90660E48AEF96E00E94AE
:100D5000FA056C2F8AEF96E00E94FA050E94BA0409
:100D6000DF5FD4CFBECFCF93DF938EEA0E942906F8
:100D7000C0E060E08C2F0E944206D0E180E20E9439
:100D80006406D150D9F7CF5FC83099F78FEA0E9437
:100D9000290660E080E0DF91CF910C9442060F932A
:100DA0001F93CF938C01C0E0F801EC0FF11D8081FF
:100DB000882321F00E946406CF5FF6CFCF911F9168
:100DC0000F9108954F925F926F927F928F929F92B0
:100DD000AF92BF92CF92DF92EF92FF920F931F9349
:100DE000CF93DF93CDB7DEB72A970FB6F894DEBF67
:100DF0000FBECDBF4B015C011A821982FE013396F2
:100E000088E0DF011D928A95E9F7B7FE37C08DE2D1
:100E10000E946406B094A09490948094811C911CCC
:100E2000A11CB11C11E000E0FE0131967F018AE0B7
:100E3000482E512C612C712C6701C00ED11CC501AC
:100E4000B401A30192010E94951ED6016C93490141
:100E50005A010F5F81149104A104B10469F7B02E07
:100E6000B10E0E0D1F2D111DE016F10691F0F801C7
:100E700082918F01805D0E946406F6CF10E081149C
:100E80009104A104B10479F680E30E946406BB24B6
:100E9000B3948B2D2A960FB6F894DEBF0FBECDBF4C
:100EA000DF91CF911F910F91FF90EF90DF90CF9046
:100EB000BF90AF909F908F907F906F905F904F907A
:100EC000089590E080E008951F93CF93DF9361E051
:100ED0008E5F0E9442068EE30E946406C0E016E127
:100EE00080915C03C81740F5D2E0DC0F62E08D2FE3
:100EF0000E9442061C9FF0011124E35AFC4F80859A
:100F000084FF18C08FE20E94640663E08D2F0E9468
:100F1000420681E391E00E94CF0663E08D2F0E949C
:100F20004206C19FC00111248A599C4F0E94CF06DE
:100F3000CF5FD6CF80E0E7CFDF91CF911F910895AB
:100F4000E1ECF0E08081877F80830895E82FE295CF
:100F50009E2F96959695937020910E0620FF02C0C5
:100F600087FF94602091C00025FFFCCF29B1207C31
:100F700011F00C94A007E770F0E0E95EFE4F4081AD
:100F8000E92FF0E0E95EFE4F90819093C6008093D8
:100F90000E0690910D062FE7911108C0E82FE695F7
:100FA000E695E770F0E0E95EFE4F20819091C00089
:100FB00095FFFCCF99B1907CE1F6E82FE770F0E067
:100FC000E95EFE4F30814093C600E0910C068E270B
:100FD000E82FF0E0EE0FFF1FEC5AFB4F8591949144
:100FE00040910B06942790930C0680930B068091FA
:100FF000C00085FFFCCF89B1807C09F0BACF209377
:10100000C6008091C00085FFFCCF3093C6000895D4
:101010008EBD0DB407FEFDCF08958FEF8EBD0DB4CC
:1010200007FEFDCF8EB50895BF92CF92DF92EF926B
:10103000FF920F931F93CF93DF93C82FE42ED52EEB
:10104000C62EB72EF22E2A9A87FF0BC020E040E072
:1010500050E0BA0187E70E941408D82F8230A0F42C
:10106000CF772A9A0E940D082A980E940D080E94A4
:101070000D0805E610E00E940D08D82F8F3F51F1B2
:1010800001501109C1F7DFEF8D2FDF91CF911F9133
:101090000F91FF90EF90DF90CF90BF900895C834EC
:1010A00009F4D7E88D2F0E940808C8EC0E940D08AB
:1010B000D82F87FD0CC008E811E0C0E0CF1521F360
:1010C0000E940D08F80181938F01CF5FF7CFC150C7
:1010D00069F7F1CF8C2F0E9408088B2D0E94080819
:1010E0008C2D0E9408088D2D0E9408088E2D0E94CC
:1010F0000808C034A1F6D5E9D5CF20E040E050E0A3
:10110000BA018AE40E94140860E0811110C0E8E787
:10111000F1E09FEF9EBD0DB407FEFDCF8EB581932C
:1011200081E0E838F807B1F72A9A6091810170E010
:1011300090E080E00895CF92DF92EF92FF920F93BC
:101140001F93CF93DF93EC01690180918C0183FDA4
:1011500007C099E0440F551F661F771F9A95D1F776
:1011600020E081E50E941408882359F081E090E096
:10117000DF91CF911F910F91FF90EF90DF90CF9073
:10118000089580E4E82E8CE9F82E0E940D088F3F28
:1011900029F431E0E31AF108C1F7E8CF8E3F31F7C7
:1011A00090E080E02FEF2EBD0DB407FEFDCF3EB5E1
:1011B0008C159D0538F00115110521F0388301507B
:1011C0001109219601968230980769F72A9A8FEFC4
:1011D0008EBD0DB407FEFDCF8EB581E090E0012BF2
:1011E00039F680E0C5CF982F807194FD80E195FDA0
:1011F000806296FD806497FD8068089594EA9093DC
:10120000BC009091BC0097FFFCCF9091B900987FF3
:10121000983011F0903161F49AE49093BB0094E817
:101220009093BC009091BC0097FFFCCF9091B900C7
:1012300090910001937021E030E001C0220F9A9557
:10124000EAF7822B8093BB0084E88093BC008091F6
:10125000BC0087FFFCCF84E98093BC008091BC0078
:1012600084FDFCCF0895CF92DF92EF92FF920F930F
:101270001F93CF93DF93EC016A017B0102E010E042
:101280002EEF31E00E949B08892BF1F4888199812F
:1012900085359A4AD9F422E530E0B701A601CE019E
:1012A0000E949B08892BA1F481E028813981263492
:1012B000314409F480E0DF91CF911F910F91FF90AD
:1012C000EF90DF90CF90089583E0F5CF82E0F3CFE9
:1012D00081E0F1CF0F931F93E091A806F091A9064A
:1012E0009B01AC012250310941095109828193814E
:1012F000A481B5810297A109B109281739074A07C6
:101300005B0778F4A081B0E00E94EE1D068517858A
:1013100020893189600F711F821F931F1F910F91C8
:10132000089560E070E0CB01F9CF0F931F93CF9346
:10133000DF93EC01E091A806F091A90619821882CA
:101340006C817D818E819F81613071058105910560
:1013500069F1028113812481358160177107820749
:10136000930720F5611571058105910521F46285CA
:10137000738584859585688779878A879B876115BA
:1013800071058105910569F00E946A096C877D8766
:101390008E879F8790E080E0DF91CF911F910F9122
:1013A00008956285738584859585F0CF81E090E00E
:1013B000F3CFCF92DF92EF92FF920F931F93CF93D1
:1013C000DF9300D000D0CDB7DEB762307105810564
:1013D000910588F461E070E080E090E00F900F905C
:1013E0000F900F90DF91CF911F910F91FF90EF9091
:1013F000DF90CF900895E091A806F091A906C280F1
:10140000D380E480F5806C157D058E059F0510F76F
:10141000AB01BC01242F2F7784E0289F9001112479
:1014200087E076956795579547958A95D1F7C68059
:10143000D780E084F1844C0D5D1D6E1D7F1D04E09E
:1014400010E0CE0101960E949B08892B19F6698154
:101450007A818B819C819F70C1CF8F929F92AF9236
:10146000BF92CF92DF92EF92FF920F931F93CF9391
:10147000DF93E091A806F091A90688E090E030970C
:1014800021F1C0919806D0919906209709F47CC06B
:101490008091A4069091A506A091A606B091A706FA
:1014A000892B8A2B8B2B09F46FC080909C0690901F
:1014B0009D06A0909E06B0909F0681E0881691043C
:1014C000A104B10479F481E090E0DF91CF911F9104
:1014D0000F91FF90EF90DF90CF90BF90AF909F90D3
:1014E0008F90089582819381A481B5818816990691
:1014F000AA06BB0640F781149104A104B10421F4AB
:1015000082849384A484B5842197CE0124E09695A7
:1015100087952A95E1F7608170E00E944B1E6B0170
:101520007C0110E000E00C151D0578F4C501B40144
:101530000E94D9094B015C0182E088169104A10444
:10154000B10408F20F5F1F4FEECF8092A006909279
:10155000A106A092A206B092A306C501B4010E9402
:101560006A096E0D7F1D811D911D6093A406709305
:10157000A5068093A6069093A706D0939906C093DC
:10158000980690E080E0A1CF83E090E09ECF2F927C
:101590003F924F925F926F927F928F929F92AF9203
:1015A000BF92CF92DF92EF92FF920F931F93CF9350
:1015B000DF93EC01E880F9808FEFE81AF80A19F45C
:1015C00083E090E043C04C845D846E847F8441144A
:1015D000510461047104A1F30091A8061091A906B9
:1015E000F80126A037A088849984AA84BB84670167
:1015F000FFE0CF22DD24C114D10409F04FC0D30194
:10160000C2010196A11DB11D8C879D87AE87BF8742
:1016100081149104A104B10499F2F80180818150F0
:10162000990B970144E0369527954A95E1F7822377
:101630009323892B99F5C501B4010E94D909623021
:10164000710581059105A8F481E090E0DF91CF91CB
:101650001F910F91FF90EF90DF90CF90BF90AF90D0
:101660009F908F907F906F905F904F903F902F90C2
:101670000895F80102811381248135816017710773
:101680008207930708F09CCF688779878A879B87B2
:101690000E946A096C877D878E879F87960185E007
:1016A000220F331F8A95E1F74C855D856E857F8516
:1016B00000E210E0C1010E949B08892B29F6F1018C
:1016C0008081811109C04C865D866E867F86888602
:1016D0009986AA86BB8674CFF982E88290E080E082
:1016E000B5CFFF920F931F93CF93DF93F82EE09126
:1016F000A806F091A906C6A1D7A183E090E0409189
:10170000A4065091A5066091A6067091A706411502
:1017100051056105710521F12091980630919906D6
:101720002F70332785E0220F331F8A95E1F700E2FF
:1017300010E0CE010E949B08892BC1F48881882388
:10174000C1F0853EC9F08B8583FD16C090E080E036
:1017500007C090E080E0D3CF0E942D0A0097C9F324
:10176000DF91CF911F910F91FF90089581E090E05C
:10177000F7CF83E090E0F4CF81E0F81669F388E9D1
:1017800096E00E94C70AEACFCF92DF92EF92FF92D3
:101790000F931F93CF93DF93CDB7DEB7CDB6DEB6F1
:1017A000FC010481158198012F5F3F4F4DB75EB753
:1017B000421B530B0FB6F8945EBF0FBE4DBFEDB783
:1017C000FEB731967F01232B21F00115110591F40D
:1017D0001082C7010E94CF060FB6F894DEBE0FBE7E
:1017E000CDBEDF91CF911F910F91FF90EF90DF90D1
:1017F000CF900895FC0160817181A801C7010E940A
:10180000CB20F701E00FF11FE3CFFC018081918134
:10181000009711F00C94561F0895EF92FF920F93CA
:101820001F93CF93DF93EC017B01198218821B82F7
:101830001A821D821C82CB010E94981D8C01BC0162
:101840006F5F7F4F90E080E00E94DF1F0097B9F04C
:10185000998388831B830A832C813D81232B11F478
:10186000FC0110821D830C83B70188819981DF916F
:10187000CF911F910F91FF90EF900C94911D888153
:101880009981009711F00E94561F198218821D82BB
:101890001C821B821A82DF91CF911F910F91FF90C2
:1018A000EF90089585ED8093BC008091D2069091D1
:1018B000D306A091D406B091D5060796A11DB11DFF
:1018C00023E0B695A795979587952A95D1F720910E
:1018D000BC0024FD03C01092D00608954091D206AA
:1018E0005091D3066091D4067091D506452B462BB6
:1018F000472B69F30097A105B10541F02AE22A952B
:10190000F1F700C00197A109B109E1CF8091D1069B
:101910000C9499040F931F93CF93DF93C0918D0183
:10192000D0918E012197CD3F8FEFD80721F080E035
:101930000E940808F7CF0E940D088F71853061F072
:10194000D1E0C0E02A9A0E940D088D2F9C2FDF91D4
:10195000CF911F910F91089508E813E10E940D089F
:101960008F3F61F00115110559F38FE891E0019760
:10197000F1F700C0000001501109F0CFD1E0C0E044
:10198000012B01F3D0E0DECFCF93C82F84600E94FB
:10199000FE088AE08A95F1F700C08C2F8B7FCF91EB
:1019A0000C94FE08CF93C82F0E94F30881600E9418
:1019B000C40C85EC8A95F1F700008C2F8295807F0E
:1019C0000E94F308C82FC1608C2F0E94C40C8C2F7A
:1019D0000E94FE088FE39FE10197F1F700C000002D
:1019E000CF910895CF93DF93C82F0E94F308D82F8B
:1019F000DE7F8D2F0E94C40C8D2F0E94FE0885EC87
:101A00008A95F1F700008C2F8295807F0E94F30861
:101A1000D82FDE7F8D2F0E94C40C8D2F0E94FE08D0
:101A2000CC7F39F095EC9A95F1F70000DF91CF91DA
:101A300008958FE39FE10197F1F700C0F6CF8F92F1
:101A40009F92AF92BF92CF92DF92EF92FF920F934D
:101A50001F93CF93DF936C017B01DB018C916F5F50
:101A60007F4F8032C9F38F3209F47B01F601148273
:101A7000158216821782D7018C91803208F08DC0B2
:101A8000C601DF91CF911F910F91FF90EF90DF90F2
:101A9000CF90BF90AF909F908F900C949509C1E02C
:101AA000D0E0CE01DF91CF911F910F91FF90EF9089
:101AB000DF90CF90BF90AF909F908F900895C3E03C
:101AC000D0E0EFCF222309F494C0E30EF11C81E0B3
:101AD0008B87C6010E949509EC01892B11F7809034
:101AE000A8069090A906D4019696AD90BC90F601F8
:101AF000208131812F70332745E0220F331F4A9513
:101B0000E1F7448555856685778500E210E0C501DB
:101B10000E949B08892B19F6D5018C91882379F2B4
:101B20001B968C9183FD0BC0F601028113814BE063
:101B300050E0B801C5010E949C20892B71F0C601BC
:101B40000E94C70A009799F2EC01ABCF222309F457
:101B500050C0E30EF11C80E0BBCFD8011B968C91E6
:101B600081119FCFD4019696ED91FC91838584FFDE
:101B7000A6CF84899589B0E0A0E0DC019927882769
:101B8000428D538D70E060E0842B952BA62BB72BF4
:101B9000F60184839583A683B783F601C281D3813E
:101BA0004BE050E060E270E0CE010E94C42020E0F3
:101BB000E0E098E031E03E0FEE0DFF2DF11D808159
:101BC000803208F47FCF8F3209F4C0CF8E32A1F07B
:101BD000291778F48F3768F4682F70E0EEE3F1E0AE
:101BE0004191442369F0042E000C550B64177507CE
:101BF000B9F7C5E0D0E055CF9830D9F78BE00CC0ED
:101C00004FE9480F4A3108F48052FE01E20FF11DFE
:101C10008083892F91E0920F292FE32F982FCACF2D
:101C2000EF92FF920F931F93CF93DF93CDB7DEB761
:101C30002C970FB6F894DEBF0FBECDBF182FCE0184
:101C400001967C01112321F140E150E06CE473E046
:101C500088E996E00E949C20892B71F48EEF2C96E7
:101C60000FB6F894DEBF0FBECDBFDF91CF911F91AD
:101C70000F91FF90EF9008950E942D0A892B71F724
:101C80008091A8069091A906892B49F48FEFE7CFA0
:101C900088E996E00E94C70A882391F3DFCFF0928B
:101CA0009B06E0929A06812F0E94710B833091056A
:101CB00011F0892B59F70E94780300918B060023BD
:101CC00009F26EE471E08BE896E00E94A11D892B79
:101CD00021F480918A0684FFB5CF0E3229F48091D9
:101CE0008C068E3209F0AECF80E0B9CFDF92EF9252
:101CF000FF920F931F93CF93DF93C82FD62FD42E2D
:101D0000E82EF12C86E1C89F80011124035A1C4F54
:101D10008D2F0E94100E81113DC046E150E062E817
:101D200076E0C8010E949C20892B91F3C11124C048
:101D3000D13059F481E0D81208C04EE650E06DE58C
:101D400073E083E793E00E94B22086E18E9DD0018C
:101D50008F9DB00D1124A35ABC4FE2E8F6E001902C
:101D60000D928A95E1F780E0DF91CF911F910F915D
:101D7000FF90EF90DF900895C53039F7D111E5CF8E
:101D800081E0D812E2CF4EE650E063E773E08DE5E4
:101D900093E0D9CF8DEFE8CF1F920F920FB60F923D
:101DA00011242F933F938F939F93AF93BF93809171
:101DB0007A0690917B06A0917C06B0917D063091C9
:101DC000790623E0230F2D3758F50196A11DB11D8B
:101DD0002093790680937A0690937B06A0937C06E5
:101DE000B0937D0680917E0690917F06A09180063B
:101DF000B09181060196A11DB11D80937E0690933E
:101E00007F06A0938006B0938106BF91AF919F910A
:101E10008F913F912F910F900FBE0F901F901895AB
:101E200026E8230F0296A11DB11DD2CF1F920F925B
:101E30000FB60F9211242F933F934F935F936F939D
:101E40007F938F939F93AF93BF93EF93FF93809173
:101E5000B900887F803609F44AC0F0F5883209F469
:101E6000A7C018F5803109F49BC0B8F4882309F4A1
:101E7000F9C0883009F494C0FF91EF91BF91AF9100
:101E80009F918F917F916F915F914F913F912F9192
:101E90000F900FBE0F901F901895883109F488C0DD
:101EA000803251F78093CE0614C0803409F49DC06F
:101EB00040F48033B9F38833F9F68093CE0685EC8D
:101EC000B0C0803509F485C0883509F496C08834DF
:101ED00099F60E94520CD0CF883909F48CC038F59D
:101EE000883729F050F4883611F0803729F683E0DE
:101EF0008093D0061092780657C0883809F47BC0CA
:101F0000803919F0803809F0B7CF80917806803297
:101F100008F071C0E091780681E08E0F809378061A
:101F20008091BB00F0E0E85AF94F80833DC0803BD0
:101F300039F0E0F4803A09F479C0883A09F09CCF8E
:101F400084E08093D0061092550610925406E091DA
:101F50005206F091530609958091540681110FC0E5
:101F600081E0809354061092320609C0803C09F447
:101F7000A6CF883C09F4A3CF883B09F07DCFE09140
:101F8000550681E08E0F80935506F0E0EE5CF94F28
:101F900080818093BB00909155068091540629C0A2
:101FA0008091AB068093BB0085EC8093BC0064CF2E
:101FB0009091CD068091CC06981758F5E091CD060A
:101FC00081E08E0F8093CD06F0E0E455F94F8081DB
:101FD000E9CFE091CD0681E08E0F8093CD06809110
:101FE000BB00F0E0E455F94F80839091CD068091DD
:101FF000CC069817C8F285E8D8CFE091CD0681E0ED
:102000008E0F8093CD068091BB00F0E0E455F94F30
:1020100080838091CF0681115CCF81E08093AA06F6
:1020200084EA8093BC001092D00626CF85EC809382
:10203000BC001092D00680917806803230F4E09196
:102040007806F0E0E85AF94F10826091780670E067
:10205000E0915606F091570688E596E009951092B2
:1020600078060ACF1092CE0634CF1F920F920FB689
:102070000F9211242F938F939F934F9913C04C99D4
:1020800011C08091D0014D9B15C0882319F081505B
:102090008093D0018091D001811101C0539A81E0D9
:1020A0008093CF019F918F912F910F900FBE0F9032
:1020B0001F90189591E0980F9093D00120911903EB
:1020C000921302C08093D0015398E9CFEAEFF6E073
:1020D0001382128288EE93E0A0E0B0E084839583BF
:1020E000A683B78383E291E09183808382E080932B
:1020F00009070895CF93DF93CDB7DEB7C654D10952
:102100000FB6F894DEBF0FBECDBF80E880BF10923F
:1021100080001092820087E090E09093C500809349
:10212000C4001092C00080EC8093C2001092C100E5
:1021300080916D00806180936D00289A8BB1816FD2
:102140008BB988B18F6088B9219820988AB1837F34
:102150008AB984B18C6284B980E58CBD8DB581600B
:102160008DBD1092300610922F061092D706109255
:10217000F9060E947B0481EA95E0909353068093D0
:10218000520682EA95E0909357068093560678941B
:102190008EEA0E94290686EA0E9429068FEA0E949A
:1021A000290685ED0E94290680E80E94290688EA12
:1021B0000E9429068FE30E94290683ED0E942906CA
:1021C00080E00E94290680E40E9429068DE80E9492
:1021D000290684E10E94290680E20E94290680E007
:1021E0000E94290681EA0E94290688EC0E9429069D
:1021F0008AED0E94290682E10E94290681E80E9458
:1022000029068FEC0E94290689ED0E94290681EF9C
:102210000E9429068BED0E94290680E40E9429066F
:1022200084EA0E9429060E94B3068EE20E942906D3
:1022300080E20E94290680E00E942906E8E6F0E09C
:10224000F0930807E0930707E491E0930A070E94E0
:10225000B30689E294E090930A068093090689E028
:1022600094E0909308048093070425961FAE259769
:10227000809168008D7F809368000E94B30681E0A2
:102280000E94F20C9E012F5F3F4F4901EDE5F3E004
:1022900084E8DF011D928A95E9F7E0E5FE2EF2E081
:1022A000EF2E1092A9061092A80610928C012A9A7D
:1022B0001AE00E940D081150E1F720E040E050E0E4
:1022C000BA0180E40E941408182F813029F524E017
:1022D0004AEA51E060E070E088E40E94140881302E
:1022E00009F026C380918A018130A9F480918B0185
:1022F0008A3A89F408EA11E620E040E050E060E024
:1023000070E489EE0E941408882311F40C94691D6E
:102310000150110989F7FCBC2A9A0E940D0880918E
:102320008C01882309F429C340E050E0BA01C401BC
:102330000E943309412C512C32018130D9F400E143
:1023400010E02EEB31E040E050E0BA01C4010E9401
:102350009B08892B09F011C38D818B50823008F0C6
:102360000CC349845A846B847C84B301A201C401E8
:102370000E943309811101C304E210E02DE030E036
:10238000B301A201C4010E949B08892B09F0F5C288
:10239000E981E093E103AC81288D398D4A8D5B8D15
:1023A000B0E00E94EE1D69AF7AAF8BAF9CAFCA80E0
:1023B000DB80F12CE12C6C897D898E899F896C19D9
:1023C0007D098E099F0929AD3AAD4BAD5CAD621B0D
:1023D000730B840B950B2E2F30E050E040E00E94F1
:1023E000731E2E5F3F4F4F4F5F4F2093E303309399
:1023F000E4034093E5035093E60388A199A1AAA1C1
:10240000BBA18093EB039093EC03A093ED03B093F7
:10241000EE03C40CD51CE61CF71CC092E703D09257
:10242000E803E092E903F092EA0389AD9AADABAD1F
:10243000BCADC80ED91EEA1EFB1EC092EF03D0929F
:10244000F003E092F103F092F20381EE93E09093B7
:10245000A9068093A8060E94B3069FEFA3ECB9E0FB
:102460009150A040B040E1F700C000001FE00FE035
:10247000612F82E00E94420665EC73E0C4010E9475
:102480000D0CC4010E94C40BC4010E94050C602FF6
:10249000611B84E00E94420663EC73E0C4010E9469
:1024A0000D0CC4010E94C40BC4010E94050CEFEF87
:1024B000F6E721E0E150F0402040E1F700C00000E5
:1024C0001150B0F63FEF43EC59E0315040405040DE
:1024D000E1F700C0000060E083E00E94420662EB8A
:1024E00073E0C4010E940D0CC4010E94C40BC4011E
:1024F0000E94050C8FEF95EAAEE081509040A0401D
:10250000E1F700C0000003E062E087E00E944206BD
:1025100060EB73E0C4010E940D0CC4010E94C40B67
:10252000C4010E94050CBFEFE9EFF0E0B150E040BC
:10253000F040E1F700C0000063E087E00E9442063F
:102540006EEA73E0C4010E940D0CC4010E94C40B2A
:10255000C4010E94050C2FEF39EF40E021503040BC
:102560004040E1F700C0000064E087E00E944206BE
:102570006CEA73E0C4010E940D0CC4010E94C40BFC
:10258000C4010E94050C5FEF89EF90E0515080403C
:102590009040E1F700C0000065E087E00E9442063D
:1025A0006AEA73E0C4010E940D0CC4010E94C40BCE
:1025B000C4010E94050CAFEFB9EFE0E0A150B040BC
:1025C000E040E1F700C0000066E087E00E944206BC
:1025D00068EA73E0C4010E940D0CC4010E94C40BA0
:1025E000C4010E94050CFFEF29EF30E0F1502040BC
:1025F0003040E1F700C0000067E087E00E9442063B
:1026000066EA73E0C4010E940D0CC4010E94C40B71
:10261000C4010E94050C4FEF59EF80E0415050403B
:102620008040E1F700C0000068E087E00E944206B9
:1026300064EA73E0C4010E940D0CC4010E94C40B43
:10264000C4010E94050C9FEFA9EFB0E09150A0409B
:10265000B040E1F700C0000069E087E00E94420658
:1026600062EA73E0C4010E940D0CC4010E94C40B15
:10267000C4010E94050CEFEFF9EF20E0E150F040BB
:102680002040E1F700C000006AE087E00E944206B7
:1026900060EA73E0C4010E940D0CC4010E94C40BE7
:1026A000C4010E94050C3FEF49EF50E0315040401B
:1026B0005040E1F700C000006BE087E00E94420656
:1026C0006EE973E0C4010E940D0CC4010E94C40BAA
:1026D000C4010E94050C8FEF99EFA0E0815090405B
:1026E000A040E1F700C000006CE087E00E944206D5
:1026F0006CE973E0C4010E940D0CC4010E94C40B7C
:10270000C4010E94050CBFEFE9EFF0E0B150E040DA
:10271000F040E1F700C000006DE087E00E94420653
:102720006AE973E0C4010E940D0CC4010E94C40B4D
:10273000C4010E94050C2FEF30E742E021503040E9
:102740004040E1F700C0000012E0612F87E00E94E6
:10275000420668E973E0C4010E940D0CC4010E94A6
:10276000C40BC4010E94050C5FEF89EF90E051504B
:1027700080409040E1F700C000001F5F1E3029F745
:10278000AFEFB0E7E2E0A150B040E040E1F700C0B9
:102790000000015009F0B8CEFFEF23EC39E0F15012
:1027A00020403040E1F700C0000060E082E00E947D
:1027B000420667E873E0C4010E940D0CC4010E9448
:1027C000C40BC4010E94050C60E084E00E94420634
:1027D00066E773E0C4010E940D0CC4010E94C40BA3
:1027E000C4010E94050C4FEF59E688E1415050406A
:1027F0008040E1F700C0000060E083E00E944206F4
:1028000063E773E0C4010E940D0CC4010E94C40B75
:10281000C4010E94050C9FEFA2E5B7E09150A040D3
:10282000B040E1F700C000006DE673E0C4010E9413
:102830000D0CC4010E94C40BC4010E94050CEFEFF3
:10284000F2E527E0E150F0402040E1F700C0000051
:1028500067E673E0C4010E940D0CC4010E94C40B22
:10286000C4010E94050C3FEF42E557E03150404063
:102870005040E1F700C0000062E673E0C4010E942E
:102880000D0CC4010E94C40BC4010E94050C8FEF03
:1028900093ECA9E081509040A040E1F700C0000017
:1028A000BFEFE1EEF4E0B150E040F040E1F700C0EE
:1028B00000000E947D0869AB7AAB8BAB9CAB2A9A77
:1028C00040EE50E064E070E08091090690910A06C5
:1028D0000E94C61DE0910906F0910A0680818823B6
:1028E00009F4E3C044E050E070E060E0C4010E94FD
:1028F000C61D49815A816B817C8189A99AA9ABA99E
:10290000BCA9481759076A077B0709F4A0C044E02F
:1029100050E070E060E0CE01C1960E94D61D60E0FC
:1029200084E090E00E94E01DB1CC84E00C947A1D1C
:1029300020E040E050E0BA0189EE0E9414088230A5
:10294000B8F4E0928C0179EED72E08EA11E620E087
:1029500040E050E0BA018D2D0E941408882311F444
:102960000C947E1D0150110991F710928C01D3CC6B
:1029700010938C0161E4D62EE8CF62E080E00E94E3
:10298000420668E474E0C4010E940D0CC4010E9478
:10299000C40BC4010E94050C60E081E00E94420665
:1029A00067E374E0C4010E940D0CC4010E94C40BD3
:1029B000C4010E94050C60E082E00E94420666E1CC
:1029C00074E0C4010E940D0CC4010E94C40BC40138
:1029D0000E94050C60E084E00E9442066BE074E017
:1029E000C4010E940D0CC4010E94C40BC4010E94CA
:1029F000050C60E085E00E9442066AEF73E0C401C6
:102A00000E940D0CC4010E94C40BC4010E94050C5D
:102A100060E086E00E9442066CEE73E0C4010E9412
:102A20000D0CC4010E94C40BC4010E94050C6CE093
:102A300087E00E94420667EE73E0C4010E940D0C1D
:102A4000C4010E94C40BC4010E94050C2ACC212C95
:102A500021E023962FAF23970091A8061091A90695
:102A600001151105A9F06091090670910A06D801B7
:102A70009696ED90FC90CE0185969C838B83C40145
:102A80000E941F0D009709F435C2882309F45CC227
:102A90002396BFAD2397B13009F0EACB2A9A60E0C4
:102AA00084E090E00E94E01DE3CB8FE280831182FE
:102AB000212C81E00E94F20C6091090670910A06B7
:102AC000E090A806F090A906109299061092980638
:102AD000E114F10481F190929B0680929A06D7014D
:102AE00096960D911C9188E996E00E941F0D892B06
:102AF00011F5F80180818823D1F0838584FF1BC004
:102B000084899589B0E0A0E0DC0199278827428D6F
:102B1000538D70E060E0842B952BA62BB72B809310
:102B20009C0690939D06A0939E06B0939F0688E90D
:102B300096E00E94950910925C03EDE5F3E084E8CD
:102B4000DF011D928A95E9F788E996E00E94C70A9D
:102B5000892BE1F5E114F104C9F190929B06809272
:102B60009A0680E00E94710B8330910511F0892B49
:102B700069F50E94780310918B06112329F36EE406
:102B800071E08BE896E00E94A11D892B21F48091D1
:102B90008A0684FFD9CF1E3221F480918C068E32B2
:102BA00099F686E1E2E8F6E0ADE5B3E001900D923A
:102BB0008A95E1F780E1E8E9F6E0ACE4B3E0019062
:102BC0000D928A95E1F781E080935C0310E0332455
:102BD0003394310E40E060E0832D0E94760E909198
:102BE0005C03811127C09F5F90935C03132D153008
:102BF00071F780915C03811132C021101DC00E94C9
:102C0000B30661E083E00E94420668ED73E0C40110
:102C10000E940D0CC4010E94C40BC4010E94050C4B
:102C2000BFEFEBE7F2E9B150E040F040E1F700C060
:102C300000002CCB312EDDCFEDE5F3E084E8DF01A1
:102C40001D928A95E9F781E080935C038EE2809380
:102C500066038093670380E180936503312C332002
:102C600009F4D0C23A9481E00E94100EF8CF41E0FE
:102C700060E0832D0E94760E811104C0832D0E9496
:102C800064070BC38F3F09F008C3F2CA3399CFC260
:102C900080915C038230C0F0332029F161E082E052
:102CA000830D0E94420680E00E9464061FEF130D10
:102CB00081E00E94100E61E081E0830D0E944206D7
:102CC0008EE30E946406312E83E03399B0C22FEF69
:102CD00031EE44E0215030404040E1F700C00000B8
:102CE000815099F7D5CF80918B068E3269F341E000
:102CF00061E080E00E94760E811103C00E946407AB
:102D0000E3CF8F3F09F7B4CA24961FAE24973199B9
:102D100011C024965FAD24975F5F24965FAF249720
:102D20008FEF91EEA4E081509040A040E1F700C009
:102D30000000EDCFBFEFE5EAFEE0B150E040F0402B
:102D4000E1F700C00000C32CD12C26E1329EC00167
:102D500011248C010A591C4FAC01435A5C4F7A0173
:102D6000DA0118968C9184FF61C042E050E065E77B
:102D700071E0C8010E949C20892B71F4222019F077
:102D80002A9421101DC0E0910906F0910A068FE2F5
:102D900080831182212C44C0F70181858E3289F312
:102DA000F4E0F21568F02AE0229ED0011124A65E1C
:102DB000BC4F8DE0F80101900D928A95E1F72394C4
:102DC0000AE113E0D12CE0E08FE2B82EE090090692
:102DD000F0900A06CC24C394CE0EEE0DFF2DF11D0B
:102DE000B082F80101900020E9F73197AF01401B54
:102DF000510BB801C7018C0D911D0E94A920F8014B
:102E000001900020E9F73197E01BF10BEC0DD39412
:102E1000065F1F4FD214D0F2EE0DFF2DF11D108270
:102E2000809168008D7F8093680043CE8091680018
:102E30008D7F80936800712C222079F13AE1E32E96
:102E400033E0F32E612C712C4FE2542EF7010190E8
:102E50000020E9F73197AF014E195F09A0900906EC
:102E6000B0900A06B701C501870D911D0E94A920E7
:102E7000F70101900020E9F73197EE19FF09E70DFE
:102E8000772473947E0EEA0DFB2DF11D508263941E
:102E90003AE0E30EF11C2610D9CFF8010190002092
:102EA000E9F73197AF01401B510BE0900906F09014
:102EB0000A06E70CF11CB801C7010E94A920F8011D
:102EC00001900020E9F73197E01BF10BEE0DFF1D9B
:102ED000108286E18C9DF0018D9DF00D1124E35A46
:102EE000FC4F8085817025968FAF259723961FAE66
:102EF0002397B2CDF7018081882309F4C9CD83855A
:102F000084FDC6CD84899589B0E0A0E0DC019927D5
:102F10008827428D538D70E060E0842B952BA62B83
:102F2000B72BF801828F938FA48FB58FF701848D13
:102F3000958DA68DB78DF801868B978BA08FB18F5D
:102F4000128A138A148A158A0E94B30666ED73E00A
:102F5000C4010E940D0CC4010E94C40BC4010E9454
:102F6000050C90E080E00E94CF062396EFAD2397FA
:102F7000E111ECC0F6E13F9EC00111248A599C4F3B
:102F80000E94CF0624962FAD24972531C0F02A9AAF
:102F900044E050E070E060E0CE01C1960E94D61D92
:102FA0008091090690910A06DC010D900020E9F756
:102FB000AD01481B590B64E070E00E94D61D61E032
:102FC00086E00E94420667EC73E0C4010E940D0C8B
:102FD000C4010E94C40BC4010E94050C4091F70378
:102FE0005091F8036091F9037091FA038A019B01F3
:102FF0001F712227332791E0012B022B032B09F4A9
:1030000090E0FDE07695679557954795FA95D1F74D
:10301000940F933508F0B5C090931903C090FB034B
:10302000D090FC03E090FD03F090FE0326013701F1
:10303000E7E07694679457944794EA95D1F74091E6
:10304000E7035091E8036091E9037091EA03440DAE
:10305000551D661D771D00E012E030E020E089E09C
:1030600094E00E949B08892B09F002C9C092D1010B
:10307000D092D201E092D301F092D401AA24A39479
:10308000B12C80911903B0E18B9FC0011124A816C7
:10309000B90608F07AC06091E10370E0C5010E94B2
:1030A0004B1E892BD1F5A701960167E056954795F0
:1030B000379527956A95D1F729AF3AAF4BAF5CAFFB
:1030C0002415350546055705C1F04091E703509199
:1030D000E8036091E9037091EA0389AD9AADABAD65
:1030E000BCAD480F591F6A1F7B1F00E012E030E0A3
:1030F00020E089E094E00E949B08F601EE0FFF1F9C
:10310000EE0FFF1FF170E75FFB4FC080D180E280C0
:10311000F38049AC5AAC6BAC7CACC5018F7099277D
:10312000892B81F4F50104E0F695E7950A95E1F71E
:10313000EE0FFF1FEE0FFF1FEF52FE4FC082D18236
:10314000E282F3829FEFA91AB90A9BCF8091090608
:1031500090910A06FC0101900020E9F73197E81BE5
:103160002E2F30E0DC01A20FB31F4C914F3211F033
:10317000E150F6CF2F5F3F4F820F931F0E94CF0683
:103180001ECF82E58093190349CF1092D00110928F
:10319000CF01AFEFBDE3E9E4A150B040E040E1F77B
:1031A00000C000002596FFAD2597FF2309F484C0D9
:1031B000529ADA9A809168008460809368002FEFB9
:1031C00029AF219853981092000180E00E94FE08D8
:1031D00089B1807C09F472C03199FACF319BFECF5E
:1031E0002A9A83E08093000180E00E94FE082396E3
:1031F0003FAD2397313009F452CC809168008B7F2A
:10320000809368000E94B30660E080E00E9442065E
:1032100083E591E00E94CF0660E081E00E944206D3
:1032200084E691E00E94CF06832D0E946407319BC3
:103230006BCD329B04C0339B02C03199FACF0E9400
:103240007D0809A91AA92BA93CA960177107820753
:10325000930709F00DC8329919CD80915C03823033
:10326000E0F08150990B381619060CF000CD61E0A2
:1032700082E0830D0E94420680E00E94640611E015
:10328000130D80E00E94100E61E083E0830D0E9428
:1032900042068EE30E946406312E83E03299F6CC1A
:1032A000BFEFE1EEF4E0B150E040F040E1F700C0E4
:1032B0000000815099F7D1CF52987BCF43E04093E3
:1032C000000180E00E94FE088091D00181110FC0B2
:1032D000539A1DAE18AE1FAA8FA998AD883E934091
:1032E00040F48FA998AD019698AF8FABF5CF539866
:1032F000F0CF8091D00199AD891709F4AFC08091CA
:10330000CF01882389F0F8941092CF0178941EAAF7
:103310001DAA8DA99EA98031974288F78DA99EA9E3
:1033200001969EAB8DABF5CF4C9BFECFF8941092DF
:10333000CF017894B091D001B9AF24E0B29FF001F1
:103340001124EF52FE4FC080D180E280F380D7017C
:10335000C60117E0B695A795979587951A95D1F769
:1033600022968CAF9DAFAEAFBFAF2297C0928F01B8
:10337000D0929001E0929101F09292014091E70386
:103380005091E8036091E9037091EA03480F591FD7
:103390006A1F7B1F00E012E030E020E089E094E04B
:1033A0000E949B08892B09F085C3A3E9B1E0279609
:1033B000BFAFAEAF2797BB24B3946091E1038B2DD1
:1033C0000E943F1E91113AC026013701B7E0769462
:1033D000679457944794BA95D1F722962CAD3DAD9A
:1033E0004EAD5FAD22974216530664067506A1F0F6
:1033F0004091E7035091E8036091E9037091EA037B
:10340000440D551D661D771D00E012E030E020E000
:1034100089E094E00E949B08F601EE0FFF1FEE0F7B
:10342000FF1FF170E75FFB4FC080D180E280F38027
:1034300022964CAE5DAE6EAE7FAE22972796AEADB5
:10344000BFAD2797CD92DD92ED92FD922796BFAF4B
:10345000AEAF2797B394B0E1BB12AFCF65E086E083
:103460000E9442068091D0016AE00E943F1E182F00
:10347000092F682F70E090E080E00E94E206602F44
:1034800070E090E080E00E94E20685EC0E94F20C81
:1034900080E3810F0E94D20C8091D0016AE00E94EB
:1034A0003F1E80E3890F0E94D20CE9AD8E2F90E081
:1034B0009C01220F331F3FAF2EAFB9B0B0943B2D0C
:1034C0003170B32E8091CF01811125C34E9923C352
:1034D0008091C10088608093C1004DADE42FF0E081
:1034E000E95FFE4FA0805A2D5170E52EEA2DE6953A
:1034F000F0E0F090E103232F30E08EAD9FAD820F1E
:10350000931F53E0880F991F5A95E1F78E0F9F1F65
:103510006F2D70E00E945F1E2C01990F66087708DE
:103520008091EF039091F003A091F103B091F20329
:10353000480E591E6A1E7B1E63E0220F331F6A95D8
:10354000E1F7E20FF31FEE0FFF1FEE0FFF1FE15732
:10355000FE4F0081118122813381A90198012250FF
:10356000310941095109AF2DB0E00E94EE1D460E10
:10357000571E681E791E00E012E030E020E0B30123
:10358000A20189E094E00E949B086C01892B09F05C
:1035900091C28091CF018111BEC24E99BCC280916F
:1035A0000001811106C083E08093000180E00E9449
:1035B000FE08A11016C06EE086E00E9442066B2D48
:1035C00070E090E080E00E94E2068091C100886097
:1035D0008093C1001AE08EE40E94A6071150D9F72B
:1035E000219AF12CFE2CEE24D701A75FBB4F7D0161
:1035F0001CE080E00E94A6071150D9F7B1E0B0931B
:103600000D06EFEFFFEFF0930C06E0930B0681EA57
:103610000E94A60781EA0E94A60781EA0E94A607E7
:1036200010920D068EEF0E94A60789AD0E94A60794
:103630008B2D0E94A60781E08A0D0E94A60781E0DB
:103640000E94A60710910B0680910C060E94A60707
:10365000812F0E94A60716E18EE40E94A607309BE8
:1036600002C01150C9F71CE080E00E94A607309B01
:1036700002C01150C9F73099C7C10E94A007F1E0FC
:10368000F0938100A11001C02198A0E0B1E0F70102
:103690003099FAC0B59BFCCF30918600B59A632F64
:1036A000621B232F603508F0F3CF3099EDC0B59B36
:1036B000FCCF30918600B59A632F621B232F6037B1
:1036C00008F4F3CF3099E0C0B59BFCCF3091860071
:1036D000B59A632F621B232F603508F4E6CF60375D
:1036E00008F0E3CF3099D0C0B59BFCCF3091860075
:1036F000B59A632F621B232F603708F4D6CF309919
:10370000C3C0B59BFCCF30918600B59A632F621B76
:10371000232F603508F4C9CF603708F0C6CF309941
:10372000B3C0B59BFCCF30918600B59A632F621B66
:10373000232F603508F0B9CF3099A6C0B59BFCCFD8
:1037400030918600B59A632F621B232F603708F4EF
:10375000ACCF309999C0B59BFCCF30918600B59A1B
:10376000632F621B232F603508F49FCF603708F06A
:103770009CCF309989C0B59BFCCF30918600B59A1B
:10378000632F621B232F603708F48FCF30997CC0E2
:10379000B59BFCCF30918600B59A632F621B232F17
:1037A000603508F482CF603708F07FCF30996CC065
:1037B000B59BFCCF30918600B59A632F621B232FF7
:1037C000603508F072CF30995FC0B59BFCCF309167
:1037D0008600B59A632F621B232F603708F465CFEC
:1037E000309952C0B59BFCCF30918600B59A632FBB
:1037F000621B232F603508F458CF603708F055CF8F
:10380000309942C0B59BFCCF30918600B59A632FAA
:10381000621B232F603708F448CF309935C0B59B21
:10382000FCCF30918600B59A632F621B232F603541
:1038300008F43BCF603708F038CF58E00027EE247B
:10384000309922C0B59BFCCF30918600B59A632F8A
:10385000621B232F603520F16037B8F0440F5A9572
:1038600039F400FD41930FEF58E0A150B04062F0F1
:10387000440F41605A9539F400FD41930FEF58E031
:10388000A150B0400AF0DCCF44C0440F5A9539F43F
:1038900000FD41930FEF58E0A150B040AAF30CC0D7
:1038A000440F41605A9539F400FD41930FEF58E001
:1038B000A150B0404AF3C4CF3099E6CFB59BFCCFBE
:1038C00030918600B59A632F621B232F6035B0F0CC
:1038D000440F5A9539F400FD41930FEF58E0A15081
:1038E000B040BAF0440F41605A9539F400FD41935D
:1038F0000FEF58E0A150B04062F0A2CF440F5A95AC
:1039000039F400FD41930FEF58E0A150B0400AF0A8
:10391000D3CF109281008091C10088608093C10054
:10392000E11052C0411451046104710409F45AC0F9
:1039300080918C0183FD07C039E0440C551C661C46
:10394000771C3A95D1F720E0B301A20188E50E94E7
:10395000140881114BC08FEF0E9408088EEF0E945F
:10396000080880E092E090938E0180938D01C11051
:1039700041C099E0E92E94E0F92E00918D0110915B
:103980008E010115110581F0D7018D917D010E94F5
:1039900008080150110910938E0100938D01B9E0C0
:1039A000EB16B6E0FB0649F70E948A0C182F882315
:1039B00059F06CE082E00E944206612F110F770BF4
:1039C000880B990B0E94E2068091CF018111A3C060
:1039D0004E99A1C05DAD5F5F5DAF503109F06DCD17
:1039E0001DAE6BCD0E948A0C6C01C1CFCC24C39458
:1039F000D12CBDCF62E082E00E9442066C2DCC0C3F
:103A0000770B880B990BDECFE1E0E0930D062FEFEB
:103A10003FEF30930C0620930B0681EA0E94A60725
:103A200081EA0E94A60781EA0E94A60710920D066D
:103A30008BEF0E94A607A11001C021988091CF01B1
:103A4000811169C089B1807C09F065C08701005887
:103A50001F4FF7010E151F0539F03FEFE31AF30A68
:103A600080810E94A607F5CF870100581F4FF701FC
:103A70000E151F0539F04FEFE41AF40A80810E94F9
:103A8000A607F5CF10910B0680910C060E94A607A1
:103A9000812F0E94A60716E38EE40E94A60780915C
:103AA000CF01811191CF89B1807C09F08DCF115068
:103AB00099F78ACF11E00E94A00721982A9A112332
:103AC00009F47FCB809168008B7F809368000C9411
:103AD000381124E040E050E0BA018AE70E9414085F
:103AE00081110C948B118091880186FD02C00C9489
:103AF00095148CE080938C010C948B1120E040E0B5
:103B000052E060E070E080E50E94140881110C949E
:103B1000B5140C948B1189B1807C09F4DBCB10E0D7
:103B2000CACFFB01DC0105900D920020E1F708955A
:103B3000FC0105900020E9F7809590958E0F9F1F5E
:103B40000895FB0151915523B1F0BF01DC01052E11
:103B50004D91442369F010D0D9F7CD010190002098
:103B600049F04D91411108D0C9F3FB014111EECF4D
:103B700081E090E001970895402539F0403229F422
:103B800040294B57465E08F018940895DC01CB019C
:103B9000FC01F999FECF06C0F2BDE1BDF89A31965D
:103BA00000B40D9241505040B8F70895DC01CB01AC
:103BB00003C02D910E94E11D41505040D0F708955F
:103BC000262FF999FECF1FBA92BD81BD20BD0FB639
:103BD000F894FA9AF99A0FBE019608950E94301E41
:103BE000A59F900DB49F900DA49F800D911D112451
:103BF00008952F923F924F925F926F927F928F9291
:103C00009F92AF92BF92CF92DF92EF92FF920F936B
:103C10001F93CF93DF93CDB7DEB7CA1BDB0B0FB675
:103C2000F894DEBF0FBECDBF09942A883988488832
:103C30005F846E847D848C849B84AA84B984C884C8
:103C4000DF80EE80FD800C811B81AA81B981CE0FBF
:103C5000D11D0FB6F894DEBF0FBECDBFED010895A4
:103C6000A29FB001B39FC001A39F700D811D1124BD
:103C7000911DB29F700D811D1124911D0895991BF6
:103C800079E004C0991F961708F0961B881F7A9553
:103C9000C9F780950895AA1BBB1B51E107C0AA1F55
:103CA000BB1FA617B70710F0A61BB70B881F991FDD
:103CB0005A95A9F780959095BC01CD01089597FB81
:103CC000072E16F4009407D077FD09D00E944B1EF2
:103CD00007FC05D03EF4909581959F4F089570950F
:103CE00061957F4F0895A1E21A2EAA1BBB1BFD010F
:103CF0000DC0AA1FBB1FEE1FFF1FA217B307E407CB
:103D0000F50720F0A21BB30BE40BF50B661F771F22
:103D1000881F991F1A9469F7609570958095909502
:103D20009B01AC01BD01CF010895052E97FB1EF448
:103D300000940E94AC1E57FD07D00E94731E07FC22
:103D400003D04EF40C94AC1E5095409530952195BF
:103D50003F4F4F4F5F4F08959095809570956195B7
:103D60007F4F8F4F9F4F0895EE0FFF1F0590F491E7
:103D7000E02D09940F931F93CF93DF938230910529
:103D800010F482E090E0E0910F07F091100730E02E
:103D900020E0B0E0A0E0309799F42115310509F456
:103DA0004AC0281B390B24303105D8F58A819B8104
:103DB0006115710589F1FB0193838283FE0111C0B6
:103DC000408151810281138148175907E0F048175B
:103DD000590799F4109761F012960C931297139665
:103DE0001C933296CF01DF91CF911F910F910895CF
:103DF00000930F0710931007F4CF2115310551F0F0
:103E00004217530738F0A901DB019A01BD01DF0118
:103E1000F801C1CFEF01F9CF9093100780930F07FE
:103E2000CDCFFE01E20FF31F819391932250310910
:103E300039832883D7CF20910D0730910E07232B8C
:103E400041F4209103013091040130930E07209337
:103E50000D0720910101309102012115310541F436
:103E60002DB73EB74091050150910601241B350B3B
:103E7000E0910D07F0910E07E217F307A0F42E1B57
:103E80003F0B2817390778F0AC014E5F5F4F2417BE
:103E9000350748F04E0F5F1F50930E0740930D07F4
:103EA000819391939FCFF0E0E0E09CCFCF93DF939D
:103EB0000097E9F0FC01329713821282A0910F075C
:103EC000B0911007ED0130E020E01097A1F42081BF
:103ED0003181820F931F20910D0730910E07281713
:103EE000390709F061C0F0930E07E0930D07DF91E9
:103EF000CF910895EA01CE17DF07E8F54A815B818B
:103F00009E0141155105B1F7E901FB83EA8349910F
:103F10005991C40FD51FEC17FD0761F48081918181
:103F20000296840F951FE90199838883828193818A
:103F30009B838A83F0E0E0E012968D919C91139729
:103F40000097B9F52D913C911197CD010296820F02
:103F5000931F20910D0730910E072817390739F666
:103F6000309751F51092100710920F07B0930E077B
:103F7000A0930D07BCCFD383C28340815181840FAE
:103F8000951FC817D90761F44E5F5F4F88819981EB
:103F9000480F591F518340838A819B819383828379
:103FA0002115310509F0B0CFF0931007E0930F070A
:103FB0009ECFFD01DC01C0CF13821282D7CFB0E0CB
:103FC000A0E0E5EEFFE10C94FB1D8C01009751F49D
:103FD000CB010E94BA1E8C01C801CDB7DEB7E0E16B
:103FE0000C94171EFC01E60FF71F9C0122503109AB
:103FF000E217F30708F49DC0D901CD91DC91119728
:10400000C617D70798F0C530D10530F3CE01049715
:104010008617970708F3C61BD70B2297C193D19336
:104020006D937C93CF010E94561FD6CF5B01AC1AD3
:10403000BD0A4C018C0E9D1EA0910F07B091100778
:10404000512C412CF12CE12C109731F580910D076A
:1040500090910E078815990509F05CC04616570621
:1040600008F058C08091010190910201009741F43D
:104070008DB79EB74091050150910601841B950BA9
:10408000E817F90708F055C0F0930E07E0930D0705
:10409000F90171836083A0CF8D919C911197129645
:1040A0006C90129713967C901397A815B90559F543
:1040B0006C0142E0C40ED11CCA14DB0420F1AC0137
:1040C0004A195B09DA011296159780F062827382B1
:1040D00051834083D9016D937C93E114F10471F015
:1040E000D7011396FC93EE93129776CF22968C0FFE
:1040F0009D1FF90191838083F301EFCFF0931007A7
:10410000E0930F0769CF4816590608F42C017D018A
:10411000D3019ACFCB010E94BA1E7C01009749F0CF
:10412000AE01B8010E94A920C8010E94561F870154
:1041300053CF10E000E050CFFB01DC0104C08D91B3
:104140000190801921F441505040C8F7881B990B09
:104150000895FB01DC0102C001900D9241505040D6
:10416000D8F708956817790768F4FB01DC01E40FBC
:10417000F51FA40FB51F02C002900E92415050408F
:10418000D8F708950C94A920DC0101C06D9341502B
:104190005040E0F70895FB01DC014150504048F0E9
:1041A00001900D920020C9F701C01D92415050406E
:1041B000E0F70895F894FFCF030000110780000096
:1041C000080109020A030B040C050D060E070F7700
:1041D0007DDFDDF7FDDFDD00000000FA05CD0561C4
:1041E00007A305C605B305A4052020202020202014
:1041F000202020202000202B2C3B5B3D5C5D222AD0
:104200003A3C3E3F7C002E747264005A5820446948
:10421000736B20456D756C20322E30002D2D2D2DA9
:104220002D2D2D2D2D2D2D2D2D2D2D2D002E2E0016
:107E0000112484B714BE81FFF0D085E080938100F7
:107E100082E08093C00088E18093C10086E0809377
:107E2000C20080E18093C4008EE0C9D0259A86E02C
:107E300020E33CEF91E0309385002093840096BBD3
:107E4000B09BFECF1D9AA8958150A9F7CC24DD24C4
:107E500088248394B5E0AB2EA1E19A2EF3E0BF2EE7
:107E6000A2D0813461F49FD0082FAFD0023811F036
:107E7000013811F484E001C083E08DD089C08234E0
:107E800011F484E103C0853419F485E0A6D080C0E4
:107E9000853579F488D0E82EFF2485D0082F10E0AE
:107EA000102F00270E291F29000F111F8ED06801E7
:107EB0006FC0863521F484E090D080E0DECF843638
:107EC00009F040C070D06FD0082F6DD080E0C81688
:107ED00080E7D80618F4F601B7BEE895C0E0D1E017
:107EE00062D089930C17E1F7F0E0CF16F0E7DF06D8
:107EF00018F0F601B7BEE89568D007B600FCFDCFD4
:107F0000A601A0E0B1E02C9130E011968C91119780
:107F100090E0982F8827822B932B1296FA010C0160
:107F200087BEE89511244E5F5F4FF1E0A038BF0790
:107F300051F7F601A7BEE89507B600FCFDCF97BE46
:107F4000E89526C08437B1F42ED02DD0F82E2BD052
:107F50003CD0F601EF2C8F010F5F1F4F84911BD097
:107F6000EA94F801C1F70894C11CD11CFA94CF0C13
:107F7000D11C0EC0853739F428D08EE10CD085E9AC
:107F80000AD08FE07ACF813511F488E018D01DD067
:107F900080E101D065CF982F8091C00085FFFCCF94
:107FA0009093C60008958091C00087FFFCCF809118
:107FB000C00084FD01C0A8958091C6000895E0E648
:107FC000F0E098E1908380830895EDDF803219F02E
:107FD00088E0F5DFFFCF84E1DECF1F93182FE3DFCA
:107FE0001150E9F7F2DF1F91089580E0E8DFEE27F6
:047FF000FF270994CA
:027FFE00040479
:00000001FF
